:100000000C94FD010C9425020C9425020C942502FD
:100010000C9425020C9425020C946B080C94250278
:100020000C9425020C9425020C9425020C942502B4
:100030000C9425020C9425020C9425020C942502A4
:100040000C9429110C9425020C9425020C94250281
:100050000C9425020C9425020C9425020C94250284
:100060000C9404120C942502E61BF11BFB1B0B1CC9
:10007000571C221C661CC91C971C0B1D391D9A1D80
:10008000B31DE91D631E9E1EB51E691F7F1F981FAD
:100090000001020408102040801B36637C777BF24D
:1000A0006B6FC53001672BFED7AB76CA82C97DFA6C
:1000B0005947F0ADD4A2AF9CA472C0B7FD932636C9
:1000C0003FF7CC34A5E5F171D8311504C723C31827
:1000D00096059A071280E2EB27B27509832C1A1B4A
:1000E0006E5AA0523BD6B329E32F8453D100ED20A2
:1000F000FCB15B6ACBBE394A4C58CFD0EFAAFB4368
:100100004D338545F9027F503C9FA851A3408F9203
:100110009D38F5BCB6DA2110FFF3D2CD0C13EC5F9D
:10012000974417C4A77E3D645D197360814FDC223C
:100130002A908846EEB814DE5E0BDBE0323A0A49BC
:1001400006245CC2D3AC629195E479E7C8376D8D23
:10015000D54EA96C56F4EA657AAE08BA78252E1CFD
:10016000A6B4C6E8DD741F4BBD8B8A703EB56648E9
:1001700003F60E613557B986C11D9EE1F8981169E5
:10018000D98E949B1E87E9CE5528DF8CA1890DBF9F
:10019000E6426841992D0FB054BB1652096AD5301A
:1001A00036A538BF40A39E81F3D7FB7CE339829B01
:1001B0002FFF87348E4344C4DEE9CB547B9432A6B0
:1001C000C2233DEE4C950B42FAC34E082EA1662881
:1001D000D924B2765BA2496D8BD12572F8F664867C
:1001E000689816D4A45CCC5D65B6926C704850FDDE
:1001F000EDB9DA5E154657A78D9D8490D8AB008C7B
:10020000BCD30AF7E45805B8B34506D02C1E8FCAF4
:100210003F0F02C1AFBD0301138A6B3A9111414FE9
:1002200067DCEA97F2CFCEF0B4E67396AC7422E7BF
:10023000AD3585E2F937E81C75DF6E47F11A711D9F
:1002400029C5896FB7620EAA18BE1BFC563E4BC665
:10025000D279209ADBC0FE78CD5AF41FDDA833880E
:1002600007C731B11210592780EC5F60517FA9197F
:10027000B54A0D2DE57A9F93C99CEFA0E03B4DAEAA
:100280002AF5B0C8EBBB3C83539961172B047EBAA7
:1002900077D626E169146355210C7D982F8A429107
:1002A000443771CFFBC0B5A5DBB5E95BC25639F168
:1002B00011F159A4823F92D55E1CAB98AA07D801D0
:1002C0005B8312BE853124C37D0C55745DBE72FE06
:1002D000B1DE80A706DC9B74F19BC1C1699BE486FB
:1002E00047BEEFC69DC10FCCA10C246F2CE92DAAEF
:1002F00084744ADCA9B05CDA88F97652513E986D74
:10030000C631A8C82703B0C77F59BFF30BE0C64763
:1003100091A7D55163CA0667292914850AB72738DA
:10032000211B2EFC6D2C4D130D385354730A65BBE5
:100330000A6A762EC9C281852C7292A1E8BFA24BAF
:10034000661AA8708B4BC2A3516CC719E892D124CE
:100350000699D685350EF470A06A1016C1A4190846
:100360006C371E4C774827B5BCB034B30C1C394AE7
:10037000AAD84E4FCA9C5BF36F2E68EE828F746FC3
:1003800063A5781478C8840802C78CFAFFBE90EB86
:100390006C50A4F7A3F9BEF27871C60000000024E7
:1003A0000027002A0000000000250028002B000084
:1003B00000000023002600290004040404040404AF
:1003C0000402020202020203030303030301020404
:1003D00008102040800102040810200102040810C7
:1003E00020000000080002010000030407000000D4
:1003F0000000000000009B237B2311241FBECFEFD1
:10040000D8E0DEBFCDBF26E0AEECB3E001C01D9268
:10041000A73AB207E1F713E0A0E0B1E0E8EBF4E5BA
:1004200002C005900D92AE3CB107D9F711E0CCEFB8
:10043000D1E004C02197FE010E941A25CB3FD107CD
:10044000C9F70E946E1A0C944F2A0C940000FC010C
:1004500087E696EEA9E0BAE682839383A483B58308
:1004600085E89EEAA7E6BBEB86839783A087B187E2
:1004700082E793EFAEE6BCE382879387A487B587D4
:100480008AE395EFAFE4B5EA86879787A08BB18BB7
:100490008FE792E5AEE0B1E5828B938BA48BB58BB1
:1004A0008CE898E6A5E0BBE9868B978BA08FB18F8F
:1004B0008BEA99EDA3E8BFE1828F938FA48FB58F6C
:1004C00089E19DECA0EEBBE5868F978FA0A3B1A339
:1004D000DF01A659BF4F1C92EE59FF4F10821182C7
:1004E000128213821482158216821782089580E484
:1004F00090E0089580E290E008952F923F924F920D
:100500005F926F927F928F929F92AF92BF92CF92A3
:10051000DF92EF92FF920F931F93CF93DF9300D060
:10052000CDB7DEB78C01FB0140818181928153817F
:10053000642E712C9301220F331F7BE1272E239E03
:10054000302C11243226A82FB0E09D01220F331F3A
:10055000239EB02C1124B226492E512C9201220F39
:10056000331F239E902C11249226652F70E09B014F
:10057000220F331F239E202C112422269301220FA9
:10058000331F220F331F3A8329836D01CC0CDD1CEE
:10059000CC0CDD1CED2CFF24F701E557FE4F8080CD
:1005A0008C246201CC0CDD1CCC0CDD1CED2CFF245A
:1005B000970125573E4FF901A080AC246B01CC0C6C
:1005C000DD1CCC0CDD1CED2CFF24970125573E4F84
:1005D000F901D080DC247301E3E0EE0CFF1CEA9506
:1005E000E1F72F2D332725573E4FF9012081E226D1
:1005F0003D01A3E0660C771CAA95E1F7A72DBB2768
:10060000A557BE4FAC91A62523E0440C551C2A9556
:10061000E1F7E52DFF27E557FE4FE0814E26E3E0A9
:10062000660F771FEA95E1F7E72FFF27E557FE4FA3
:10063000E0816E2729813A81632E7724F301E55703
:10064000FE4F3081298123272E25392F3827352742
:100650003A253A273425362733253B253227F8011A
:100660003083392F3427352738253D253E253A2735
:1006700034253627B326B924B18248275427A52626
:10068000AA26A424A6269A249224292522839427E4
:10069000C92EC824CD24EC24AE254A266425632522
:1006A000262F222523830F900F90DF91CF911F914A
:1006B0000F91FF90EF90DF90CF90BF90AF909F9001
:1006C0008F907F906F905F904F903F902F90089504
:1006D0000F931F93CF93DF93FC01DB011C911196C5
:1006E0000C91119712967C9112971396BC91812FC1
:1006F00090E0880F991FCBE1C99F602D11246827D6
:10070000402F50E0440F551FC59F802D11244827CE
:10071000272F30E0220F331FC39F802D112428275D
:100720008B2F90E0880F991FC99FC02D11248C2713
:10073000972F90279B27962794279083972F912771
:100740009B27492742274183A12FA027BA272B2780
:10075000282722837A27762787278383DF91CF91E3
:100760001F910F910895CF93DF93DC01EB01E88196
:10077000F0E0E556FE4FE491EC93ED85F0E0E556B0
:10078000FE4FE4911196EC931197EA85F0E0E5565F
:10079000FE4FE4911296EC931297EF81F0E0E5564C
:1007A000FE4FE4911396EC931397EC81F0E0E5563D
:1007B000FE4FE4911496EC931497E981F0E0E5562E
:1007C000FE4FE4911596EC931597EE85F0E0E55613
:1007D000FE4FE4911696EC931697EB85F0E0E55604
:1007E000FE4FE4911796EC931797E885F0E0E556F5
:1007F000FE4FE4911896EC931897ED81F0E0E556E2
:10080000FE4FE4911996EC931997EA81F0E0E556D2
:10081000FE4FE4911A96EC931A97EF85F0E0E556B7
:10082000FE4FE4911B96EC931B97EC85F0E0E556A8
:10083000FE4FE4911C96EC931C97E985F0E0E55699
:10084000FE4FE4911D96EC931D97EE81F0E0E55686
:10085000FE4FE4911E96EC931E97EB81F0E0E55677
:10086000FE4FE4911F96EC93DF91CF9108958F9204
:100870009F92AF92BF92CF92DF92EF92FF920F932F
:100880001F93CF93DF93CDB7DEB7A0970FB6F89441
:10089000DEBF0FBECDBF4C015B01FC018281E38056
:1008A000F480F0E18F9FE00CF11C1124BA01970154
:1008B0006E0181E1C80ED11CD60190E19C0DFB01B7
:1008C0008191BF01F90141919F0184278D939A1372
:1008D000F6CFB6018E010F5F1F4FC8010E94B30310
:1008E000F401928080E1882E800ED7015097F1E0CC
:1008F000F91538F57D01F8018D9190818927819353
:100900008E12FACFB801C6010E947D02BE016B5F54
:100910007F4FCE0145960E947D02BE01675F7F4FEB
:10092000CE0149960E947D02BE01635F7F4FCE01DA
:100930004D960E947D02B601C8010E94B3039A94AD
:10094000D4CFC501F80121918F013D912327FC01EE
:100950002193CF01AE15BF05A9F7A0960FB6F89465
:10096000DEBF0FBECDBFDF91CF911F910F91FF90E2
:10097000EF90DF90CF90BF90AF909F908F900895B1
:10098000CF93DF93DC01EB01E881F0E0E556FF4F08
:10099000E491EC93ED81F0E0E556FF4FE491119680
:1009A000EC931197EA85F0E0E556FF4FE49112963B
:1009B000EC931297EF85F0E0E556FF4FE491139624
:1009C000EC931397EC81F0E0E556FF4FE491149619
:1009D000EC931497E985F0E0E556FF4FE491159606
:1009E000EC931597EE85F0E0E556FF4FE4911696EF
:1009F000EC931697EB81F0E0E556FF4FE4911796E4
:100A0000EC931797E885F0E0E556FF4FE4911896D0
:100A1000EC931897ED85F0E0E556FF4FE4911996B9
:100A2000EC931997EA81F0E0E556FF4FE4911A96AE
:100A3000EC931A97EF81F0E0E556FF4FE4911B9697
:100A4000EC931B97EC85F0E0E556FF4FE4911C9684
:100A5000EC931C97E981F0E0E556FF4FE4911D9679
:100A6000EC931D97EE81F0E0E556FF4FE4911E9662
:100A7000EC931E97EB85F0E0E556FF4FE4911F964F
:100A8000EC93DF91CF910895AF92BF92CF92DF9216
:100A9000EF92FF920F931F93CF93DF93CDB7DEB703
:100AA000A0970FB6F894DEBF0FBECDBF9C01B62E47
:100AB000C72EDC0113960D911C911497BA01A80161
:100AC0007E01B1E1EB0EF11CD70180E1A82EAE0C46
:100AD000FB019191BF01FA018191AF0198279D938C
:100AE000AA12F6CF005F1F4FD9011296DC90B1E039
:100AF000B701CE010196BD1548F50E94C004BE01A4
:100B00006F5F7F4FC7010E946803BE016B5F7F4F1D
:100B1000CE0145960E946803BE01675F7F4FCE01FC
:100B200049960E946803BE01635F7F4FCE014D96D8
:100B30000E946803D801F7018D91908189278193E4
:100B4000AE12FACF005F1F4FDA94D1CF0E94C004DB
:100B50008B2D9C2DFE01319630E13E0F2191D80165
:100B60004D918D012427DC012D93CD013E13F6CF4D
:100B7000A0960FB6F894DEBF0FBECDBFDF91CF9128
:100B80001F910F91FF90EF90DF90CF90BF90AF90AB
:100B9000089580E190E0089580E190E008956F92DB
:100BA0007F928F929F92AF92BF92CF92DF92EF92FD
:100BB000FF920F931F93CF93DF934C013B01EA0108
:100BC0009A0140E050E060E070E080E090E003E0F7
:100BD0000E942F25F401EE59FF4FA080B180C28002
:100BE000D380E480F580068117810E9466252083EA
:100BF000318342835383648375838683978384011F
:100C000006591F4F80E4A82E740122E2E20EF11C67
:100C1000209721F1F8018081BA2CB81A2B2D30E0F1
:100C2000C217D30708F4BC2ECB2CD12CA601B301DC
:100C30009701280F311DC9010E948C27F80180817E
:100C40008B0D8083CC19DD096C0C7D1C803401F781
:100C5000C4010E943213F8011082DACFDF91CF91E4
:100C60001F910F91FF90EF90DF90CF90BF90AF90CA
:100C70009F908F907F906F9008952F923F925F92F8
:100C80006F927F928F929F92AF92BF92CF92DF929C
:100C9000EF92FF920F931F93CF93DF934031510553
:100CA00009F095C09C012B5F3F4F40E1FB01D9014A
:100CB00001900D924A95E1F7AC014A5E5F4FDC016D
:100CC0005796EC0168964C0165EA860E911C5524F6
:100CD000539484E0782ECE0106971C010196FE0104
:100CE00034975F01BE01675071096B0131967F0136
:100CF0008E01025111096A507109F4E07F123FC060
:100D0000F1017080E72DF0E0E556FF4F6490E52D8E
:100D1000F0E0E057FF4F7490FC018081E82FF0E095
:100D2000E556FF4F8491FA018083F5018081E82F19
:100D3000F0E0E556FF4FE491EC93F6018081E82F57
:100D4000F0E0E556FF4FE491E8837624F9018081D5
:100D50007826F7017082FA019081F8018081892755
:100D6000FA0180839C91FB01808189278C93988173
:100D700031968081892788835394712C1BC0F6019A
:100D8000C080F901D080DC24F701D082F801108105
:100D9000F10100811027FA011083FB016081FC0141
:100DA000808186278C93FE0170979081F501808168
:100DB000892788832C5F3F4F73944C5F5F4F149655
:100DC00024962815390509F086CF81E001C080E01E
:100DD000DF91CF911F910F91FF90EF90DF90CF9017
:100DE000BF90AF909F908F907F906F905F903F905B
:100DF0002F9008954F925F926F927F928F929F9261
:100E0000AF92BF92CF92DF92EF92FF920F931F9318
:100E1000CF93DF93EC016B01942EA52E7C0182E22F
:100E2000E80EF11CFE01E659FF4F2081822F90E071
:100E30008E010E591F4FD701A80FB91F283308F094
:100E40006BC020E82C93808190E047E350E0481B82
:100E5000590B019660E070E08E0D9F1D0E94952752
:100E6000D8018C901196BC9011971296FC91129714
:100E70001396EC91139714966C91149715967C9198
:100E80001597282D3B2D4F2F5E2F16968C91169778
:100E900017969C9100E20E944A25C901DA01AE0131
:100EA000465A5F4F782E6624552444240B2F112771
:100EB000222733270429152926293729492E5A2E76
:100EC0006B2E7724442466247724042915292629A7
:100ED0003729BA2FA92F982F882788279927BB272A
:100EE000082B192B2A2B3B2BDA010D931D932D93E5
:100EF0003C931397682D7B2D8F2F9E2F0E942025CA
:100F0000FE01E25AFF4F6083718382839383CE0197
:100F10000E943213229618C020E82C93808190E022
:100F20004FE350E0481B590B019660E070E08E0DD6
:100F30009F1D0E949527CE010E94321388E3F7017E
:100F400011928A95E9F78CCF69917991899199915C
:100F50000E9420256C8F7D8F8E8F9F8FCE15DF0591
:100F600099F7492D5A2D4132510510F040E250E0D9
:100F7000B701C601DF91CF911F910F91FF90EF90C4
:100F8000DF90CF90BF90AF909F908F907F906F90A9
:100F90005F904F900C948C278F929F92AF92BF924C
:100FA000CF92DF92EF92FF920F93CF93DF9300D017
:100FB000CDB7DEB74C017B01BA016901DC01ED91CF
:100FC000FC910680F781E02D49837A8309955C01C5
:100FD000D401ED91FC910084F185E02DC4010995C7
:100FE00069817A81AC14BD0428F0A601C7010E9472
:100FF0008C2724C0D401ED91FC910284F385E02D6F
:10100000A601C4010995D401ED91FC910480F581FC
:10101000E02DC40109956C01D401ED91FC9104848B
:10102000F585E02DAC01B701C4010995D401ED911E
:10103000FC910084F185E02DC401099547018C0CD9
:101040009D1CA5014C195D09602F70E0C4010E9430
:101050009527F701E815F90521F0908190279193E4
:10106000F9CF0F900F90DF91CF910F91FF90EF90FC
:10107000DF90CF90BF90AF909F908F9008950F9387
:10108000CF93DF93EC019A01829606E3AB01BC019A
:10109000CE010E94CC07FE01EE59FF4F2081318125
:1010A0004281538164817581868197813E5F4F4F74
:1010B0005F4F6F4F7F4F8F4F9F4F2083318342830E
:1010C00053836483758386839783CE01DF91CF91A9
:1010D0000F910C9432131F920F920FB60F9211249E
:1010E0002F934F935F936F937F938F939F93AF93C0
:1010F000BF93209184008091EB039091EC03A09129
:10110000ED03B091EE03820F911DA11DB11D8093DF
:10111000EB039093EC03A093ED03B093EE03809167
:10112000EB039091EC03A091ED03B091EE0340919D
:10113000EB035091EC036091ED037091EE032AE014
:10114000880F991FAA1FBB1F2A95D1F7840F951FDF
:10115000A61FB71F8093EB039093EC03A093ED03BE
:10116000B093EE038091EB039091EC03A091ED031B
:10117000B091EE034091EB035091EC036091ED03CD
:101180007091EE0326E0B695A795979587952A95D9
:10119000D1F784279527A627B7278093EB03909351
:1011A000EC03A093ED03B093EE038091EA038F5F0D
:1011B0008093EA03BF91AF919F918F917F916F913F
:1011C0005F914F912F910F900FBE0F901F90189528
:1011D000680F791F8617970721F0FC01108201968E
:1011E000F9CF08956F927F928F929F92AF92BF92A4
:1011F000CF92DF92EF92FF920F931F93CF93DF93E3
:10120000CDB7DEB7A0970FB6F894DEBF0FBECDBF47
:101210007C014B013A0169015801DC01ED91FC911F
:101220000484F585E02D40E250E0BE016F5F7F4F02
:101230000995B7016E5D7F4F0CE59301A401C701CD
:101240000E94CC07F701EE59FF4F20813181428186
:10125000538164817581868197813E5F4F4F5F4FD7
:101260006F4F7F4F8F4F9F4F208331834283538334
:101270006483758386839783C7010E943213D701E5
:10128000ED91FC910284F385E02D40E250E0BE0137
:101290006F5F7F4FC7010995D701ED91FC910484E1
:1012A000F585E02DA501B601C701099560E270E062
:1012B000CE0101960E94E808A0960FB6F894DEBF12
:1012C0000FBECDBFDF91CF911F910F91FF90EF9097
:1012D000DF90CF90BF90AF909F908F907F906F9056
:1012E0000895CF93DF93EC0169E670E002960E94C7
:1012F000E808E881F9810084F185E02DCE01DF91D5
:10130000CF91099425E032E0FC0121933193CF0184
:1013100069E670E00C94E808CF93DF93EC010E943B
:101320008209CE01DF91CF910C941826FC016281D5
:1013300070E06F5F7F4F84E0660F771F8A95E1F75B
:10134000838194810C94E80825E432E0FC01318328
:10135000208360EB70E005960C94E808CF93DF9350
:10136000EC010E94A409CE01DF91CF910C941826C4
:1013700090E04F960E945E2480930B019AE0899F33
:10138000D001112420E831E541E050E00E942725FA
:101390006093010170930201809303019093040113
:1013A00008950F931F93CF93DF938C01EB0110925D
:1013B000F50360E080E00E94DA17F801448155816E
:1013C0006081718180E495E00E94B70E61E080E069
:1013D0000E94DA1781E692E00E94D8178091C80433
:1013E000853069F490918401913011F4988303C0A1
:1013F000943029F418828093840181E001C080E058
:10140000DF91CF911F910F9108958091C80485308D
:1014100021F481E08093000118C08091C8048530D8
:10142000A1F065E070E080E090E00E94EF100E9483
:10143000EF178091C4049091C504099774F368EC88
:1014400070E080E090E00C94EF1080910001882320
:1014500041F064E670E080E090E00E94EF101092AE
:10146000000108958F929F92AF92BF92CF92DF9228
:10147000EF92FF92CF93DF9394E6892E912CA12CCB
:10148000B12C8091C804853091F161E070E080E07A
:1014900090E00E94EF102FB7F8946091F1037091E3
:1014A000F2038091F3039091F4032FBFC090F603F1
:1014B000D090F703E090F803F090F903A5019401B0
:1014C0000E94D924C216D306E406F506D0F68FEFA3
:1014D000C81AD80AE80AF80AC092F603D092F703AD
:1014E000E092F803F092F9030E94EF17CACF8093BD
:1014F0008401C8EBDBE084E6882E912CA12CB12C72
:1015000061E070E080E090E00E94EF102FB7F89467
:101510006091F1037091F2038091F3039091F403D1
:101520002FBFC090F603D090F703E090F803F0903F
:10153000F903A50194010E94D924C216D306E4063A
:10154000F50678F48FEFC81AD80AE80AF80AC092AC
:10155000F603D092F703E092F803F092F9030E94A9
:10156000EF178091C804853039F49091840194304C
:1015700019F48093840103C0219709F0C1CFDF9152
:10158000CF91FF90EF90DF90CF90BF90AF909F9062
:101590008F900895AF92BF92CF92DF92EF92FF9219
:1015A0000F931F93CF93DF93CDB7DEB760970FB63E
:1015B000F894DEBF0FBECDBF182F60E080E00E9420
:1015C000DA1782E792E00E94D817E12EF12C29E089
:1015D000129FC0011124875C9E4F0E94D81761E0C2
:1015E00080E00E94DA17609150056D7F609350058E
:1015F000686080E495E00E94F91187E291E00E9422
:10160000761880E1E4EBF4E0DE01119601900D9292
:101610008A95E1F7970194E0220F331F9A95E1F73D
:10162000690180E4C80ED11C44EBA42E44E0B42E22
:101630007901E0E5EE0EF11CC6010E945E24F50181
:1016400081935F01FFEFCF1ADF0ACE14DF04A1F709
:1016500040E150E0BE016F5F7F4F84EB94E00E9459
:101660007F27892B39F58BE792E00E94D8170E94DB
:10167000320A80E495E00E94FC1180E3189F9001FB
:1016800011247901E0E7EE0EF11C84E5C82E81E01B
:10169000D82E890100561F4FC7010E945E24F60113
:1016A00081936F01FFEFEF1AFF0AE016F106A1F731
:1016B00081E00BC081E892E00E94D8170E94320AB4
:1016C00080E495E00E94FC1180E060960FB6F894EB
:1016D000DEBF0FBECDBFDF91CF911F910F91FF9065
:1016E000EF90DF90CF90BF90AF900895EF92FF9270
:1016F0000F931F93CF93DF9399E0899F900111245B
:10170000790194E0E90EF11CE901C75CDE4F890123
:10171000035F1F4FC7010E945E2489938FEFE81A71
:10172000F80AE016F106B1F7DF91CF911F910F9102
:10173000FF90EF900895CF93DF93DC01EC012596A5
:10174000FE0101900020E9F73197EC1BFD0BEC93B3
:1017500011962C911197822F90E08E0F911D40973A
:101760001CF08FE0821B8C93DF91CF910895CF9373
:10177000DF93D82FC0E0CD1731F08FEB92E00E94BD
:10178000D817CF5FF8CFDF91CF910895EF92FF92F6
:101790000F931F93CF93DF937C018B01EA0110928B
:1017A000F50360E080E00E94DA17C7010E94D817B5
:1017B00061E080E00E94DA17C8010E94D817F801A2
:1017C00001900020E9F7802F8E1B8F5E0E94B70BDF
:1017D0008091C804813041F4888190E00197181607
:1017E00019060CF080E088838091C804823041F4AF
:1017F000888190E00196873191050CF087E188831C
:101800008091C804853061F490918401943041F452
:101810008093840180E495E00E94FC1181E003C084
:101820000E94050A80E0DF91CF911F910F91FF90F8
:10183000EF900895EF92FF920F931F93CF93DF9352
:101840007C018B01EA018A818823D9F181E08093B0
:10185000F50360E080E00E94DA17C7010E94D81704
:1018600061E080E00E94DA17C8010E94D817009159
:10187000E90361E089810E94DA178C818823A1F055
:1018800010E08881181728F48AE20E946B181F5F05
:10189000F8CFFE01E80FF11D8581882349F0011181
:1018A0008AE20E946B1804C0CE0105960E94D817E8
:1018B0008EE00E94B70B9981888161E0890F0E94B8
:1018C000DA178091E803882371F08091C604909123
:1018D000C704079744F01092E8031092C8041092CE
:1018E000C7041092C6048091C80491E0853009F4C1
:1018F00090E09A838130B1F5E881F0E0DE01AE0F2F
:10190000BF1F15968C9115972B8181110BC0222337
:1019100011F080E301C081E415968C93159716961B
:101920001C921BC0CE010596E80FF91F808122236F
:1019300051F08F5F8A330CF089E38083808180339C
:1019400064F480E309C08B3514F08AE505C0803269
:1019500014F480E201C08F5F808381E08093E8030C
:101960001092E9038091C8048230B1F5E881F0E07B
:10197000DE01AE0FBF1F15968C9115972B8181113B
:101980000BC0222311F089E301C08AE515968C93E0
:10199000159716961C921BC0CE010596E80FF91FED
:1019A0008081222351F081508A330CF089E38083B7
:1019B0008081803364F480E309C08B3514F08AE5BC
:1019C00005C0803214F480E201C08150808381E040
:1019D0008093E8031092E9038091C804833061F496
:1019E000888190E0FE01E80FF91F15820197181613
:1019F00019065CF080E009C081110AC0888190E07E
:101A000001968F3091050CF08FE088831092E903E6
:101A10008091C804853071F490918401943051F420
:101A20008093840181E08A8380E495E00E94FC1128
:101A300081E014C08A8181110EC08091E903811177
:101A40000AC08091C6049091C704079724F081E0F2
:101A50008A838093E9030E94050A80E0DF91CF9199
:101A60001F910F91FF90EF900895CF93DF93CDB723
:101A7000DEB764970FB6F894DEBF0FBECDBFE2E2CB
:101A8000F1E06483118299E0E2E7F2E0DE01119671
:101A900001900D929A95E1F7FE013A969BE0DF01E5
:101AA0001D929A95E9F7B9E08B9FC0011124BC0102
:101AB000675C7E4FCE0101960E949C2742E251E076
:101AC00060EC72E0CE0101960E941A0C64960FB68B
:101AD000F894DEBF0FBECDBFDF91CF910895CF93B5
:101AE000DF93EC0181E08093900480E58093B20461
:101AF000109291041092B3048D2F9D2F990F990B82
:101B00000E946618CE0199270E9466180E94A318A9
:101B100080918F048111FCCF81E080938F048093AA
:101B20008E049FEF90938D0410928C0410928B047E
:101B300080936A0480916A04806A80936A04809129
:101B40006904813061F41092690480916A04809381
:101B5000BB008091BC0083FDF8CF85EC01C085EE11
:101B60008093BC0080918F048130E1F380918C04DC
:101B7000811103C080918C0401C081E0ABE6B4E028
:101B80002CEF33E0F9019E2F921B981718F49D91CA
:101B90009193F9CF1092F0038093EF0389EC94E0D6
:101BA0000E94720FDF91CF910895FF920F931F93C0
:101BB000CF93DF93C82FD0E0CE57DF4F83E0CC0F19
:101BC000DD1F8A95E1F7C60FD11D94E0CC0FDD1F14
:101BD0009A95E1F707ED13E0C75DD34020E1F22EBF
:101BE000F00ECE01800F911F0E946F0DF8018193BE
:101BF0008F01FE12F6CF1092E70387ED93E0DF919D
:101C0000CF911F910F91FF9008950F931F93CF9342
:101C1000DF9397FD1BC0EC0183E0CC0FDD1F8A959D
:101C2000E1F70EEC13E0CE5CD340CE01800F911FA4
:101C30000E946F0DF80181938F01F3E0063D1F07AD
:101C4000A1F71092D6038EEC93E002C086E293E0F7
:101C5000DF91CF911F910F910895EF92FF920F9313
:101C60001F93CF93DF931F92CDB7DEB77C01FC01AA
:101C700000811181C80169830E945E24698168170F
:101C800019F0C8010E946624C7010F90DF91CF911F
:101C90001F910F91FF90EF900895CF92DF92EF92F6
:101CA000FF920F931F93CF93DF9300D0CDB7DEB792
:101CB00020E1829FC00111247C01E0E4EE0EF11CC2
:101CC00024EBC22E24E0D22E8C01005B1F4FF601C4
:101CD00061916F01FA82E982CE0101960E942D0E78
:101CE000FFEFEF1AFF0AE016F10689F70F900F9049
:101CF000DF91CF911F910F91FF90EF90DF90CF90E8
:101D00000895CF92DF92EF92FF920F931F93CF939C
:101D1000DF9300D0CDB7DEB799E0899F7001112421
:101D2000E4E0EE0EF11CF9E08F9F80011124075CC6
:101D30001E4F680189E0C80ED11CF80161918F0126
:101D4000FA82E982CE0101960E942D0EFFEFEF1A72
:101D5000FF0A0C151D0589F70F900F90DF91CF91A9
:101D60001F910F91FF90EF90DF90CF900895CF9249
:101D7000DF92EF92FF920F931F93CF93DF936C014B
:101D80007A018B01C0E0D0E0CE15DF0589F0D801E3
:101D90006D918D01D601ED91FC910190F081E02DC6
:101DA000C6010995892B11F47E0102C02196ECCF62
:101DB000C701DF91CF911F910F91FF90EF90DF90BE
:101DC000CF900895833081F028F4813099F08230EB
:101DD000A1F008958730A9F08830B9F08430D1F4AB
:101DE000809180008F7D03C0809180008F778093E9
:101DF0008000089584B58F7702C084B58F7D84BD3F
:101E000008958091B0008F7703C08091B0008F7DDE
:101E10008093B00008953FB7F89480916404909146
:101E20006504A0916604B091670426B5A89B05C01F
:101E30002F3F19F00196A11DB11D3FBFBA2FA92F49
:101E4000982F8827820F911DA11DB11DBC01CD01C6
:101E500042E0660F771F881F991F4A95D1F70895B2
:101E600085ED8093BC008091BC0084FDFCCF109276
:101E70008F04089540913E04262F30E0240F311D39
:101E800021323105DCF420918F042430C9F4FC01A7
:101E900080E090E0861758F430913E042191DC01F7
:101EA000A45EBB4FA30FB11D2C930196F3CF80917D
:101EB0003E04680F60933E0480E0089581E0089539
:101EC00082E008950895E091F0038091EF03E81710
:101ED00030F4F0E0E450FC4F808190E008958FEF03
:101EE0009FEF08959091F0038091EF03981750F4BD
:101EF000E92FF0E0E450FC4F208130E09F5F9093A9
:101F0000F00302C02FEF3FEFC90108958091EF0366
:101F100090E02091F003821B91090895CF92DF9207
:101F2000EF92FF920F931F93CF93DF937C01262FA5
:101F3000972F8A0180919004882391F0C62FD72F84
:101F40006E01C40ED51ECC15DD0571F06991D70167
:101F5000ED91FC910190F081E02DC7010995F3CF3F
:101F6000642F822F0E943A0FC801DF91CF911F91F9
:101F70000F91FF90EF90DF90CF900895CF93DF9374
:101F80001F92CDB7DEB76983209190042223D1F050
:101F90002091B304203240F021E030E0FC01338393
:101FA000228380E090E015C080919104E82FF0E05A
:101FB000EE56FB4F998190838F5F809391048093BD
:101FC000B30405C061E0CE0101960E943A0F81E0A2
:101FD00090E00F90DF91CF910895089580E090E018
:101FE00008950E947A27FC01808191810C94182623
:101FF000EF92FF920F931F93CF93DF93EC0119821F
:1020000018821B821A821D821C8261157105A9F13A
:102010007B01FB0101900020E9F731978F01061B3E
:10202000170BB8016F5F7F4F80E090E00E94B026F1
:10203000009759F0998388831B830A832C813D8103
:10204000232B81F4FC0110820DC0888199810097B7
:1020500011F00E941826198218821D821C821B8290
:102060001A820BC01D830C83B701DF91CF911F91A2
:102070000F91FF90EF900C94A727DF91CF911F91C4
:102080000F91FF90EF900895CF93DF93282F30E0CA
:10209000F901EF51FC4F8491F901E353FC4FD491C6
:1020A000F901E754FC4FC491CC2391F081110E94B7
:1020B000E20EEC2FF0E0EE0FFF1FE155FC4FA59173
:1020C000B491EC91ED2381E090E021F480E002C036
:1020D00080E090E0DF91CF9108951F93CF93DF933D
:1020E000282F30E0F901EF51FC4F8491F901E353BF
:1020F000FC4FD491F901E754FC4FC491CC23C9F0B3
:10210000162F81110E94E20EEC2FF0E0EE0FFF1F60
:10211000EB55FC4FA591B4918FB7F894111105C000
:102120009C91ED2FE095E92302C0EC91ED2BEC930F
:102130008FBFDF91CF911F910895CF93DF93EC0173
:1021400060E08E810E946D1061E08E810E946D10B2
:1021500060E08E810E946D108BE891E00197F1F7AD
:10216000DF91CF910895CF93DF9390E0FC01E3538B
:10217000FC4F2491FC01E754FC4F8491882361F1CA
:1021800090E0880F991FFC01E556FC4FC591D49152
:10219000FC01EB55FC4FA591B491611109C09FB7AB
:1021A000F8948881209582238883EC912E230BC09C
:1021B000623061F49FB7F8943881822F8095832331
:1021C0008883EC912E2B2C939FBF06C08FB7F89479
:1021D000E8812E2B28838FBFDF91CF9108958F92B6
:1021E0009F92AF92BF92CF92DF92EF92FF926B01DC
:1021F0007C010E940B0F4B015C01C114D104E1046E
:10220000F104F1F00E940B0FDC01CB018819990950
:10221000AA09BB09883E9340A105B10570F321E0EE
:10222000C21AD108E108F10888EE880E83E0981EF2
:10223000A11CB11CC114D104E104F10419F7DDCFD4
:10224000FF90EF90DF90CF90BF90AF909F908F90D6
:1022500008951F920F920FB60F9211242F933F9360
:102260008F939F93AF93BF938091F1039091F2036B
:10227000A091F303B091F4033091630423E0230FA2
:102280002D3720F40196A11DB11D05C026E8230FAE
:102290000296A11DB11D209363048093F1039093D6
:1022A000F203A093F303B093F4038091640490913C
:1022B0006504A0916604B09167040196A11DB11D4B
:1022C0008093640490936504A0936604B0936704BC
:1022D000BF91AF919F918F913F912F910F900FBE22
:1022E0000F901F901895CF92DF92EF92FF920F936D
:1022F0001F93CF93DF937C016C0187E0C80ED11C44
:10230000C0E0D0E0062F10E0B8010C2E02C0759599
:1023100067950A94E2F76170F60181916F010E945E
:102320006D102196C430D10579F7C701DF91CF91A7
:102330001F910F91FF90EF90DF90CF900C949D1024
:10234000CF92DF92EF92FF920F931F93CF93DF9381
:10235000EC01F62E642F8C810E946D108D818F3FD1
:1023600019F060E00E946D108F850F2D10E084FF42
:1023700025C06E0187E0C80ED11CE12CF12CB801FC
:102380000E2C02C0759567950A94E2F76170F6010C
:1023900081916F010E946D10FFEFEF1AFF0A88E034
:1023A000E816F10461F7CE01DF91CF911F910F91F3
:1023B000FF90EF90DF90CF900C949D10B80184E0D7
:1023C000759567958A95E1F7CE010E9473116F2D7F
:1023D000CE01DF91CF911F910F91FF90EF90DF9091
:1023E000CF900C94731141E00E94A01181E090E025
:1023F000089540E00C94A01161E00E94F9118BE374
:102400009FE10197F1F708951F920F920FB60F9277
:1024100011242F933F934F935F936F937F938F93E9
:102420009F93AF93BF93EF93FF938091B900887F01
:10243000803609F49CC068F5883209F45BC090F4DA
:10244000803109F454C038F4882309F4F6C0883088
:1024500009F44DC0F6C0883109F44CC0803209F44B
:102460005DC0EFC0803409F468C048F4803309F4DB
:1024700055C0883309F0E5C080938D04D8C08035FD
:1024800009F44FC0883509F45DC0883409F0D9C01B
:10249000D6C0883909F4C7C0A8F4883709F467C0E2
:1024A00038F4883609F463C0803709F460C0C9C0C5
:1024B000883809F4B8C0803909F45FC0803809F061
:1024C000C0C05BC0803B09F486C038F4803A09F490
:1024D00066C0883A09F47FC0B4C0803C09F4A7C044
:1024E000883C09F4A4C0883B09F48AC0AAC0809142
:1024F0006A0410C090918C0480918B04981770F539
:10250000E0918C0481E08E0F80938C04F0E0E5591B
:10251000FB4F80818093BB0085EC86C080938D0447
:102520008EC0E0918C0481E08E0F80938C048091AA
:10253000BB00F0E0E559FB4F808390918C048091C3
:102540008B046EC0E0918C0481E08E0F80938C042C
:102550008091BB00F0E0E559FB4F808380918E04B1
:1025600081116DC081E08093690484EA61C083E0D9
:1025700080938F0410926204CFCF809162048032E6
:1025800008F051C0E091620481E08E0F80936204F4
:102590008091BB00F0E0EE5BFB4F8083BDCF85EC0C
:1025A0008093BC0010928F0480916204803230F4DA
:1025B000E0916204F0E0EE5BFB4F108260916204F8
:1025C00070E0E0914004F091410482E494E00995C8
:1025D0001092620436C084E080938F0410923F040E
:1025E00010923E04E0913C04F0913D0409958091E5
:1025F0003E04811105C081E080933E0410921C04CA
:10260000E0913F0481E08E0F80933F04F0E0E45EB0
:10261000FB4F80818093BB0090913F0480913E04EA
:10262000981708F479CF85E88093BC000AC085EC40
:102630008093BC0010928F0404C010928D040E94FD
:10264000300FFF91EF91BF91AF919F918F917F914B
:102650006F915F914F913F912F910F900FBE0F900F
:102660001F9018952F923F924F925F926F927F9298
:102670008F929F92AF92BF92CF92DF92EF92FF9292
:102680000F931F93CF93DF93CDB7DEB7CC54D1090F
:102690000FB6F894DEBF0FBECDBF2D969FAF8EAFA5
:1026A0002D971C0102E2200E311C8E599F4F988FEE
:1026B0008F8BF10160817181828193810E9420253D
:1026C00061937193819391932F89388DE217F3076A
:1026D00089F72D96AEADBFAD2D9712964D915D91B8
:1026E0006D917C9115974FA358A769A77AA7169665
:1026F0004D905D906D907C9019974BA65CA66DA651
:102700007EA61A964D905D906D907C901D974FA679
:1027100058AA69AA7AAA1E964D905D906D907C90F9
:1027200051974BAA5CAA6DAA7EAA52964D905D90D5
:102730006D907C9055974FAA58AE69AE7AAE56967A
:102740004D905D906D907C9059974BAE5CAE6DAEA8
:102750007EAE5A964D905D906D907C905D972396DD
:102760004CAE5DAE6EAE7FAE23975E964D905D90A3
:102770006D907C90919727964CAE5DAE6EAE7FAE1D
:1027800027970BE912E01E8B0D8B730162012396D4
:102790002CAD3DAD4EAD5FAD23972F8F38A349A330
:1027A0005AA34BAD5CAD6DAD7EAD498B5A8B6B8B37
:1027B0007C8B6FA978AD89AD9AAD6D837E838F8355
:1027C00098878BA99CA9ADA9BEA98BA39CA3ADA3F7
:1027D000BEA34FA458A869A87AA84B8E5C8E6D8EB4
:1027E0007E8E6BA47CA48DA49EA469867A868B863B
:1027F0009C868FA098A4A9A4BAA489829A82AB824D
:10280000BC82ED89FE890591159125913491D10104
:102810004D905D906D907D901D014D815E816F8129
:102820007885B62F672F742F452F5B2F400E511ED2
:10283000621E731E0D811E812F81388500951095B3
:10284000209530958F8C98A0A9A0BAA008211921B5
:102850002A213B2189889A88AB88BC888D819E81FA
:10286000AF81B88588229922AA22BB220825192582
:102870002A253B25040D151D261D371D2A013B0168
:10288000440C551C661C771C411C440C551C661CD2
:10289000771C411C4C015D018B2CBA2CA92C982E65
:1028A00080FAB794A79497948794B7F884249524D2
:1028B000A624B7242A013B0140FA779467945794E1
:1028C000479477F840FA779467945794479477F849
:1028D00040FA779467945794479477F88424952422
:1028E000A624B724800E911EA21EB31EC80CD91CAC
:1028F000EA1CFB1C09811A812B813C81A02F032F2C
:10290000322F212F1A2F000F111F221F331F011DDD
:10291000D901C801880F991FAA1FBB1F811D4981BA
:102920005A816B817C8140FB7795679557954795D8
:1029300077F940FB779567955795479577F98C011F
:102940009D01042715272627372749815A816B8146
:102950007C81FA01AB01BF01440F551F661F771F31
:10296000411D440F551F661F771F411DDB01CA0122
:10297000880F991FAA1FBB1F811DB901A8014827F5
:1029800059276A277B278B8C9C8CAD8CBE8C498405
:102990005A846B847C8484249524A624B7240981DA
:1029A0001A812B813C8180229122A222B3220B8D9D
:1029B0001C8D2D8D3E8D04211521262137210825C2
:1029C00019252A253B25400F511F621F731F8BA11C
:1029D0009CA1ADA1BEA18C0D9D1DAE1DBF1D8D87FF
:1029E0009E87AF87B88BDB01CA018C0D9D1DAE1D84
:1029F000BF1D0D891E890C5F1F4F1E8B0D8B2B8DEC
:102A00003C8D4D8D5E8D2BA33CA34DA35EA3CF8C3F
:102A1000D8A0E9A0FAA04F89588D2416350669F18F
:102A200009891A892B893C890F8F18A329A33AA3F6
:102A30002D813E814F815885298B3A8B4B8B5C8B46
:102A40004D855E856F8578894D835E836F8378873A
:102A500049845A846B847C844B8E5C8E6D8E7E8E12
:102A600069807A808B809C8069867A868B869C863A
:102A700089839A83AB83BC83C4CE6BED72E07E8B7B
:102A80006D8B22242394312CF101EF70FF273896AF
:102A9000EE0FFF1FEE0FFF1F2D96EEACFFAC2D9734
:102AA000EE0DFF1D0281138124813581F1013D96D8
:102AB000EF70FF273896EE0FFF1FEE0FFF1FEE0D92
:102AC000FF1DC280D380E480F5804FE0420DE42FEB
:102AD000EF70B601A7013A014B0160FA9794879411
:102AE0007794679497F82B966CAE7DAE8EAE9FAEC2
:102AF0002B972D966EAD7FAD2D9744E0E49F600D32
:102B0000711D1124FB01B096F88FEF8BF1013896FF
:102B1000EF70FF273896EE0FFF1FEE0FFF1F2D9669
:102B20004EAD5FAD2D974E0F5F1FEF89F88D428040
:102B3000538064807580FA0182809380A480B58080
:102B4000840C951CA61CB71C702E412E522E632E91
:102B5000B301A201440F551F661F771F411D2801B5
:102B60003901E3E07694679457944794EA95D1F756
:102B70004426552666267726B80189019B0100FB6D
:102B8000379527951795079537F900FB37952795C2
:102B90001795079537F94026512662267326480C6B
:102BA000591C6A1C7B1CFAE0F694E794D794C794EE
:102BB000FA95D1F72B968CAC9DACAEACBFAC2B97F5
:102BC000C824D924EA24FB2480FAB794A7949794C4
:102BD0008794B7F880FAB794A79497948794B7F836
:102BE0008C249D24AE24BF24840C951CA61CB71CE9
:102BF000EF89F88D82829382A482B5826D897E8965
:102C0000FB0145905590659074904F8A588E698E5F
:102C10007A8E0D851E852F853889F22F232F302F30
:102C2000012F1F2F4D855E856F85788940955095C2
:102C30006095709549885A886B887C884421552115
:102C4000662177214D805E806F807884CD84DE841C
:102C5000EF84F8884C205D206E207F206A017B0184
:102C6000C424D524E624F7244F89588D698D7A8DA4
:102C7000C40ED51EE61EF71E28013901440C551C52
:102C8000661C771C411C440C551C661C771C411C9F
:102C90004D855E856F857889E42F472F762F652FC8
:102CA0005E2F40FB779567955795479577F94425B3
:102CB0005525662577252801390140FA77946794D0
:102CC0005794479477F840FA7794679457944794C9
:102CD00077F840FA779467945794479477F84425A7
:102CE0005525662577254C0D5D1D6E1D7F1D840EB7
:102CF000951EA61EB71E4F8C58A069A07AA0840C02
:102D0000951CA61CB71CD82EE92EFA2ECB2ECC0C67
:102D1000DD1CEE1CFF1CC11C97018601000F111F5A
:102D2000221F331F011DAC01BD0140FB7795679544
:102D30005795479577F940FB779567955795479550
:102D400077F968017901C426D526E626F726BC0165
:102D5000AD01440F551F661F771F411D440F551FBE
:102D6000661F771F411D8A019B01000F111F221F43
:102D7000331F011DB701A601402751276227732782
:102D8000C984DA84EB84FC8409811A812B813C811B
:102D9000C026D126E226F326C822D922EA22FB2227
:102DA00009851A852B853C8549805A806B807C80FB
:102DB00004211521262137210C251D252E253F25EF
:102DC000400F511F621F731F4B8C5C8C6D8C7E8C6F
:102DD000480C591C6A1C7B1C480D591D6A1D7B1D23
:102DE0000FEF201A300A2D893E892C5F3F4F3E8B12
:102DF0002D8B89849A84AB84BC848B8E9C8EAD8E03
:102E0000BE8EA988BA88CB88DC88AF8EB8A2C9A24A
:102E1000DAA201E32016310419F18D809E80AF8083
:102E2000B884898A9A8AAB8ABC8AAD84BE84CF84EE
:102E3000D888AD82BE82CF82D8864D865E866F8668
:102E4000788AC980DA80EB80FC80C986DA86EB86D6
:102E5000FC8689839A83AB83BC83DB01CA0114CED1
:102E60008FA098A4A9A4BAA4480D591D6A1D7B1D62
:102E70002D96EEADFFAD2D9742835383648375830A
:102E80008BA49CA4ADA4BEA4880D991DAA1DBB1D36
:102E900086839783A087B18789819A81AB81BC8122
:102EA0008FA498A8A9A8BAA8880D991DAA1DBB1D12
:102EB00082879387A487B58789859A85AB85BC85EA
:102EC0008BA89CA8ADA8BEA8880D991DAA1DBB1DE6
:102ED00086879787A08BB18B8FA898ACA9ACBAAC2A
:102EE000480C591C6A1C7B1C428A538A648A758A66
:102EF0008D859E85AF85B8894BAC5CAC6DAC7EACE6
:102F0000840D951DA61DB71D868B978BA08FB18F45
:102F10008D819E81AF81B88523964CAC5DAC6EAC43
:102F20007FAC2397840D951DA61DB71D828F938FAF
:102F3000A48FB58F89899A89AB89BC8927964CACB7
:102F40005DAC6EAC7FAC2797840D951DA61DB71D9B
:102F5000868F978FA0A3B1A3C45BDF4F0FB6F89401
:102F6000DEBF0FBECDBFDF91CF911F910F91FF90BC
:102F7000EF90DF90CF90BF90AF909F908F907F9019
:102F80006F905F904F903F902F900895009769F059
:102F9000FC0101900020E9F73197AF01481B590B64
:102FA000BC0180E495E00C94B70E80E090E00895B9
:102FB0000C94C617643008F063E0909153056917CC
:102FC00010F06FEF690FE62FF0E0E05CFA4F9489A4
:102FD000682F690F606880E495E00C94F91182E035
:102FE0000E944410892B91F083E00E944410892BA9
:102FF00081F081E10E944410892B71F08CE00E94E5
:103000004410892B61F085E090E00BC081E090E0F6
:1030100008C082E090E005C083E090E002C084E058
:1030200090E08093C804823041F018F4813029F098
:1030300006C0833011F0843011F480938401059729
:1030400071F48091C6049091C70401969093C704CF
:103050008093C6041092C5041092C404089510927F
:10306000C7041092C6048091C4049091C5040196CF
:103070009093C5048093C4040895EF92FF920F9338
:103080001F93CF93DF9300D0CDB7DEB704E511E0F7
:10309000845591407C019701200F311FF801619107
:1030A0008F013A832983CE0101960E942D0EF1E013
:1030B00004381F0781F784E591E00F900F90DF91AE
:1030C000CF911F910F91FF90EF900895682F89EC99
:1030D00094E00C94BE0FE0914005F0914105019001
:1030E000F081E02D682F80E495E009940F931F9301
:1030F000CF93DF938C01C5EDD4E0E881F9810084A2
:10310000F185E02DCE010995F80101900020E9F745
:103110003197AF01401B510BE881F9810284F3859F
:10312000E02DB801CE010995E881F9810484F58587
:10313000E02D40E150E064EB74E0CE01DF91CF91EF
:103140001F910F9109942091B3049091B204213200
:1031500008F04AC080918F048111FCCF32E0309397
:103160008F0431E030938E043FEF30938D04109242
:103170008C0420938B04A2E9B4E04BE654E0FA01FE
:103180003E2F341B321718F43D913193F9CF109232
:103190006A0420916A04990F922B90936A0490918B
:1031A0006904913061F41092690490916A049093DB
:1031B000BB009091BC0093FDF8CF95EC01C095EE5B
:1031C0009093BC0090918F049230E1F390918D0424
:1031D0009F3F79F080918D04803241F080918D0481
:1031E000803331F084E005C081E003C082E001C09B
:1031F00083E0109291041092B30410929004089509
:10320000EF92FF920F931F93CF93DF93EC01623005
:1032100018F08F8588608F876B8B1C8A80E48D8B7C
:1032200080E18E8B80E58F8B61E08C810E94B310F2
:103230008D818F3F19F061E00E94B31061E08E81B3
:103240000E94B3107E0187E0E80EF11C00E010E060
:103250008F8584FD03C084E090E002C088E090E0A8
:10326000081719074CF461E0F70181917F010E9472
:10327000B3100F5F1F4FECCF8BE39DE00197F1F789
:1032800060E08C810E946D1060E08E810E946D1064
:103290008D818F3F19F060E00E946D106F8564FD95
:1032A0001DC063E0CE010E9473110BE416E4C80157
:1032B0000197F1F763E0CE010E947311C8010197F5
:1032C000F1F763E0CE010E94731183E592E001976C
:1032D000F1F762E0CE010E94731116C06062CE0168
:1032E0000E94F9118BE496E40197F1F76F85606213
:1032F000CE010E94F91183E592E00197F1F76F8505
:103300006062CE010E94F9116F856062CE010E9459
:10331000F91184E0888B6CE0CE010E94F911CE0196
:103320000E94FC1182E0898B66E0CE01DF91CF9193
:103330001F910F91FF90EF900C94F911CF93DF93B1
:10334000EC0161E08BE00E94B310209711F460E083
:1033500004C0CF3FD10531F461E08BE0DF91CF9124
:103360000C946D10ECEEF3E0E491E330F9F048F4E6
:10337000E130B9F0E230A1F584B5806284BDC8BD0A
:1033800034C0E730E9F0E83019F1E43049F58091D4
:103390008000806280938000D0938B00C0938A006D
:1033A00024C084B5806884BDC7BD1FC080918000E3
:1033B000806880938000D0938900C093880015C0F6
:1033C0008091B00080688093B000C093B3000DC0BE
:1033D0008091B00080628093B000C093B40005C0BB
:1033E000C038D1050CF0B8CFB2CFDF91CF9108959E
:1033F0001F93CF93DF93CDB7DEB7AE970FB6F89498
:10340000DEBF0FBECDBF182F8091680490E04AE068
:10341000BE01645D7F4F01960E942124E091680403
:10342000F0E0EE0FFF1FEC5AFE4F808191810E9469
:10343000050EBC01CE0183960E94A7278BE0E6EC27
:10344000F1E0DE01529601900D928A95E1F7FE01BE
:103450007D9686E0DF011D928A95E9F7B9E01B9F12
:10346000B0011124675C7E4FCE0142960E949C27DA
:1034700083E290E0A0E0B0E089839A83AB83BC83D1
:10348000FE0135968DE0DF011D928A95E9F7BE01B8
:10349000645D7F4FCE0101960E949C276FEB72E026
:1034A000CE0101960E949C27BE016D5D7F4FCE012B
:1034B00001960E949C2748E654E0BE016F5F7F4F53
:1034C000CE0142960E94C60BAE960FB6F894DEBFB0
:1034D0000FBECDBFDF91CF911F910895CF93DF93A2
:1034E000CDB7DEB7E9970FB6F894DEBF0FBECDBFFC
:1034F000789484B5826084BD84B5816084BD85B5CF
:10350000826085BD85B5816085BD80916E008160DA
:1035100080936E0010928100809181008260809380
:103520008100809181008160809381008091800082
:103530008160809380008091B10084608093B100AD
:103540008091B00081608093B00080917A008460A7
:1035500080937A0080917A00826080937A008091D3
:103560007A00816080937A0080917A0080688093ED
:103570007A001092C10061E08DE00E94B31060E01B
:103580008DE00E946D1060E08AE00E94B31081E03F
:1035900090E00E945E248F3F11F08093050161E06E
:1035A0008BE00E94B3108091050190E00E949E196B
:1035B00060E08EE00E94B31060E08FE00E94B310E4
:1035C00060E080E10E94B31062E081E10E94B310EC
:1035D00062E08CE00E94B31062E082E00E94B310CF
:1035E00062E083E00E94B31062E080E495E00E9414
:1035F000001980E495E00E94FC1160915005862F2F
:103600008460809350056C6080E495E00E94F9111D
:103610008091B100887F81608093B10080E090E06C
:103620000E945E248A3429F48091FA030E94760B6A
:1036300034C080E495E00E94FC118AE892E00E9488
:10364000D81760E177E280E090E00E94EF100FE190
:1036500010E080E7E82EF12CB1EEDB2ED00E8D2DA0
:103660000E94810E86E091E00E9476188D2D0E94C6
:103670004D0EC7010E943D1862E1C8010E946624F8
:1036800020E3E20EF11C0F5F1F4F0232110521F7FC
:103690006AE480E090E00E9466241092F0031092A9
:1036A000EF03109291041092B30410928F0481E002
:1036B00080938E041092690461E082E10E946D1093
:1036C00061E083E10E946D108091B9008E7F80934C
:1036D000B9008091B9008D7F8093B90088E4809310
:1036E000B80085E48093BC0060E080E00E94DA17B7
:1036F00087E992E00E94D81761E080E00E94DA1723
:1037000088EA92E00E94D817F89489E0E0E0F0E0BF
:1037100080935700E491E3E0F0E080935700E49158
:10372000E2E0F0E080935700E491E1E0F0E0809384
:10373000570084917894837021F083EB92E00E948B
:10374000D81761E08AE00E94DA17E12CF12C00E042
:1037500010E0C8010E946F0DE80EF11C0F5F1F4FB3
:10376000011580E41807A9F799EBE91696ECF9061C
:1037700051F08AEB92E00E94D81760E777E180E091
:1037800090E00E94EF10AAE08A2E912CA12CB12C7F
:103790001E01E5E02E0E311C8E010F5F1F4FCE0182
:1037A0000C969DAB8CAB8091FB03882309F4C8C3B6
:1037B000E09138018E2F90E0FC013197E431F10562
:1037C00008F02BC7EC5CFF4F0C941A2582E0809325
:1037D0003801E8E3F1E0129291E0E732F907D9F716
:1037E000A7C461E08091FA030E94350D882309F493
:1037F00014C783E007C08091FA030E94CA0A882395
:1038000021F084E08093380108C781E0809338017B
:103810001092FB0302C761EC72E0C8010E94F80F2E
:10382000BE016E5D7F4FC8010E94D109F82EC8010C
:103830000E94F30FFF2009F4F0C68AA18823A9F1A2
:1038400085E0E0CFF090FA036DEC72E0C8010E94D1
:10385000F80FBE016E5D7F4FC8010E94D109E82EAE
:10386000C8010E94F30FEE2009F4D7C6DAA0DD20CC
:1038700041F161E080E00E94DA1783ED92E00E945E
:10388000D8178EE00E94B70B87E291E00E9476186D
:103890008F2D0E944D0E0E94320A80E495E00E9416
:1038A000FC11ED2CEE2009F4B8C687E0ABCF60E048
:1038B0008091FA030E94350D882309F4AEC686E094
:1038C000A1CF80E495E00E94FC11ECCF69ED72E09D
:1038D000C8010E94F80FBE016E5D7F4FC8010E94B3
:1038E000D109F82EC8010E94F30FFF2009F495C6F4
:1038F0008AA1882309F44BC06091FA03E9E06E9F26
:10390000B0011124675C7E4F81E191E00E94A727FE
:10391000F8E0FF2EF0920D018CE091E00E949B0BED
:1039200080E495E00E94FC11F092380176C6F09098
:10393000FA036DEC72E0C8010E94F80FBE016E5DE3
:103940007F4FC8010E94D109E82EC8010E94F30FE1
:10395000EE2009F462C6DAA0DD2009F454C061E06B
:1039600080E00E94DA1783ED92E00E94D8178EE083
:103970000E94B70B8F2D0E94810E0E94320A80E4B4
:1039800095E00E94FC11ED2CEE2009F446C68AE079
:1039900039CFE090FA03F12C4AE0BE016E5D7F4F13
:1039A000C70101960E94212486E0E3E9F1E0D801F5
:1039B00001900D928A95E1F718861F82BE016E5D17
:1039C0007F4FC8010E949C2766EE72E0C8010E94EA
:1039D0009C274CE051E0B80188EE92E00E941A0C5E
:1039E000882309F41AC6E9E0DE2EDE9CC001DF9CC4
:1039F000900D112461E171E0875C9E4F0E94A72722
:103A0000D09238010AC68F2D0E94760B80E495E093
:103A10000E94FC11B9CF60EF72E0C8010E94F80F5C
:103A2000BE016E5D7F4FC8010E94D109F82EC8010A
:103A30000E94F30FFF2009F4F0C58AA18823B9F092
:103A40008BE0809338018091FA030E94B80980913D
:103A50000B014AE067E271E0FAE08F9FC001112498
:103A60000E94212482E291E00E949B0BD6C58CE04B
:103A7000C9CE6091FA03109226018BE0EBE9F1E0E8
:103A8000D80101900D928A95E1F787E0ECA9FDA994
:103A900011928A95E9F779E0F72EF69EB00111248C
:103AA000675C7E4FC8010E949C2742E251E060ECB7
:103AB00072E0C8010E941A0C882309F4AEC58CE09C
:103AC00080933801E090FA0387E291E00E9403249A
:103AD0006AE070E00E94C524693071051CF4F09220
:103AE0000B0109C06B3F710524F08AEF80930B0135
:103AF00002C060930B0160910B018E2D90E04F96F8
:103B00009A838983C8010E942D0EA0910B01FAE0CF
:103B1000AF9FD001112420E831E541E050E00E9440
:103B20002725609301017093020180930301909314
:103B3000040173C56EEF72E0C8010E94F80FBE0168
:103B40006E5D7F4FC8010E94D109F82EC8010E9406
:103B5000F30FFF2009F461C58AA1882311F08DE0DD
:103B600051CE80E14FCE8091FA030E94F81988234C
:103B700039F1E0916804F0E0EE0FFF1FEC5AFE4FC0
:103B8000808191810E94050EBC0181E191E00E943B
:103B9000A727809111018F3349F4E2E2F1E01292FC
:103BA00021E0E131F207D9F710920C0188E080930F
:103BB0000D018CE091E00E949B0B8EE08093380118
:103BC0008091C804833009F028C58FE080933801C4
:103BD000D4C48091680490E04AE0BE016E5D7F4FDE
:103BE00001960E94212486E0EDEAF1E0D8010190DF
:103BF0000D928A95E1F71F8218861986BE016E5DC7
:103C00007F4FC8010E949C2766EE72E0C8010E94A7
:103C10009C274CE051E0B80188EE92E00E941A0C1B
:103C2000782E882309F4F9C4E12CF12CC12CD12C75
:103C300060901101C7010E946F0D90E0262D660C67
:103C4000330B8217930789F560901201C701019623
:103C50000E946F0D90E0262D660C330B82179307A0
:103C600021F560901301C70102960E946F0D90E04C
:103C7000262D660C330B82179307B9F4609014015C
:103C8000C70103960E946F0D90E0262D660C330B42
:103C90008217930751F4E0916804F0E0EE0FFF1FE4
:103CA000EC5AFE4FD182C0820BC08FEFC81AD80ADF
:103CB00098E0E90EF11CE114E0E4FE0609F0B8CF4B
:103CC00071104DCFAAC4F090FA036CE073E0C80104
:103CD0000E94F80FBE016E5D7F4FC8010E94D1099E
:103CE000E82EC8010E94F30FEE2009F496C4DAA072
:103CF000DD20D9F061E080E00E94DA1783ED92E0E8
:103D00000E94D8178BE00E94B70BF0E3FF9EC00122
:103D1000112480599F4F0E943D180E94320A80E46E
:103D200095E00E94FC11ED2C04C080E495E00E9417
:103D3000FC11EE2009F471C484E164CD68E173E004
:103D4000C8010E94F80FBE016E5D7F4FC8010E943E
:103D5000D109F82EC8010E94F30FFF2009F45DC4B9
:103D60008AA1882349F383E14DCD8091680490E0D6
:103D70004AE0BE016E5D7F4F01960E9421248DE0D6
:103D8000E6EBF1E0D80101900D928A95E1F71E86ED
:103D90001F86188ABE016E5D7F4FC8010E949C2756
:103DA00066EE72E0C8010E949C274CE051E060EC96
:103DB00072E0C8010E941A0C8091C804843009F096
:103DC0007CC08091110181110AC082E18093380189
:103DD00085E08093840180E495E00E94FC11E090EE
:103DE000FA03F12C22E8E20EF11C23E0EE0CFF1C9A
:103DF0002A95E1F780916804E80EF11C34E0EE0C9E
:103E0000FF1C3A95E1F7612C712C41E1C42E41E091
:103E1000D42E31E020E5F60101900020E9F7CF0132
:103E2000825191408615970528F0F301E45FFE4F1B
:103E3000658101C060E023014E0C5F1C309390044B
:103E40002093B204109291041092B304852D952D05
:103E5000990F990B29AF38AF6EAB0E946618C2015B
:103E600099270E9466186EA989EC94E00E94BE0F03
:103E70000E94A31865E070E080E090E00E94EF10DF
:103E80008FEF681A780A29AD38AD90E16916710490
:103E900011F6609168046F5F60936804683068F49D
:103EA0008091FA030E94D50DBC0181E191E00E944E
:103EB000A7278CE091E00E949B0B809168048830DA
:103EC00008F4ABC38091C804853009F0A6C382E131
:103ED00099CC68E273E0C8010E94F80FBE016E5DE4
:103EE0007F4FC8010E94D109F82EC8010E94F30F2C
:103EF000FF2009F492C38AA181111ECF34CF109202
:103F0000680480E495E00E94FC116091680480914F
:103F1000FA030E94D50DBC0181E191E00E94A72720
:103F200010920D018CE091E00E949B0B81E16ACC24
:103F300081E08093380180930A011092FB031DC336
:103F400020910A01263109F48AC108F054C02330B7
:103F500009F4F1C008F046C0213009F461C02230F4
:103F600009F05BC360E080E029AF0E94DA178AE3C2
:103F700093E00E94D81761E080E00E94DA17109267
:103F8000F5038091FA0399E0F92EF89EC0011124FF
:103F9000875C9E4F0E94D817E091FA03FE9EF001C5
:103FA0001124E75CFE4FDF010D900020E9F78E2F12
:103FB0008A1B845F0E94B70B83E20E946B18E0901B
:103FC000FA031A821982F0E3EF9E7001112467014F
:103FD00080E7C80ED11C90EAE90EF11C612C712C0F
:103FE00029AD42C0253009F4EFC008F4CAC026301C
:103FF00009F40DC112C3293109F452C138F4273133
:1040000009F437C1283109F43EC107C3203209F44D
:1040100019C12D3309F4B6C22F3109F0FEC285C192
:104020008091F6039091F703A091F803B091F90302
:104030004297A105B1056CF41982A8016FE273E003
:1040400087E992E00E94C60B882309F4E6C282E069
:10405000DBC06091FA03E9E06E9FB0011124675C58
:104060007E4F1982A801ECCFC60129AF0E945E24C1
:104070008983C60101960E945E248A8389819A8180
:10408000680E791EE2E0CE0ED11C29ADCE14DF04FD
:1040900059F77F926F928BE493E09F938F931F93D6
:1040A0000F9329AF0E94AE27C8010E94D8178091B4
:1040B000C8040F900F900F900F900F900F9029ADA4
:1040C000813051F48091FA03811101C021E02093E5
:1040D000FA03822F0E94760B8091C804823061F42B
:1040E0008091FA0390E00197181619060CF080E011
:1040F0008093FA030E94760B8091C804853081F486
:1041000090918401943061F48093840180E495E07F
:104110000E94FC1183E080930A01E8E3F1E003C010
:104120000E94050A7AC2129221E0E732F207D9F71B
:104130001092220172C260E573E0C8010E94F80F7C
:10414000BE016E5D7F4FC8010E94D109F82EC801E3
:104150000E94F30FFF2009F460C280E495E00E9402
:10416000FC118AA1882359F086E180930A01E8E3D3
:10417000F1E0129281E0E732F807D9F7D9CF84E075
:1041800043C061E673E0C8010E94F80FBE016E5D96
:104190007F4FC8010E94D109F82EC8010E94F30F79
:1041A000FF2009F43AC280E495E00E94FC118AA144
:1041B000882341F08FE180930A018091FA030E94E5
:1041C000B8092BC285E020C060E773E0C8010E94F7
:1041D000F80FBE016E5D7F4FC8010E94D109F82E15
:1041E000C8010E94F30FFF2009F417C280E495E094
:1041F0000E94FC118AA1882331F081E0809338016C
:104200008093FB030AC286E080930A0106C267E737
:1042100073E0C8010E94F80FBE016E5D7F4FC801B8
:104220000E94D109F82EC8010E94F30FFF2009F463
:10423000F4C180E495E00E94FC118AA1882369F012
:104240008DE3E2CF1982A8016BE973E082EA93E083
:104250000E94C60B882309F4E0C181E0D5CF61E05C
:104260008091FA030E94350D882309F4D6C187E1B5
:10427000CBCF8091FA030E94CA0A882311F088E10B
:104280000AC083E0C1CF8091FA030E94F819882305
:1042900009F4C3C189E180930A0110926804BDC189
:1042A000F090FA0320916804822F90E04AE0BE016A
:1042B0006F5C7F4F01960E9421248DE0E6EBF1E0D8
:1042C000DE01929601900D928A95E1F718AA1FA639
:1042D000BE016F5C7F4FCE0182960E949C2766EEE6
:1042E00072E0CE0182960E949C2719821A821B825C
:1042F0001C828DE0F10111928A95E9F760916804C2
:104300008F2D0E94D50DBC01C8010E94A72748E649
:1043100054E0B801CE0182960E94C60B8111E3C120
:104320008981882309F4DFC178C1C0900101D09050
:104330000201E0900301F09004016091F603709196
:10434000F7038091F8039091F903A50194010E946D
:10435000FB242B013C01C701B601A50194010E9479
:10436000FB24461657066806790609F0DFC0F1E01F
:10437000CF1AD108E108F108C0920101D0920201E0
:10438000E0920301F092040160E080E00E94DA17FD
:1043900084E893E00E94D81761E080E00E94DA1779
:1043A00060910101709102018091030190910401DB
:1043B00020E831E541E050E00E94FB2457FF26C091
:1043C0008DE229AF38AF4EAB5FAB0E946B1829ADC1
:1043D00038AD4EA95FA950954095309521953F4F36
:1043E0004F4F5F4F19A2CE0181967C01CA01B901DE
:1043F000A50194010E94D924605DF70162937F01B9
:10440000211531054105510589F713C019A2CE01C7
:1044100081967C01CA01B901A50194010E94D924A9
:10442000605DF70162937F0121153105410551055A
:1044300089F7C7010E94C61783E993E00E94D81745
:10444000609101017091020180910301909104013A
:1044500020E13EE040E050E00E94FB24CA01B901A7
:1044600028E130E040E050E00E94FB249F938F93CE
:104470007F936F9386E9E82E83E0F82EFF92EF9208
:104480001F930F930E94AE27C8010E94D81786EE93
:1044900092E00E94D8176091010170910201809111
:1044A0000301909104012CE330E040E050E00E94D1
:1044B000FB24CA01B9012CE330E040E050E00E9447
:1044C000FB249F938F937F936F93FF92EF921F93A1
:1044D0000F930E94AE27C8010E94D81786EE92E083
:1044E0000E94D8176091010170910201809103012F
:1044F000909104012CE330E040E050E00E94FB2466
:104500009F938F937F936F93FF92EF921F930F93DD
:104510000E94AE27C8010E94D8178FEB92E00E943C
:10452000D8170FB6F894DEBF0FBECDBF8091010142
:1045300090910201A0910301B0910401181619068F
:104540001A061B065CF080E280930A0186E091E087
:104550000E9476188091FA030E944D0E8091C80443
:10456000853009F05AC090918401933009F055C00C
:104570008093840181E080930A0180E495E00E94A9
:10458000FC114BC01092F50360E080E00E94DA1746
:1045900083EB93E00E94D81761E080E00E94DA1775
:1045A00084EC93E00E94D8178091C804813069F4AC
:1045B0008091050190E00196863991050CF086E91D
:1045C0008093050190E00E949E198091C80482307A
:1045D00069F48091050190E00197181619060CF016
:1045E00080E08093050190E00E949E198091C804AC
:1045F000853099F490918401943079F4809384010A
:1046000080E495E00E94FC1181E080930A016091B2
:10461000050181E090E00E9466240E94EF172FB709
:10462000F8946091F1037091F2038091F3039091FB
:10463000F4032FBFC090F603D090F703E090F80387
:10464000F090F90324E630E040E050E00E94D924E5
:10465000CA01B90124E630E040E050E00E94D924CC
:104660002B013C01C701B60124E630E040E050E0F8
:104670000E94FB24461657066806790661F1C701B9
:10468000B6016F5F7F4F8F4F9F4F6093F60370931C
:10469000F7038093F8039093F9032091F503F090CA
:1046A0005005222379F025E030E040E050E00E9400
:1046B000FB2420FD07C08F2D8260809350056F2D55
:1046C0006A6005C06F2D6D7F60935005686080E45F
:1046D00095E00E94F91180E090E0892B09F463C80D
:1046E0000E94000055C885E08093840180E495E035
:1046F0000E94FC11B2CD85ED94E00E94820988E50C
:1047000095E00E94A409F894A89584B7877F84BF98
:10471000E0E6F0E08081886180831082789460E434
:1047200070E08DE096E00E94E80860E470E08DE4BF
:1047300096E00C94E808E9ECF4E01382128288EE2B
:1047400093E0A0E0B0E084839583A683B7838BEDEC
:1047500091E09183808310928E0610928D06EFE88F
:10476000F6E01082818180788068818310929106C2
:1047700010929206109293061092940680E89EEE94
:10478000A6E3B0E08093950690939606A0939706D3
:10479000B09398061092A1061092A206E0E4F5E00C
:1047A0001382128289E592E09183808388E084837A
:1047B0008FEF858389E0868384E0878385E0808727
:1047C00086E0818787E082871386148615861686A1
:1047D000178661E0CF010E940019E8E5F5E085E465
:1047E00092E0918380838AE082838DE595E09483D3
:1047F000838385E092E09093D6048093D50485ED81
:1048000094E00C942702FC0188279927E8942191D1
:104810002032E9F3293010F02E30C8F32B3241F06A
:104820002D3239F4689404C00E942C24820F911D0B
:10483000219120532A30C0F31EF4909581959F4F0B
:104840000895BB274A3031F4992322F4BDE29095B4
:1048500081959F4F0C9435247AE0979F902D879FE8
:10486000802D910D11240895BB27FB015527AA2700
:10487000880F991FAA1FA41710F0A41B83955051ED
:10488000B9F7A05DAA3308F0A95DA193009779F765
:10489000B111B1931192CB010C944E24DC01FC01B7
:1048A000672F71917723E1F7329704C07C916D9364
:1048B00070836291AE17BF07C8F30895F999FECFD0
:1048C00092BD81BDF89A992780B50895262FF99950
:1048D000FECF1FBA92BD81BD20BD0FB6F894FA9AE3
:1048E000F99A0FBE019608950E94B624A59F900DD7
:1048F000B49F900DA49F800D911D112408952F92B7
:104900003F924F925F926F927F928F929F92AF925F
:10491000BF92CF92DF92EF92FF920F931F93CF93AC
:10492000DF93CDB7DEB7CA1BDB0B0FB6F894DEBF43
:104930000FBECDBF09942A88398848885F846E8469
:104940007D848C849B84AA84B984C884DF80EE80B3
:10495000FD800C811B81AA81B981CE0FD11D0FB6BC
:10496000F894DEBF0FBECDBFED010895A29FB00148
:10497000B39FC001A39F700D811D1124911DB29F93
:10498000700D811D1124911D089597FB072E16F4BB
:10499000009407D077FD09D00E946F2507FC05D051
:1049A0003EF4909581959F4F0895709561957F4F46
:1049B0000895A1E21A2EAA1BBB1BFD010DC0AA1F60
:1049C000BB1FEE1FFF1FA217B307E407F50720F078
:1049D000A21BB30BE40BF50B661F771F881F991FF3
:1049E0001A9469F760957095809590959B01AC013C
:1049F000BD01CF010895052E97FB1EF400940E947F
:104A0000122557FD07D00E94D92407FC03D04EF48D
:104A10000C94122550954095309521953F4F4F4F5E
:104A20005F4F089590958095709561957F4F8F4F5A
:104A30009F4F0895EE0FFF1F0590F491E02D09940C
:104A40006927962769277827872778270895B7FF4A
:104A50000C9474240E947424821B930B08950F936A
:104A6000083090F0982F872F762F652F542F432FE3
:104A7000322F22270850F4CF220F331F441F551F17
:104A8000661F771F881F991F0A95B2F70F91089527
:104A900097FB10F8169400080F93083098F0085010
:104AA000232F342F452F562F672F782F892F902DA6
:104AB000F4CF059497958795779567955795479582
:104AC000379527950A95AAF70F9108952A0D3B1D52
:104AD0004C1D5D1D6E1D7F1D801F911F0895AA1B1B
:104AE000BB1B51E107C0AA1FBB1FA617B70710F0D9
:104AF000A61BB70B881F991F5A95A9F7809590950B
:104B0000BC01CD010895CF93DF938230910510F45D
:104B100082E090E0E091A506F091A60620E030E06A
:104B2000C0E0D0E0309711F140815181481759071A
:104B3000C0F04817590761F482819381209719F0DA
:104B40009B838A832BC09093A6068093A50626C0DC
:104B50002115310519F04217530718F49A01BE01C7
:104B6000DF01EF010280F381E02DDCCF211531055B
:104B700009F1281B390B2430310590F412968D91E0
:104B80009C9113976115710521F0FB01938382833A
:104B900004C09093A6068093A506FD01329644C0FA
:104BA000FD01E20FF31F81939193225031092D9360
:104BB0003C933AC02091A3063091A406232B41F4E4
:104BC00020918701309188013093A4062093A30699
:104BD00020918501309186012115310541F42DB7D1
:104BE0003EB74091890150918A01241B350BE09119
:104BF000A306F091A406E217F307A0F42E1B3F0BC7
:104C00002817390778F0AC014E5F5F4F241735073E
:104C100048F04E0F5F1F5093A4064093A306819364
:104C2000919302C0E0E0F0E0CF01DF91CF910895D1
:104C30000F931F93CF93DF93009709F48CC0FC016F
:104C40003297138212820091A5061091A6060115D3
:104C5000110581F420813181820F931F2091A306D9
:104C60003091A4062817390779F5F093A406E0934C
:104C7000A30671C0D80140E050E0AE17BF0750F462
:104C800012962D913C911397AD012115310509F133
:104C9000D901F3CF9D01DA013383228360817181D1
:104CA000860F971F8217930769F4EC0128813981D9
:104CB000260F371F2E5F3F4F318320838A819B81D0
:104CC00093838283452B29F4F093A606E093A506EF
:104CD00042C01396FC93EE931297ED0149915991BE
:104CE0009E01240F351FE217F30771F48081918133
:104CF000840F951F029611969C938E9382819381C7
:104D000013969C938E931297E0E0F0E0D8011296F0
:104D10008D919C911397009719F0F8018C01F6CFB3
:104D20008D919C9198012E5F3F4F820F931F209190
:104D3000A3063091A4062817390769F4309729F49F
:104D40001092A6061092A50602C01382128210933A
:104D5000A4060093A306DF91CF911F910F910895B0
:104D6000A0E0B0E0E6EBF6E20C948324EC010097BF
:104D700021F4CB010E948325B8C0FC01E60FF71F88
:104D80009C0122503109E217F30708F4ACC0D901A5
:104D90000D911C91119706171707B0F005301105FA
:104DA00008F49FC0C80104978617970708F499C0B4
:104DB00002501109061B170B019311936D937C93FD
:104DC000CF010E9418268DC05B01A01AB10A4C01C8
:104DD000800E911EA091A506B091A60640E050E07D
:104DE000E12CF12C109709F44AC0A815B905D1F5AA
:104DF0006D907C901197630182E0C80ED11CCA149B
:104E0000DB0480F1A3014A195B096A0182E0C80E44
:104E1000D11C1296BC9012971396AC91B5E0CB16AC
:104E2000D10440F0B282A38351834083D9016D93B2
:104E30007C930AC00E5F1F4FC301800F911FF901C1
:104E400091838083EB2DFA2FE114F10431F0D70127
:104E50001396FC93EE93129744C0F093A606E0934A
:104E6000A5063FC08D919C9111974817590708F4EA
:104E7000AC017D0112960D90BC91A02DB3CF809115
:104E8000A3069091A40688159905E1F446175707E3
:104E9000C8F48091850190918601009741F48DB707
:104EA0009EB74091890150918A01841B950BE817A8
:104EB000F907C8F4F093A406E093A306F9017183FF
:104EC00060830FC0CB010E9483257C01009759F0BD
:104ED000A801BE010E948C27CE010E941826C7019E
:104EE00004C0CE0102C080E090E0CDB7DEB7EEE0B6
:104EF0000C949F2481E090E0F8940C944F2AFB01DD
:104F0000DC0104C08D910190801921F44150504082
:104F1000C8F7881B990B0895FB01DC0102C00190C2
:104F20000D9241505040D8F70895DC0101C06D93B7
:104F300041505040E0F70895FB01DC010D90002046
:104F4000E9F7119701900D920020E1F70895FB0118
:104F5000DC0101900D920020E1F70895AEE0B0E091
:104F6000E4EBF7E20C948D240D891E8986E08C8396
:104F70001A8309838FEF9FE79E838D83AE01475E7F
:104F80005F4F6F89788DCE0101960E94D1272F81C6
:104F90003885F801E20FF31F10822E96E4E00C949E
:104FA000A924ACE0B0E0E7EDF7E20C947F247C01AB
:104FB0006B018A01FC0117821682838181FFBDC1CA
:104FC000CE0101964C01F7019381F60193FD859185
:104FD00093FF81916F01882309F4ABC1853239F4C5
:104FE00093FD859193FF81916F01853229F4B7017B
:104FF00090E00E94B929E7CF512C312C20E02032DB
:10500000A0F48B3269F030F4803259F0833269F4C5
:1050100020612CC08D3239F0803339F4216026C0F4
:105020002260246023C0286021C027FD27C030ED06
:10503000380F3A3078F426FF06C0FAE05F9E300D54
:105040001124532E13C08AE0389E300D1124332EC4
:1050500020620CC08E3221F426FD6BC1206406C094
:105060008C3611F4206802C0883641F4F60193FDB5
:10507000859193FF81916F018111C1CF982F9F7D01
:105080009554933028F40C5F1F4FFFE3F9830DC054
:10509000833631F0833771F0833509F05BC022C06D
:1050A000F801808189830E5F1F4F44244394512C63
:1050B000540115C03801F2E06F0E711CF801A08098
:1050C000B18026FF03C0652D70E002C06FEF7FEF57
:1050D000C5012C870E94AE292C0183012C852F77D6
:1050E000222E17C03801F2E06F0E711CF801A0806B
:1050F000B18026FF03C0652D70E002C06FEF7FEF27
:10510000C5012C870E94A3292C012C852068222E02
:10511000830123FC1BC0832D90E048165906B0F490
:10512000B70180E290E00E94B9293A94F4CFF501EA
:1051300027FC859127FE81915F01B70190E00E94D5
:10514000B92931103A94F1E04F1A51084114510431
:1051500071F7E5C0843611F0893639F5F80127FF7B
:1051600007C060817181828193810C5F1F4F08C0ED
:1051700060817181072E000C880B990B0E5F1F4F09
:105180002F76722E97FF09C0909580957095619546
:105190007F4F8F4F9F4F2068722E2AE030E0A4018E
:1051A0000E94F129A82EA81844C0853729F42F7E23
:1051B000B22E2AE030E025C0F22FF97FBF2E8F36C5
:1051C000C1F018F4883579F0B4C0803719F0883709
:1051D00021F0AFC02F2F2061B22EB4FE0DC08B2D59
:1051E0008460B82E09C024FF0AC09F2F9660B92E94
:1051F00006C028E030E005C020E130E002C020E138
:1052000032E0F801B7FE07C060817181828193812D
:105210000C5F1F4F06C06081718180E090E00E5FDF
:105220001F4FA4010E94F129A82EA818FB2DFF777B
:105230007F2E76FE0BC0372D3E7FA51450F474FEF2
:105240000AC072FC08C0372D3E7E05C0BA2C372D2F
:1052500003C0BA2C01C0B52C34FF0DC0FE01EA0D0D
:10526000F11D8081803311F4397E09C032FF06C000
:10527000B394B39404C0832F867809F0B39433FDBC
:1052800013C030FF06C05A2CB31418F4530C5B182B
:10529000B32CB31468F4B70180E290E03C870E941D
:1052A000B929B3943C85F5CFB31410F43B1801C071
:1052B000312C34FF12C0B70180E390E03C870E949C
:1052C000B9293C8532FF17C031FD03C088E790E063
:1052D00002C088E590E0B7010CC0832F867859F0B2
:1052E00031FF02C08BE201C080E237FD8DE2B701E1
:1052F00090E00E94B929A51438F4B70180E390E04A
:105300000E94B9295A94F7CFAA94F401EA0DF11D2D
:105310008081B70190E00E94B929A110F5CF332018
:1053200009F451CEB70180E290E00E94B9293A9485
:10533000F6CFF7018681978102C08FEF9FEF2C9601
:10534000E2E10C949B24FC01059061507040011037
:10535000D8F7809590958E0F9F1F0895FC0161509E
:10536000704001900110D8F7809590958E0F9F1F87
:1053700008950F931F93CF93DF93FB01238121FDAA
:1053800003C08FEF9FEF28C022FF16C046815781D0
:10539000248135814217530744F4A081B1819D01D6
:1053A0002F5F3F4F318320838C93268137812F5F7E
:1053B0003F4F3783268310C0EB01092F182F00843D
:1053C000F185E02D0995892BE1F68E819F8101966B
:1053D0009F838E83812F902FDF91CF911F910F910B
:1053E0000895FA01AA27283051F1203181F1E8947B
:1053F0006F936E7F6E5F7F4F8F4F9F4FAF4FB1E0C8
:105400003ED0B4E03CD0670F781F891F9A1FA11DC2
:10541000680F791F8A1F911DA11D6A0F711D811DC3
:10542000911DA11D20D009F468943F912AE0269F88
:1054300011243019305D3193DEF6CF010895462FE7
:105440004770405D4193B3E00FD0C9F7F6CF462FC8
:105450004F70405D4A3318F0495D31FD4052419331
:1054600002D0A9F7EACFB4E0A695979587957795EE
:105470006795BA95C9F700976105710508959B0175
:10548000AC010A2E06945795479537952795BA95FE
:10549000C9F7620F731F841F951FA01D089511E0A7
:1054A000CCEFD1E004C0FE010E941A252196CD3F29
:0854B000D107C9F7F894FFCF02
:1054B8000100A776003731323300010900000100EE
:1054C80000000000000000000000000000000000D4
:1054D80000000000010101000000000000000000C1
:1054E800000000000000000001414C50484100004D
:1054F800000042455441000000000047414D4D4125
:1055080000000000FFFFFFFFFFFFFFFFFFFFFFFF9F
:10551800FFFFFFFFFFFFFFFFFFFFFFFFFFFFFFFF93
:10552800FFFFFFFFFFFFFFFFFFFFFFFFFFFFFFFF83
:10553800FFFFFFFF050000A7068000001B362D6C4B
:10554800775A414E616D652000000044656C6179B1
:1055580020666F72200000000000000000576F7284
:105568006420000000004465736372697074696F99
:105578006E2000000000576F72647320666F7220FF
:105588000000000000000000000000BE0F8E0FEEBB
:105598000F620F860F720F630F00000000000000FB
:1055A80000F10FF10FF10FF10FF10FF10FF10FF102
:1055B8000F0000000082098C097A0277022702CFC7
:1055C80005FA0671093F08F2080000000000000013
:1055D80000F10FF10FF10FF10FF10FF10F000000C3
:1055E8000000000000C905F10FF10F4405370496CB
:1055F8000900000000A409AE09C905CC053D064410
:10560800053704960900000000F311B70EEE0FED00
:105618000F53656C6563743D4E6F2055703D596539
:10562800730050494E20666F7220006973204F4BFB
:105638000069732057524F4E4700466F726D617470
:10564800696E672E2E2E00536565642073746F7221
:105658006520302E372E320053656C6620746573D2
:10566800742000554E4C4F434B004641494C212075
:10567800004368616E67652050494E3F005361766C
:10568800653F005361766564004368616E67652015
:105698006E616D653F003A0053657474696E67000A
:1056A8004368616E67652064656C61793F00436893
:1056B800616E676520776F7264733F00536176652A
:1056C80020776F7264733F004368616E676520647A
:1056D800657363722E203F0045786974203F004A45
:1056E8006F652054696E6B65720053656C656374F1
:1056F8002073656564206E616D650025303478001F
:1057080053686F7720424950333920736565643F89
:1057180000466F72676F7474656E2050494E3F0083
:1057280053657475703F004C434420636F6E747208
:105738006F6C3F0044656C617965642061636365E3
:105748007373004420002530326400746F203132B6
:10575800330050494E20686173206265656E20737E
:10576800657400536574204C434420636F6E7472F3
:0E577800617374005570202F20446F776E000F
:107E0000112484B714BE81FFF0D085E080938100F7
:107E100082E08093C00088E18093C10086E0809377
:107E2000C20080E18093C4008EE0C9D0259A86E02C
:107E300020E33CEF91E0309385002093840096BBD3
:107E4000B09BFECF1D9AA8958150A9F7CC24DD24C4
:107E500088248394B5E0AB2EA1E19A2EF3E0BF2EE7
:107E6000A2D0813461F49FD0082FAFD0023811F036
:107E7000013811F484E001C083E08DD089C08234E0
:107E800011F484E103C0853419F485E0A6D080C0E4
:107E9000853579F488D0E82EFF2485D0082F10E0AE
:107EA000102F00270E291F29000F111F8ED06801E7
:107EB0006FC0863521F484E090D080E0DECF843638
:107EC00009F040C070D06FD0082F6DD080E0C81688
:107ED00080E7D80618F4F601B7BEE895C0E0D1E017
:107EE00062D089930C17E1F7F0E0CF16F0E7DF06D8
:107EF00018F0F601B7BEE89568D007B600FCFDCFD4
:107F0000A601A0E0B1E02C9130E011968C91119780
:107F100090E0982F8827822B932B1296FA010C0160
:107F200087BEE89511244E5F5F4FF1E0A038BF0790
:107F300051F7F601A7BEE89507B600FCFDCF97BE46
:107F4000E89526C08437B1F42ED02DD0F82E2BD052
:107F50003CD0F601EF2C8F010F5F1F4F84911BD097
:107F6000EA94F801C1F70894C11CD11CFA94CF0C13
:107F7000D11C0EC0853739F428D08EE10CD085E9AC
:107F80000AD08FE07ACF813511F488E018D01DD067
:107F900080E101D065CF982F8091C00085FFFCCF94
:107FA0009093C60008958091C00087FFFCCF809118
:107FB000C00084FD01C0A8958091C6000895E0E648
:107FC000F0E098E1908380830895EDDF803219F02E
:107FD00088E0F5DFFFCF84E1DECF1F93182FE3DFCA
:107FE0001150E9F7F2DF1F91089580E0E8DFEE27F6
:047FF000FF270994CA
:027FFE00040479
:0400000300007E007B
:00000001FF
