:100000000C94AD020C94D5020C94D5020C94D5023C
:100010000C94D5020C94D5020C947C080C94D50257
:100020000C94D5020C94D5020C94D5020C94D502F4
:100030000C94D5020C94D5020C94D5020C94D502E4
:100040000C9486110C94D5020C94D5020C94D50214
:100050000C94D5020C94D5020C94D5020C94D502C4
:100060000C9445120C94D502B41CC11CCD1CDD1C93
:10007000191DEE1C2A1D791D501DB91DE11D431EC1
:100080007C1EB41E541E331F551F441FE51FFE1F48
:1000900013202C206520554E4C4F434B0053656C6C
:1000A000662074657374200044656C617965642012
:1000B00061636365737300000000080002010000C3
:1000C0000304070000000000000000457261736532
:1000D00020732E206261636B75703F005265636F01
:1000E0007665727920736565643F004261636B7564
:1000F0007020697320666F756E6421005570202F23
:1001000020446F776E00536574204C434420636F26
:100110006E74726173740050494E2068617320627E
:1001200065656E207365740053657475703F004695
:100130006F72676F7474656E2050494E3F0053684C
:100140006F7720424950333920736565643F004A18
:100150006F652054696E6B6572005365656420732A
:10016000746F726520302E372E330041726520790E
:100170006F7520737572653F00666F7220757067CA
:1001800072616465206F6E6C790054656D70726F7A
:100190007261727920756E736563004261636B757D
:1001A0007020736565643F00457869743F0043685B
:1001B000616E67652064657363722E203F0043683B
:1001C000616E676520776F7264733F004368616E8C
:1001D00067652064656C61793F004368616E67659F
:1001E000206E616D653F004368616E676520504910
:1001F0004E3F0053656C6563743D4E6F2055703DF6
:10020000596573000001020408102040801B36630A
:100210007C777BF26B6FC53001672BFED7AB76CA5C
:1002200082C97DFA5947F0ADD4A2AF9CA472C0B781
:10023000FD9326363FF7CC34A5E5F171D83115048E
:10024000C723C31896059A071280E2EB27B27509F7
:10025000832C1A1B6E5AA0523BD6B329E32F84532A
:10026000D100ED20FCB15B6ACBBE394A4C58CFD0EF
:10027000EFAAFB434D338545F9027F503C9FA851BF
:10028000A3408F929D38F5BCB6DA2110FFF3D2CD92
:100290000C13EC5F974417C4A77E3D645D1973602F
:1002A000814FDC222A908846EEB814DE5E0BDBE03C
:1002B000323A0A4906245CC2D3AC629195E479E7EC
:1002C000C8376D8DD54EA96C56F4EA657AAE08BA7A
:1002D00078252E1CA6B4C6E8DD741F4BBD8B8A7032
:1002E0003EB5664803F60E613557B986C11D9EE1DD
:1002F000F8981169D98E949B1E87E9CE5528DF8C1A
:10030000A1890DBFE6426841992D0FB054BB16522A
:10031000096AD53036A538BF40A39E81F3D7FB7C50
:10032000E339829B2FFF87348E4344C4DEE9CB54EC
:100330007B9432A6C2233DEE4C950B42FAC34E0885
:100340002EA16628D924B2765BA2496D8BD1257285
:10035000F8F66486689816D4A45CCC5D65B6926C99
:10036000704850FDEDB9DA5E154657A78D9D849013
:10037000D8AB008CBCD30AF7E45805B8B34506D017
:100380002C1E8FCA3F0F02C1AFBD0301138A6B3A07
:100390009111414F67DCEA97F2CFCEF0B4E6739645
:1003A000AC7422E7AD3585E2F937E81C75DF6E479E
:1003B000F11A711D29C5896FB7620EAA18BE1BFC00
:1003C000563E4BC6D279209ADBC0FE78CD5AF41F38
:1003D000DDA8338807C731B11210592780EC5F6060
:1003E000517FA919B54A0D2DE57A9F93C99CEFA0BD
:1003F000E03B4DAE2AF5B0C8EBBB3C835399611787
:100400002B047EBA77D626E169146355210C7D98BA
:100410002F8A4291443771CFFBC0B5A5DBB5E95BAC
:10042000C25639F111F159A4823F92D55E1CAB98A6
:10043000AA07D8015B8312BE853124C37D0C557495
:100440005DBE72FEB1DE80A706DC9B74F19BC1C16C
:10045000699BE48647BEEFC69DC10FCCA10C246FFB
:100460002CE92DAA84744ADCA9B05CDA88F97652AA
:10047000513E986DC631A8C82703B0C77F59BFF356
:100480000BE0C64791A7D55163CA06672929148591
:100490000AB72738211B2EFC6D2C4D130D385354F1
:1004A000730A65BB0A6A762EC9C281852C7292A135
:1004B000E8BFA24B661AA8708B4BC2A3516CC71938
:1004C000E892D1240699D685350EF470A06A1016EC
:1004D000C1A419086C371E4C774827B5BCB034B39B
:1004E0000C1C394AAAD84E4FCA9C5BF36F2E68EE9B
:1004F000828F746F63A5781478C8840802C78CFA59
:10050000FFBE90EB6C50A4F7A3F9BEF27871C60061
:10051000000000240027002A000000000025002819
:10052000002B000000000023002600290004040422
:10053000040404040402020202020203030303038C
:100540000301020408102040800102040810200169
:100550000204081020002925092511241FBECFEF11
:10056000D8E0DEBFCDBF12E0A0E0B1E0E0E7F6E505
:1005700002C005900D92A43DB107D9F725E0A4ED86
:10058000B2E001C01D92AA3CB207E1F712E0CCEA4A
:10059000D2E004C02197FE010E949126CB3AD107F8
:1005A000C9F70E94531B0C942B2B0C940000FC01E8
:1005B00087E696EEA9E0BAE682839383A483B583A7
:1005C00085E89EEAA7E6BBEB86839783A087B18781
:1005D00082E793EFAEE6BCE382879387A487B58773
:1005E0008AE395EFAFE4B5EA86879787A08BB18B56
:1005F0008FE792E5AEE0B1E5828B938BA48BB58B50
:100600008CE898E6A5E0BBE9868B978BA08FB18F2D
:100610008BEA99EDA3E8BFE1828F938FA48FB58F0A
:1006200089E19DECA0EEBBE5868F978FA0A3B1A3D7
:10063000DF01A659BF4F1C92EE59FF4F1082118265
:10064000128213821482158216821782089580E422
:1006500090E0089580E290E008952F923F924F92AB
:100660005F926F927F928F929F92AF92BF92CF9242
:10067000DF92EF92FF920F931F93CF93DF9300D0FF
:10068000CDB7DEB78C01FB0140818181928153811E
:10069000642E712C9301220F331F7BE1272E239EA2
:1006A000302C11243226A82FB0E09D01220F331FD9
:1006B000239EB02C1124B226492E512C9201220FD8
:1006C000331F239E902C11249226652F70E09B01EE
:1006D000220F331F239E202C112422269301220F48
:1006E000331F220F331F3A8329836D01CC0CDD1C8D
:1006F000CC0CDD1CED2CFF24F701E254FE4F808072
:100700008C246201CC0CDD1CCC0CDD1CED2CFF24F8
:10071000970122543E4FF901A080AC246B01CC0C10
:10072000DD1CCC0CDD1CED2CFF24970122543E4F28
:10073000F901D080DC247301E3E0EE0CFF1CEA95A4
:10074000E1F72F2D332722543E4FF9012081E22675
:100750003D01A3E0660C771CAA95E1F7A72DBB2706
:10076000A254BE4FAC91A62523E0440C551C2A95FB
:10077000E1F7E52DFF27E254FE4FE0814E26E3E04E
:10078000660F771FEA95E1F7E72FFF27E254FE4F48
:10079000E0816E2729813A81632E7724F301E254A8
:1007A000FE4F3081298123272E25392F38273527E1
:1007B0003A253A273425362733253B253227F801B9
:1007C0003083392F3427352738253D253E253A27D4
:1007D00034253627B326B924B18248275427A526C5
:1007E000AA26A424A6269A24922429252283942783
:1007F000C92EC824CD24EC24AE254A2664256325C1
:10080000262F222523830F900F90DF91CF911F91E8
:100810000F91FF90EF90DF90CF90BF90AF909F909F
:100820008F907F906F905F904F903F902F900895A2
:100830000F931F93CF93DF93FC01DB011C91119663
:100840000C91119712967C9112971396BC91812F5F
:1008500090E0880F991FCBE1C99F602D1124682774
:10086000402F50E0440F551FC59F802D112448276D
:10087000272F30E0220F331FC39F802D11242827FC
:100880008B2F90E0880F991FC99FC02D11248C27B2
:10089000972F90279B27962794279083972F912710
:1008A0009B27492742274183A12FA027BA272B271F
:1008B000282722837A27762787278383DF91CF9182
:1008C0001F910F910895CF93DF93DC01EB01E88135
:1008D000F0E0E15FFC4FE491EC93ED85F0E0E15F47
:1008E000FC4FE4911196EC931197EA85F0E0E15FFB
:1008F000FC4FE4911296EC931297EF81F0E0E15FE8
:10090000FC4FE4911396EC931397EC81F0E0E15FD8
:10091000FC4FE4911496EC931497E981F0E0E15FC9
:10092000FC4FE4911596EC931597EE85F0E0E15FAE
:10093000FC4FE4911696EC931697EB85F0E0E15F9F
:10094000FC4FE4911796EC931797E885F0E0E15F90
:10095000FC4FE4911896EC931897ED81F0E0E15F7D
:10096000FC4FE4911996EC931997EA81F0E0E15F6E
:10097000FC4FE4911A96EC931A97EF85F0E0E15F53
:10098000FC4FE4911B96EC931B97EC85F0E0E15F44
:10099000FC4FE4911C96EC931C97E985F0E0E15F35
:1009A000FC4FE4911D96EC931D97EE81F0E0E15F22
:1009B000FC4FE4911E96EC931E97EB81F0E0E15F13
:1009C000FC4FE4911F96EC93DF91CF9108958F92A5
:1009D0009F92AF92BF92CF92DF92EF92FF920F93CE
:1009E0001F93CF93DF93CDB7DEB7A0970FB6F894E0
:1009F000DEBF0FBECDBF4C015B01FC018281E380F5
:100A0000F480F0E18F9FE00CF11C1124BA019701F2
:100A10006E0181E1C80ED11CD60190E19C0DFB0155
:100A20008191BF01F90141919F0184278D939A1310
:100A3000F6CFB6018E010F5F1F4FC8010E946304FD
:100A4000F401928080E1882E800ED7015097F1E06A
:100A5000F91538F57D01F8018D91908189278193F1
:100A60008E12FACFB801C6010E942D03BE016B5F42
:100A70007F4FCE0145960E942D03BE01675F7F4FD9
:100A8000CE0149960E942D03BE01635F7F4FCE01C8
:100A90004D960E942D03B601C8010E9463049A94EA
:100AA000D4CFC501F80121918F013D912327FC018D
:100AB0002193CF01AE15BF05A9F7A0960FB6F89404
:100AC000DEBF0FBECDBFDF91CF911F910F91FF9081
:100AD000EF90DF90CF90BF90AF909F908F90089550
:100AE000CF93DF93DC01EB01E881F0E0E15FFD4FA4
:100AF000E491EC93ED81F0E0E15FFD4FE49111961C
:100B0000EC931197EA85F0E0E15FFD4FE4911296D6
:100B1000EC931297EF85F0E0E15FFD4FE4911396BF
:100B2000EC931397EC81F0E0E15FFD4FE4911496B4
:100B3000EC931497E985F0E0E15FFD4FE4911596A1
:100B4000EC931597EE85F0E0E15FFD4FE49116968A
:100B5000EC931697EB81F0E0E15FFD4FE49117967F
:100B6000EC931797E885F0E0E15FFD4FE49118966C
:100B7000EC931897ED85F0E0E15FFD4FE491199655
:100B8000EC931997EA81F0E0E15FFD4FE4911A964A
:100B9000EC931A97EF81F0E0E15FFD4FE4911B9633
:100BA000EC931B97EC85F0E0E15FFD4FE4911C9620
:100BB000EC931C97E981F0E0E15FFD4FE4911D9615
:100BC000EC931D97EE81F0E0E15FFD4FE4911E96FE
:100BD000EC931E97EB85F0E0E15FFD4FE4911F96EB
:100BE000EC93DF91CF910895AF92BF92CF92DF92B5
:100BF000EF92FF920F931F93CF93DF93CDB7DEB7A2
:100C0000A0970FB6F894DEBF0FBECDBF9C01B62EE5
:100C1000C72EDC0113960D911C911497BA01A801FF
:100C20007E01B1E1EB0EF11CD70180E1A82EAE0CE4
:100C3000FB019191BF01FA018191AF0198279D932A
:100C4000AA12F6CF005F1F4FD9011296DC90B1E0D7
:100C5000B701CE010196BD1548F50E947005BE0191
:100C60006F5F7F4FC7010E941804BE016B5F7F4F0B
:100C7000CE0145960E941804BE01675F7F4FCE01EA
:100C800049960E941804BE01635F7F4FCE014D96C6
:100C90000E941804D801F7018D91908189278193D2
:100CA000AE12FACF005F1F4FDA94D1CF0E947005C9
:100CB0008B2D9C2DFE01319630E13E0F2191D80104
:100CC0004D918D012427DC012D93CD013E13F6CFEC
:100CD000A0960FB6F894DEBF0FBECDBFDF91CF91C7
:100CE0001F910F91FF90EF90DF90CF90BF90AF904A
:100CF000089580E190E0089580E190E008952F92BA
:100D00003F925F926F927F928F929F92AF92BF922B
:100D1000CF92DF92EF92FF920F931F93CF93DF93C7
:100D20004031510509F095C09C012B5F3F4F40E1D8
:100D3000FB01D90101900D924A95E1F7AC014A5EA1
:100D40005F4FDC015796EC0168964C0165EA860E10
:100D5000911C5524539484E0782ECE0106971C01F3
:100D60000196FE0134975F01BE01675071096B0166
:100D700031967F018E01025111096A507109F4E028
:100D80007F123FC0F1017080E72DF0E0E15FFD4F81
:100D90006490E52DF0E0EC5FFD4F7490FC018081E4
:100DA000E82FF0E0E15FFD4F8491FA018083F501C7
:100DB0008081E82FF0E0E15FFD4FE491EC93F601D4
:100DC0008081E82FF0E0E15FFD4FE491E883762435
:100DD000F90180817826F7017082FA019081F8018B
:100DE00080818927FA0180839C91FB01808189277A
:100DF0008C93988131968081892788835394712CB4
:100E00001BC0F601C080F901D080DC24F701D0823C
:100E1000F8011081F10100811027FA011083FB0114
:100E20006081FC01808186278C93FE017097908100
:100E3000F5018081892788832C5F3F4F73944C5F35
:100E40005F4F149624962815390509F086CF81E066
:100E500001C080E0DF91CF911F910F91FF90EF9043
:100E6000DF90CF90BF90AF909F908F907F906F90CA
:100E70005F903F902F9008956F927F928F929F92F4
:100E8000AF92BF92CF92DF92EF92FF920F931F9398
:100E9000CF93DF934C013B01EA019A0140E050E01F
:100EA00060E070E080E090E003E00E949E26F401A4
:100EB000EE59FF4FA080B180C280D380E480F580DE
:100EC000068117810E94D526208331834283538374
:100ED0006483758386839783840106591F4F80E45A
:100EE000A82E740122E2E20EF11C209721F1F801F4
:100EF0008081BA2CB81A2B2D30E0C217D30708F422
:100F0000BC2ECB2CD12CA601B3019701280F311D8B
:100F1000C9010E943128F80180818B0D8083CC1992
:100F2000DD096C0C7D1C803401F7C4010E94731331
:100F3000F8011082DACFDF91CF911F910F91FF90CE
:100F4000EF90DF90CF90BF90AF909F908F907F9069
:100F50006F9008954F925F926F927F928F929F92BF
:100F6000AF92BF92CF92DF92EF92FF920F931F93B7
:100F7000CF93DF93EC016B01942EA52E7C0182E2CE
:100F8000E80EF11CFE01E659FF4F2081822F90E010
:100F90008E010E591F4FD701A80FB91F283308F033
:100FA0006BC020E82C93808190E047E350E0481B21
:100FB000590B019660E070E08E0D9F1D0E943A284B
:100FC000D8018C901196BC9011971296FC911297B3
:100FD0001396EC91139714966C91149715967C9137
:100FE0001597282D3B2D4F2F5E2F16968C91169717
:100FF00017969C9100E20E94B926C901DA01AE0160
:10100000465A5F4F782E6624552444240B2F11270F
:10101000222733270429152926293729492E5A2E14
:101020006B2E772444246624772404291529262945
:101030003729BA2FA92F982F882788279927BB27C8
:10104000082B192B2A2B3B2BDA010D931D932D9383
:101050003C931397682D7B2D8F2F9E2F0E949726F0
:10106000FE01E25AFF4F6083718382839383CE0136
:101070000E947313229618C020E82C93808190E080
:101080004FE350E0481B590B019660E070E08E0D75
:101090009F1D0E943A28CE010E94731388E3F70136
:1010A00011928A95E9F78CCF6991799189919991FB
:1010B0000E9497266C8F7D8F8E8F9F8FCE15DF05B8
:1010C00099F7492D5A2D4132510510F040E250E078
:1010D000B701C601DF91CF911F910F91FF90EF9063
:1010E000DF90CF90BF90AF909F908F907F906F9048
:1010F0005F904F900C9431281F920F920FB60F9271
:1011000011242F934F935F936F937F938F939F93AC
:10111000AF93BF932091840080911F03909120038F
:10112000A0912103B0912203820F911DA11DB11D39
:1011300080931F0390932003A0932103B093220375
:1011400080911F0390912003A0912103B09122036D
:1011500040911F035091200360912103709122035D
:101160002AE0880F991FAA1FBB1F2A95D1F7840F69
:10117000951FA61FB71F80931F0390932003A09372
:101180002103B093220380911F0390912003A0912B
:101190002103B091220340911F03509120036091DD
:1011A00021037091220326E0B695A7959795879520
:1011B0002A95D1F784279527A627B72780931F0361
:1011C00090932003A0932103B093220380911E03E8
:1011D0008F5F80931E03BF91AF919F918F917F91FD
:1011E0006F915F914F912F910F900FBE0F901F90B5
:1011F00018958F929F92AF92BF92CF92DF92EF920B
:10120000FF920F93CF93DF9300D0CDB7DEB74C01A1
:101210007B01BA016901DC01ED91FC910680F78147
:10122000E02D49837A8309955C01D401ED91FC910D
:101230000084F185E02DC401099569817A81AC149F
:10124000BD0428F0A601C7010E94312824C0D401A2
:10125000ED91FC910284F385E02DA601C40109956E
:10126000D401ED91FC910480F581E02DC401099534
:101270006C01D401ED91FC910484F585E02DAC0165
:10128000B701C4010995D401ED91FC910084F18569
:10129000E02DC401099547018C0C9D1CA5014C193A
:1012A0005D09602F70E0C4010E943A28F701E8153B
:1012B000F90521F0908190279193F9CF0F900F902D
:1012C000DF91CF910F91FF90EF90DF90CF90BF9083
:1012D000AF909F908F900895680F791F861797079A
:1012E00021F0FC0110820196F9CF089524EF31E03E
:1012F000FC0121933193CF0169E670E00C946C09F5
:10130000CF93DF93EC010E947609CE01DF91CF915C
:101310000C948727FC01628170E06F5F7F4F84E04F
:10132000660F771F8A95E1F7838194810C946C098D
:1013300024E332E0FC013183208360EB70E005960A
:101340000C946C09CF93DF93EC010E949809CE01B5
:10135000DF91CF910C94872790E04F960E9404264E
:1013600080930A019AE0899FD001112420E831E599
:1013700041E050E00E944426609300017093010117
:1013800080930201909303010895CF93DF931F92FE
:10139000CDB7DEB7198227E1AE014F5F5F4F0E94E4
:1013A00079190F90DF91CF9108958091EF038530E7
:1013B00021F481E08093380118C08091EF038530DB
:1013C000A1F065E070E080E090E00E944C110E9486
:1013D000E9188091EB039091EC03099774F368ECA2
:1013E00070E080E090E00C944C11809138018823EB
:1013F00041F064E670E080E090E00E944C111092B1
:10140000380108958F929F92AF92BF92CF92DF9250
:10141000EF92FF92CF93DF9394E6892E912CA12C2B
:10142000B12C8091EF03853091F161E070E080E0B4
:1014300090E00E944C112FB7F8946091D602709101
:10144000D7028091D8029091D9022FBFC090DA02C2
:10145000D090DB02E090DC02F090DD02A501940167
:101460000E944C26C216D306E406F506D0F68FEF8E
:10147000C81AD80AE80AF80AC092DA02D092DB0247
:10148000E092DC02F092DD020E94E918CACF80935C
:101490003901C8EBDBE084E6882E912CA12CB12C1D
:1014A00061E070E080E090E00E944C112FB7F8946A
:1014B0006091D6027091D7028091D8029091D902A2
:1014C0002FBFC090DA02D090DB02E090DC02F090F7
:1014D000DD02A50194010E944C26C216D306E40643
:1014E000F50678F48FEFC81AD80AE80AF80AC0920D
:1014F000DA02D092DB02E092DC02F092DD020E947E
:10150000E9188091EF03853039F4909139019430D6
:1015100019F48093390103C0219709F0C1CFDF91FD
:10152000CF91FF90EF90DF90CF90BF90AF909F90C2
:101530008F900895AF92BF92CF92DF92EF92FF9279
:101540000F931F93CF93DF93CDB7DEB760970FB69E
:10155000F894DEBF0FBECDBF182F60E080E00E9480
:10156000C6188CEB92E00E94C418E12EF12C29E001
:10157000129FC0011124865C9E4F0E94C41861E036
:1015800080E00E94C618609175046D7F60937504B9
:10159000686087E694E00E943A1286E291E00E9439
:1015A000471980E1EBEDF3E0DE01119601900D9219
:1015B0008A95E1F7970194E0220F331F9A95E1F79E
:1015C000690180E4C80ED11C4BEDA42E43E0B42E7B
:1015D0007901E0E5EE0EF11CC6010E940426F5013A
:1015E00081935F01FFEFCF1ADF0ACE14DF04A1F76A
:1015F00040E150E0BE016F5F7F4F8BED93E00E94B2
:101600002428892B29F585EC92E00E94C4180E94B9
:10161000020A0E94741980E3189F90011124790135
:10162000E0E7EE0EF11C85E5C82E81E0D82E890199
:1016300000561F4FC7010E940426F60181936F01D7
:10164000FFEFEF1AFF0AE016F106A1F781E009C0EB
:101650008BEC92E00E94C4180E94020A0E94741946
:1016600080E060960FB6F894DEBF0FBECDBFDF916D
:10167000CF911F910F91FF90EF90DF90CF90BF908F
:10168000AF900895EF92FF920F931F93CF93DF9344
:1016900099E0899F90011124790194E0E90EF11CF1
:1016A000E901C65CDE4F8901035F1F4FC7010E943D
:1016B000042689938FEFE81AF80AE016F106B1F7CD
:1016C000DF91CF911F910F91FF90EF900895CF93ED
:1016D000DF93EC010E94BE2590E0292F30E0FE014F
:1016E000E20FF31FE491D901A55FBC4FEC939F5F1C
:1016F000891798F78BE093E0DF91CF910895CF930E
:10170000DF93DC01EC012596FE0101900020E9F752
:101710003197EC1BFD0BEC9311962C911197822FB6
:1017200090E08E0F911D40971CF08FE0821B8C93F0
:10173000DF91CF910895CF93DF93D82FC0E0CD17DD
:1017400031F083E792E00E94C418CF5FF8CFDF91B9
:10175000CF9108950F931F93CF93DF93EC018B01EB
:101760001092DA0360E080E00E94C618CE010E9469
:10177000C418FE0101900020E9F78C2F8E1B8F5EAC
:101780000E949B0B61E080E00E94C61883EF91E00D
:101790000E94670B0E94C4188091EF03853079F492
:1017A00090913901913019F4F801908304C094307C
:1017B00031F4F80110828093390181E001C080E0AA
:1017C000DF91CF911F910F910895EF92FF920F93A8
:1017D0001F93CF93DF937C018B01EA018A818823D9
:1017E000D9F181E08093DA0360E080E00E94C618BE
:1017F000C7010E94C41861E080E00E94C618C801B9
:101800000E94C41800911D0361E089810E94C618DE
:101810008C818823A1F010E08881181728F48AE2CF
:101820000E943C191F5FF8CFFE01E80FF11D858172
:10183000882349F001118AE20E943C1904C0CE01BC
:1018400005960E94C4188EE00E949B0B99818881A6
:1018500061E0890F0E94C61880911C03882371F0F3
:101860008091ED039091EE03079744F010921C03D2
:101870001092EF031092EE031092ED038091EF03AC
:1018800091E0853009F490E09A838130B1F5E881E8
:10189000F0E0DE01AE0FBF1F15968C9115972B81DE
:1018A00081110BC0222311F080E301C081E4159661
:1018B0008C93159716961C921BC0CE010596E80FC7
:1018C000F91F8081222351F08F5F8A330CF089E366
:1018D00080838081803364F480E309C08B3514F009
:1018E0008AE505C0803214F480E201C08F5F8083F6
:1018F00081E080931C0310921D038091EF038230DE
:10190000B1F5E881F0E0DE01AE0FBF1F15968C91B6
:1019100015972B8181110BC0222311F089E301C09F
:101920008AE515968C93159716961C921BC0CE01CE
:101930000596E80FF91F8081222351F081508A33E8
:101940000CF089E380838081803364F480E309C0F4
:101950008B3514F08AE505C0803214F480E201C0B2
:101960008150808381E080931C0310921D0380913D
:10197000EF03833061F4888190E0FE01E80FF91FE6
:1019800015820197181619065CF080E009C08111D4
:101990000AC0888190E001968F3091050CF08FE0AD
:1019A000888310921D038091EF03853061F490913C
:1019B0003901943041F48093390181E08A830E9497
:1019C000741981E014C08A8181110EC080911D03B9
:1019D00081110AC08091ED039091EE03079724F0E6
:1019E00081E08A8380931D030E94D50980E0DF9106
:1019F000CF911F910F91FF90EF900895CF93DF93B8
:101A0000CDB7DEB764970FB6F894DEBF0FBECDBF7B
:101A1000E1E2F1E06483118299E0ECEBF2E0DE01B7
:101A2000119601900D929A95E1F7FE013A969BE08E
:101A3000DF011D929A95E9F7B9E08B9FC00111244F
:101A4000BC01665C7E4FCE0101960E94412841E2B6
:101A500051E064E772E0CE0101960E94E50B6496C6
:101A60000FB6F894DEBF0FBECDBFDF91CF910895C2
:101A70000F931F93CF93DF931F92CDB7DEB78C01E7
:101A800081E08093B60380E58093D8031092B7037A
:101A90001092D903812F912F990F990B69830E947E
:101AA0003719C80199270E943719698180EF93E09F
:101AB0000E9426100E94EB1965E070E080E090E043
:101AC0000F90DF91CF911F910F910C944C110F93B8
:101AD0001F93CF93DF9320E3829FC00111248C01D9
:101AE000085B1F4BEC01C858DF4B6FEFC8010E9429
:101AF000380D0F5F1F4F0C171D07B9F7DF91CF91FE
:101B00001F910F910895CF93DF93EC0181E08093B3
:101B1000B60380E58093D8031092B7031092D903DF
:101B20008D2F9D2F990F990B0E943719CE01992760
:101B30000E9437190E94EB198091B5038111FCCFE7
:101B400081E08093B5038093B4039FEF9093B30338
:101B50001092B2031092B10380939003809190038E
:101B6000806A8093900380918F03813061F410929A
:101B70008F03809190038093BB008091BC0083FD14
:101B8000F8CF85EC01C085EE8093BC008091B50351
:101B90008130E1F38091B203811103C08091B203DF
:101BA00001C081E0A1E9B3E023E233E0F9019E2F17
:101BB000921B981718F49D919193F9CF1092D5022A
:101BC0008093D40280EF93E00E94DA0FDF91CF91EF
:101BD00008950F931F93CF93DF9320E3829FC0015B
:101BE00011248C01085B1F4BEC01C858DF4BC80166
:101BF0000E94830D8F3F39F40F5F1F4F0C171D0795
:101C0000B1F780E001C081E0DF91CF911F910F918A
:101C10000895FF920F931F93CF93DF93C82FD0E0C7
:101C2000CE57DF4F83E0CC0FDD1F8A95E1F7C60F5B
:101C3000D11D94E0CC0FDD1F9A95E1F70AEF12E079
:101C4000CA5FD24020E1F22EF00ECE01800F911F2C
:101C50000E94830DF80181938F01FE12F6CF10923E
:101C60000A038AEF92E0DF91CF911F910F91FF90CD
:101C700008950F931F93CF93DF9397FD1BC0EC0143
:101C800083E0CC0FDD1F8A95E1F701EF12E0C15F21
:101C9000D240CE01800F911F0E94830DF8018193E5
:101CA0008F01F2E0093F1F07A1F71092F90281EFBF
:101CB00092E002C089E792E0DF91CF911F910F91EE
:101CC0000895EF92FF920F931F93CF93DF931F928C
:101CD000CDB7DEB77C01FC0100811181C8016983A9
:101CE0000E9404266981681719F0C8010E940C2619
:101CF000C7010F90DF91CF911F910F91FF90EF904F
:101D00000895CF92DF92EF92FF920F931F93CF939C
:101D1000DF9300D0CDB7DEB720E1829FC001112450
:101D20007C01E0E4EE0EF11C2BEDC22E23E0D22E5E
:101D30008C01005B1F4FF60161916F01FA82E9820D
:101D4000CE0101960E94610EFFEFEF1AFF0AE01626
:101D5000F10689F70F900F90DF91CF911F910F91AE
:101D6000FF90EF90DF90CF900895CF92DF92EF92A7
:101D7000FF920F931F93CF93DF9300D0CDB7DEB7C1
:101D800020E3829FC00111247C01E0E7EE0EF11CEC
:101D900025E5C22E21E0D22E8C0100561F4FF60100
:101DA00061916F01FA82E982CE0101960E94610E73
:101DB000FFEFEF1AFF0AE016F10689F70F900F9078
:101DC000DF91CF911F910F91FF90EF90DF90CF9017
:101DD0000895CF92DF92EF92FF920F931F93CF93CC
:101DE000DF9300D0CDB7DEB799E0899F7001112451
:101DF000E4E0EE0EF11CF9E08F9F80011124065CF7
:101E00001E4F680189E0C80ED11CF80161918F0155
:101E1000FA82E982CE0101960E94610EFFEFEF1A6D
:101E2000FF0A0C151D0589F70F900F90DF91CF91D8
:101E30001F910F91FF90EF90DF90CF900895CF9278
:101E4000DF92EF92FF920F931F93CF93DF936C017A
:101E50007A018B01C0E0D0E0CE15DF0589F0D80112
:101E60006D918D01D601ED91FC910190F081E02DF5
:101E7000C6010995892B11F47E0102C02196ECCF91
:101E8000C701DF91CF911F910F91FF90EF90DF90ED
:101E9000CF900895833081F028F4813099F082301A
:101EA000A1F008958730A9F08830B9F08430D1F4DA
:101EB000809180008F7D03C0809180008F77809318
:101EC0008000089584B58F7702C084B58F7D84BD6E
:101ED00008958091B0008F7703C08091B0008F7D0E
:101EE0008093B00008953FB7F89480918B03909150
:101EF0008C03A0918D03B0918E0326B5A89B05C0DD
:101F00002F3F19F00196A11DB11D3FBFBA2FA92F78
:101F1000982F8827820F911DA11DB11DBC01CD01F5
:101F200042E0660F771F881F991F4A95D1F70895E1
:101F300085ED8093BC008091BC0084FDFCCF1092A5
:101F4000B503089540916503262F30E0240F311D1D
:101F500021323105DCF42091B5032430C9F4FC01B1
:101F600080E090E0861758F4309165032191DC0100
:101F7000AD5BBC4FA30FB11D2C930196F3CF8091A5
:101F80006503680F6093650380E0089581E008951C
:101F900082E008950895E091D5028091D402E81777
:101FA00030F4F0E0ED5DFC4F808190E008958FEF1C
:101FB0009FEF08959091D5028091D402981750F424
:101FC000E92FF0E0ED5DFC4F208130E09F5F9093C2
:101FD000D50202C02FEF3FEFC90108958091D402CE
:101FE00090E02091D502821B91090895CF92DF9253
:101FF000EF92FF920F931F93CF93DF937C01262FD5
:10200000972F8A018091B603882391F0C62FD72F8E
:102010006E01C40ED51ECC15DD0571F06991D70196
:10202000ED91FC910190F081E02DC7010995F3CF6E
:10203000642F822F0E94A20FC801DF91CF911F91C0
:102040000F91FF90EF90DF90CF900895CF93DF93A3
:102050001F92CDB7DEB769832091B6032223D1F05A
:102060002091D903203240F021E030E0FC0133839D
:10207000228380E090E015C08091B703E82FF0E064
:10208000E854FC4F998190838F5F8093B7038093CE
:10209000D90305C061E0CE0101960E94A20F81E044
:1020A00090E00F90DF91CF910895089580E090E047
:1020B00008950E941F28CF93DF93EC0169E670E03A
:1020C00002960E946C09E881F9810084F185E02D77
:1020D000CE01DF91CF910994CF93DF93282F30E089
:1020E000F901E954FF4F8491F901EF5BFA4FD49164
:1020F000F901E35DFA4FC491CC2391F081110E9464
:102100004A0FEC2FF0E0EE0FFF1FED5DFA4FA591A7
:10211000B491EC91ED2381E090E021F480E002C0E5
:1021200080E090E0DF91CF9108951F93CF93DF93EC
:10213000282F30E0F901E954FF4F8491F901EF5B5A
:10214000FA4FD491F901E35DFA4FC491CC23C9F061
:10215000162F81110E944A0FEC2FF0E0EE0FFF1FA7
:10216000E75EFA4FA591B4918FB7F894111105C0AD
:102170009C91ED2FE095E92302C0EC91ED2BEC93BF
:102180008FBFDF91CF911F910895CF93DF93EC0123
:1021900061E08F810E94951083EC90E00197F1F748
:1021A00060E08F81DF91CF910C949510CF93DF93F6
:1021B00090E0FC01EF5BFA4F2491FC01E35DFA4FE4
:1021C0008491882361F190E0880F991FFC01E15F01
:1021D000FA4FC591D491FC01E75EFA4FA591B491F5
:1021E000611109C09FB7F894888120958223888364
:1021F000EC912E230BC0623061F49FB7F8943881C4
:10220000822F809583238883EC912E2B2C939FBF64
:1022100006C08FB7F894E8812E2B28838FBFDF91FB
:10222000CF910895EF92FF921F93CF93DF93EC012C
:1022300060E088850E94D61060E08D810E94951034
:1022400061E08E810E94951083E2E82EF12C60E01F
:102250008F810E94951061E08F810E949510C701C7
:102260000197F1F788850E946C10182F60E08F812C
:102270000E949510CE010E94C5101111E8CF61E0B7
:1022800088850E94D61060E08E81DF91CF911F91EA
:10229000FF90EF900C9495108F929F92AF92BF9207
:1022A000CF92DF92EF92FF926B017C010E94730F3D
:1022B0004B015C01C114D104E104F104F1F00E946E
:1022C000730FDC01CB0188199909AA09BB09883E63
:1022D0009340A105B10570F321E0C21AD108E108CD
:1022E000F10888EE880E83E0981EA11CB11CC11471
:1022F000D104E104F10419F7DDCFFF90EF90DF90F6
:10230000CF90BF90AF909F908F9008951F920F92A3
:102310000FB60F9211242F933F938F939F93AF93F8
:10232000BF938091D6029091D702A091D802B0912C
:10233000D90230918A0323E0230F2D3720F4019630
:10234000A11DB11D05C026E8230F0296A11DB11DD8
:1023500020938A038093D6029093D702A093D80249
:10236000B093D90280918B0390918C03A0918D033F
:10237000B0918E030196A11DB11D80938B039093A4
:102380008C03A0938D03B0938E03BF91AF919F9167
:102390008F913F912F910F900FBE0F901F90189526
:1023A000AF92BF92CF92DF92EF92FF920F931F9363
:1023B000CF93DF935C017C0189E0E80EF11CC0E063
:1023C000D0E0062F10E0670161E0F70181917F0105
:1023D0000E94D610B8010C2E02C0759567950A941C
:1023E000E2F76170F60180810E9495102196C43059
:1023F000D10549F783EC90E00197F1F7C501DF9132
:10240000CF911F910F91FF90EF90DF90CF90BF90F1
:10241000AF900C94C5101F93CF93DF93EC01162F50
:10242000642F8D810E94951061E08E810E94D610EC
:1024300060E08E810E949510812F90E0BC0184E0C5
:10244000759567958A95E1F7CE010E94D011612FAD
:10245000CE01DF91CF911F910C94D011CF93DF93D8
:10246000EC0141E00E940B12CE010E941211DF919B
:10247000CF910895CF93DF93EC0140E00E940B12BF
:10248000CE01DF91CF910C9412111F920F920FB6D3
:102490000F9211242F933F934F935F936F937F93EA
:1024A0008F939F93AF93BF93EF93FF938091B90066
:1024B000887F803609F49CC068F5883209F45BC0D7
:1024C00090F4803109F454C038F4882309F4F6C03C
:1024D000883009F44DC0F6C0883109F44CC0803210
:1024E00009F45DC0EFC0803409F468C048F480335B
:1024F00009F455C0883309F0E5C08093B303D8C010
:10250000803509F44FC0883509F45DC0883409F07E
:10251000D9C0D6C0883909F4C7C0A8F4883709F4EF
:1025200067C038F4883609F463C0803709F460C0A6
:10253000C9C0883809F4B8C0803909F45FC0803850
:1025400009F0C0C05BC0803B09F486C038F4803A13
:1025500009F466C0883A09F47FC0B4C0803C09F42D
:10256000A7C0883C09F4A4C0883B09F48AC0AAC06B
:102570008091900310C09091B2038091B10398179D
:1025800070F5E091B20381E08E0F8093B203F0E02A
:10259000EF56FC4F80818093BB0085EC86C0809312
:1025A000B3038EC0E091B20381E08E0F8093B2033B
:1025B0008091BB00F0E0EF56FC4F80839091B20316
:1025C0008091B1036EC0E091B20381E08E0F8093E1
:1025D000B2038091BB00F0E0EF56FC4F8083809106
:1025E000B40381116DC081E080938F0384EA61C0E0
:1025F00083E08093B50310928903CFCF8091890344
:10260000803208F051C0E091890381E08E0F809301
:1026100089038091BB00F0E0E759FC4F8083BDCF78
:1026200085EC8093BC001092B503809189038032C1
:1026300030F4E0918903F0E0E759FC4F108260919B
:10264000890370E0E0916703F091680389E693E005
:1026500009951092890336C084E08093B5031092E7
:10266000660310926503E0916303F091640309959A
:1026700080916503811105C081E08093650310920C
:102680004303E091660381E08E0F80936603F0E0E0
:10269000ED5BFC4F80818093BB009091660380913D
:1026A0006503981708F479CF85E88093BC000AC0C9
:1026B00085EC8093BC001092B50304C01092B30364
:1026C0000E94980FFF91EF91BF91AF919F918F91D1
:1026D0007F916F915F914F913F912F910F900FBE1E
:1026E0000F901F9018952F923F924F925F926F928A
:1026F0007F928F929F92AF92BF92CF92DF92EF9292
:10270000FF920F931F93CF93DF93CDB7DEB7CC54D7
:10271000D1090FB6F894DEBF0FBECDBF2D969FAF87
:102720008EAF2D971C0102E2200E311C8E599F4F57
:10273000988F8F8BF10160817181828193810E94DA
:10274000972661937193819391932F89388DE21726
:10275000F30789F72D96AEADBFAD2D9712964D912B
:102760005D916D917C9115974FA358A769A77AA7A2
:1027700016964D905D906D907C9019974BA65CA637
:102780006DA67EA61A964D905D906D907C901D97DB
:102790004FA658AA69AA7AAA1E964D905D906D9090
:1027A0007C9051974BAA5CAA6DAA7EAA52964D9036
:1027B0005D906D907C9055974FAA58AE69AE7AAEF9
:1027C00056964D905D906D907C9059974BAE5CAE57
:1027D0006DAE7EAE5A964D905D906D907C905D97FB
:1027E00023964CAE5DAE6EAE7FAE23975E964D9057
:1027F0005D906D907C90919727964CAE5DAE6EAEDD
:102800007FAE27970FE014E01E8B0D8B73016201E2
:1028100023962CAD3DAD4EAD5FAD23972F8F38A3E2
:1028200049A35AA34BAD5CAD6DAD7EAD498B5A8BC0
:102830006B8B7C8B6FA978AD89AD9AAD6D837E83F0
:102840008F8398878BA99CA9ADA9BEA98BA39CA3B4
:10285000ADA3BEA34FA458A869A87AA84B8E5C8EDE
:102860006D8E7E8E6BA47CA48DA49EA469867A86D0
:102870008B869C868FA098A4A9A4BAA489829A82E8
:10288000AB82BC82ED89FE89059115912591349129
:10289000D1014D905D906D907D901D014D815E81C7
:1028A0006F817885B62F672F742F452F5B2F400ED1
:1028B000511E621E731E0D811E812F813885009569
:1028C0001095209530958F8C98A0A9A0BAA00821CA
:1028D00019212A213B2189889A88AB88BC888D815F
:1028E0009E81AF81B88588229922AA22BB22082521
:1028F00019252A253B25040D151D261D371D2A01E6
:102900003B01440C551C661C771C411C440C551C97
:10291000661C771C411C4C015D018B2CBA2CA92C28
:10292000982E80FAB794A79497948794B7F8842444
:102930009524A624B7242A013B0140FA7794679492
:102940005794479477F840FA77946794579447944C
:1029500077F840FA779467945794479477F88424EB
:102960009524A624B724800E911EA21EB31EC80C67
:10297000D91CEA1CFB1C09811A812B813C81A02FE8
:10298000032F322F212F1A2F000F111F221F331F49
:10299000011DD901C801880F991FAA1FBB1F811DE6
:1029A00049815A816B817C8140FB7795679557956A
:1029B000479577F940FB779567955795479577F950
:1029C0008C019D01042715272627372749815A8125
:1029D0006B817C81FA01AB01BF01440F551F661F5B
:1029E000771F411D440F551F661F771F411DDB01D7
:1029F000CA01880F991FAA1FBB1F811DB901A80119
:102A0000482759276A277B278B8C9C8CAD8CBE8CE2
:102A100049845A846B847C8484249524A624B72416
:102A200009811A812B813C8180229122A222B3222A
:102A30000B8D1C8D2D8D3E8D0421152126213721D6
:102A4000082519252A253B25400F511F621F731F9A
:102A50008BA19CA1ADA1BEA18C0D9D1DAE1DBF1D66
:102A60008D879E87AF87B88BDB01CA018C0D9D1DBA
:102A7000AE1DBF1D0D891E890C5F1F4F1E8B0D8B58
:102A80002B8D3C8D4D8D5E8D2BA33CA34DA35EA362
:102A9000CF8CD8A0E9A0FAA04F89588D241635060E
:102AA00069F109891A892B893C890F8F18A329A3F9
:102AB0003AA32D813E814F815885298B3A8B4B8BD0
:102AC0005C8B4D855E856F8578894D835E836F83D2
:102AD000788749845A846B847C844B8E5C8E6D8E9F
:102AE0007E8E69807A808B809C8069867A868B86D0
:102AF0009C8689839A83AB83BC83C4CE6FE474E0E5
:102B00007E8B6D8B22242394312CF101EF70FF27F3
:102B10003896EE0FFF1FEE0FFF1F2D96EEACFFACA9
:102B20002D97EE0DFF1D0281138124813581F10166
:102B30003D96EF70FF273896EE0FFF1FEE0FFF1F39
:102B4000EE0DFF1DC280D380E480F5804FE0420D82
:102B5000E42FEF70B601A7013A014B0160FA979498
:102B600087947794679497F82B966CAE7DAE8EAE73
:102B70009FAE2B972D966EAD7FAD2D9744E0E49FD1
:102B8000600D711D1124FB01B096F88FEF8BF101E0
:102B90003896EF70FF273896EE0FFF1FEE0FFF1FDE
:102BA0002D964EAD5FAD2D974E0F5F1FEF89F88DBF
:102BB0004280538064807580FA0182809380A48073
:102BC000B580840C951CA61CB71C702E412E522E6D
:102BD000632EB301A201440F551F661F771F411DCD
:102BE00028013901E3E07694679457944794EA9575
:102BF000D1F74426552666267726B80189019B0120
:102C000000FB379527951795079537F900FB379502
:102C100027951795079537F9402651266226732682
:102C2000480C591C6A1C7B1CFAE0F694E794D79474
:102C3000C794FA95D1F72B968CAC9DACAEACBFACDB
:102C40002B97C824D924EA24FB2480FAB794A794AC
:102C500097948794B7F880FAB794A7949794879439
:102C6000B7F88C249D24AE24BF24840C951CA61C8C
:102C7000B71CEF89F88D82829382A482B5826D8918
:102C80007E89FB0145905590659074904F8A588ECF
:102C9000698E7A8E0D851E852F853889F22F232F18
:102CA000302F012F1F2F4D855E856F8578894095C8
:102CB00050956095709549885A886B887C88442126
:102CC0005521662177214D805E806F807884CD8488
:102CD000DE84EF84F8884C205D206E207F206A011E
:102CE0007B01C424D524E624F7244F89588D698DAF
:102CF0007A8DC40ED51EE61EF71E28013901440C3C
:102D0000551C661C771C411C440C551C661C771C0A
:102D1000411C4D855E856F857889E42F472F762F7E
:102D2000652F5E2F40FB779567955795479577F907
:102D300044255525662577252801390140FA7794E1
:102D400067945794479477F840FA77946794579428
:102D5000479477F840FA779467945794479477F8B4
:102D600044255525662577254C0D5D1D6E1D7F1D5F
:102D7000840E951EA61EB71E4F8C58A069A07AA07F
:102D8000840C951CA61CB71CD82EE92EFA2ECB2E2F
:102D9000CC0CDD1CEE1CFF1CC11C97018601000F32
:102DA000111F221F331F011DAC01BD0140FB779590
:102DB00067955795479577F940FB779567955795B0
:102DC000479577F968017901C426D526E626F726C6
:102DD000BC01AD01440F551F661F771F411D440FF5
:102DE000551F661F771F411D8A019B01000F111F90
:102DF000221F331F011DB701A6014027512762275B
:102E00007327C984DA84EB84FC8409811A812B81BD
:102E10003C81C026D126E226F326C822D922EA2206
:102E2000FB2209851A852B853C8549805A806B8059
:102E30007C8004211521262137210C251D252E25D6
:102E40003F25400F511F621F731F4B8C5C8C6D8C94
:102E50007E8C480C591C6A1C7B1C480D591D6A1D30
:102E60007B1D0FEF201A300A2D893E892C5F3F4FC2
:102E70003E8B2D8B89849A84AB84BC848B8E9C8EF4
:102E8000AD8EBE8EA988BA88CB88DC88AF8EB8A2FA
:102E9000C9A2DAA201E32016310419F18D809E80C7
:102EA000AF80B884898A9A8AAB8ABC8AAD84BE8492
:102EB000CF84D888AD82BE82CF82D8864D865E868A
:102EC0006F86788AC980DA80EB80FC80C986DA86D2
:102ED000EB86FC8689839A83AB83BC83DB01CA01C2
:102EE00014CE8FA098A4A9A4BAA4480D591D6A1D98
:102EF0007B1D2D96EEADFFAD2D97428353836483EA
:102F000075838BA49CA4ADA4BEA4880D991DAA1D95
:102F1000BB1D86839783A087B18789819A81AB8106
:102F2000BC818FA498A8A9A8BAA8880D991DAA1D2C
:102F3000BB1D82879387A487B58789859A85AB85D2
:102F4000BC858BA89CA8ADA8BEA8880D991DAA1DFC
:102F5000BB1D86879787A08BB18B8FA898ACA9AC37
:102F6000BAAC480C591C6A1C7B1C428A538A648A7E
:102F7000758A8D859E85AF85B8894BAC5CAC6DAC90
:102F80007EAC840D951DA61DB71D868B978BA08FDB
:102F9000B18F8D819E81AF81B88523964CAC5DAC9D
:102FA0006EAC7FAC2397840D951DA61DB71D828F37
:102FB000938FA48FB58F89899A89AB89BC8927960D
:102FC0004CAC5DAC6EAC7FAC2797840D951DA61DF7
:102FD000B71D868F978FA0A3B1A3C45BDF4F0FB639
:102FE000F894DEBF0FBECDBFDF91CF911F910F913F
:102FF000FF90EF90DF90CF90BF90AF909F908F9019
:103000007F906F905F904F903F902F9008956F92B8
:103010007F928F929F92AF92BF92CF92DF92EF9268
:10302000FF920F931F93CF93DF93CDB7DEB7A09797
:103030000FB6F894DEBF0FBECDBF7C014B013A0145
:1030400069015801DC01ED91FC910484F585E02DC6
:1030500040E250E0BE016F5F7F4F0995B7016E5DA2
:103060007F4F0CE59301A401C7010E94F908F70105
:10307000EE59FF4F208131814281538164817581F6
:10308000868197813E5F4F4F5F4F6F4F7F4F8F4FCE
:103090009F4F208331834283538364837583868368
:1030A0009783C7010E947313D701ED91FC910284AD
:1030B000F385E02D40E250E0BE016F5F7F4FC70116
:1030C0000995D701ED91FC910484F585E02DA501CA
:1030D000B601C701099560E270E0CE0101960E9439
:1030E0006C09A0960FB6F894DEBF0FBECDBFDF917E
:1030F000CF911F910F91FF90EF90DF90CF90BF90F5
:10310000AF909F908F907F906F9008950F93CF9383
:10311000DF93EC019A01829606E3AB01BC01CE017C
:103120000E94F908FE01EE59FF4F20813181428152
:10313000538164817581868197813E5F4F4F5F4FD8
:103140006F4F7F4F8F4F9F4F208331834283538335
:103150006483758386839783CE01DF91CF910F912E
:103160000C947313009769F0FC0101900020E9F7BB
:103170003197AF01481B590BBC0187E694E00C94D2
:103180001F0F80E090E008950C94B218CF93DF9366
:1031900000D000D0CDB7DEB7198220E42A8324E125
:1031A0002B8324E52C8320917904621708F060E0DA
:1031B000FE01E60FF11D9181682F690F606887E6B7
:1031C00094E00F900F900F900F90DF91CF910C949F
:1031D0003A1282E00E946C10892B91F083E00E94E9
:1031E0006C10892B81F081E10E946C10892B71F0A9
:1031F0008CE00E946C10892B61F085E090E00BC0A0
:1032000081E090E008C082E090E005C083E090E0BB
:1032100002C084E090E08093EF03823041F018F424
:10322000813029F006C0833011F0843011F480938E
:103230003901059771F48091ED039091EE030196A9
:103240009093EE038093ED031092EC031092EB0346
:1032500008951092EE031092ED038091EB0390918C
:10326000EC0301969093EC038093EB030895682F91
:1032700080EF93E00C942610E0916704F0916804CD
:103280000190F081E02D682F87E694E009940F9378
:103290001F93CF93DF938C01CCEFD3E0E881F981CA
:1032A0000084F185E02DCE010995F8010190002000
:1032B000E9F73197AF01401B510BE881F981028496
:1032C000F385E02DB801CE010995E881F9810484E8
:1032D000F585E02D40E150E06BED73E0CE01DF912C
:1032E000CF911F910F91099461E087E694E00C94CF
:1032F0003A12CF92DF92EF92FF920F931F93CF93E8
:10330000DF931F92CDB7DEB77C018B016A0110926B
:10331000DA0360E080E029830E94C618C7010E949A
:10332000C418F70101900020E9F73197EE19FF0961
:1033300080E1F82E8F2D8E1B0E949B0B61E080E0B8
:103340000E94C618C8010E94C418F801019000200C
:10335000E9F73197E01BF10B8F2D8E1B0E949B0B21
:103360008091EF032981813051F4F601808190E052
:103370000197181619060CF080E0F6018083809101
:10338000EF03823069F4F6019081892F90E0019675
:10339000422F50E0841795070CF4282FF601208364
:1033A0008091EF03853051F490913901943031F4DC
:1033B000809339010E94741981E003C00E94D509ED
:1033C00080E00F90DF91CF911F910F91FF90EF90D0
:1033D000DF90CF9008952091D9039091D8032132A6
:1033E00008F04AC08091B5038111FCCF32E03093E0
:1033F000B50331E03093B4033FEF3093B303109241
:10340000B2032093B103A8EBB3E041E953E0FA0122
:103410003E2F341B321718F43D913193F9CF10929F
:10342000900320919003990F922B90939003909189
:103430008F03913061F410928F03909190039093D9
:10344000BB009091BC0093FDF8CF95EC01C095EEC8
:103450009093BC009091B5039230E1F39091B30347
:103460009F3F79F08091B303803241F08091B303A4
:10347000803331F084E005C081E003C082E001C008
:1034800083E01092B7031092D9031092B603089507
:10349000CF92DF92EF92FF920F931F93CF93DF9320
:1034A000EC0182E08A8B198A61E08D810E94D6103E
:1034B00061E08E810E94D61061E08F810E94D6105B
:1034C00060E08D810E94951060E08F810E949510D0
:1034D00060E08E810E9495108BE39DE00197F1F7EB
:1034E0008E01075F1F4F7E018DE0E80EF11C680121
:1034F00061E0F80181918F010E94D61060E0F60131
:1035000080810E9495100E151F0589F763E0CE019A
:103510000E94D0110BE11EE4C8010197F1F78C81E4
:10352000823039F468E0CE010E94D011C8010197C1
:10353000F1F762E0CE010E94D0110BE11EE4C80158
:103540000197F1F762E0CE010E94D011C801019706
:10355000F1F768E0CE010E94D011C8010197F1F7A0
:1035600068E0CE010E943A12C8010197F1F761E0CC
:10357000CE010E943A12C8010197F1F766E0CE0130
:103580000E943A12C8010197F1F762E0CE010E9451
:103590003A12C8010197F1F76CE0CE010E943A128D
:1035A000C8010197F1F7DF91CF911F910F91FF9023
:1035B000EF90DF90CF9008951F93CF93DF93CDB717
:1035C000DEB7AE970FB6F894DEBF0FBECDBF182F93
:1035D0008091C50590E04AE0BE01645D7F4F019691
:1035E0000E94C725E091C505F0E0EE0FFF1FEB5AE2
:1035F000FE4F808191810E94390EBC01CE018396DD
:103600000E944C288BE0E0E5F2E0DE01529601904A
:103610000D928A95E1F7FE017D9686E0DF011D920D
:103620008A95E9F7B9E01B9FB0011124665C7E4FD3
:10363000CE0142960E94412883E290E0A0E0B0E0F3
:1036400089839A83AB83BC83FE0135968DE0DF01CD
:103650001D928A95E9F7BE01645D7F4FCE01019608
:103660000E94412863E772E0CE0101960E94412842
:10367000BE016D5D7F4FCE0101960E94412827E17A
:1036800045EC55E0BE016F5F7F4FCE0142960E9430
:103690007919AE960FB6F894DEBF0FBECDBFDF919D
:1036A000CF911F910895CF93DF93CDB7DEB7E79702
:1036B0000FB6F894DEBF0FBECDBF789484B582609C
:1036C00084BD84B5816084BD85B5826085BD85B5C6
:1036D000816085BD80916E00816080936E00109244
:1036E00081008091810082608093810080918100BF
:1036F0008160809381008091800081608093800050
:103700008091B10084608093B1008091B0008160AD
:103710008093B00080917A00846080937A008091D9
:103720007A00826080937A0080917A008160809331
:103730007A0080917A00806880937A001092C100AC
:1037400061E08DE00E94D61060E08DE00E9495104F
:1037500060E08AE00E94D61060E08EE00E94D61001
:1037600060E08FE00E94D61060E080E10E94D610F9
:1037700062E081E10E94D61062E08CE00E94D610E7
:1037800062E082E00E94D61062E083E00E94D610E0
:1037900087E694E00E94481A0E94741960917504AB
:1037A000862F8460809375046C6087E694E00E94A5
:1037B0003A128091B100887F81608093B10080E0EF
:1037C00090E00E9404268A3429F48091EF020E943E
:1037D000420B2CC00E94741981E692E00E94C4182A
:1037E00060E177E280E090E00E944C110FE110E090
:1037F00031EEF32EF00E8F2D0E94E90E85E091E060
:103800000E9447198F2D0E94810E8F2D0E94B50EA8
:1038100062E1C8010E940C260F5F1F4F02321105A2
:1038200039F76AE480E090E00E940C261092D502FD
:103830001092D4021092B7031092D9031092B503DC
:1038400081E08093B40310928F0361E082E10E94D3
:10385000951061E083E10E9495108091B9008E7F00
:103860008093B9008091B9008D7F8093B90088E47E
:103870008093B80085E48093BC0060E080E00E9403
:10388000C6188AE591E00E94670B0E94C41861E0A7
:1038900080E00E94C6188DE990E00E94670B0E94AC
:1038A000C418F89489E0E0E0F0E080935700E491D8
:1038B000E3E0F0E080935700E491E2E0F0E08093F1
:1038C0005700E491E1E0F0E0809357008491789410
:1038D000837031F086E990E00E94670B0E94C41863
:1038E00061E08AE00E94C618E12CF12C00E010E0B3
:1038F000C8010E94830DE80EF11C0F5F1F4F0115D8
:1039000020E41207A9F789EBE81686ECF80651F0D7
:103910008EE692E00E94C41860E777E180E090E0D4
:103920000E944C1185E5809309012AE0422E512C1A
:10393000612C712C8E010F5F1F4F1E0195E0290E27
:10394000311C8091F002882309F4C9C3E09137014A
:103950008E2F90E0FC013197E731F10508F0EBC7BD
:10396000EC5CFF4F0C94912682E080933701E7E3F3
:10397000F1E01292A1E0E632FA07D9F710922101A4
:10398000DAC761E08091EF020E94FE0C882309F4FF
:10399000D2C783E080933701CEC78091EF020E94A7
:1039A0009A0A882321F084E080933701C4C781E01C
:1039B000809337011092F002BEC787EE91E00E941B
:1039C000670BB8010E94AA0B882309F4B4C7898148
:1039D000882359F185E080933701ADC7F090EF025D
:1039E000B80185E792E00E94AA0B882309F4A3C7D7
:1039F000E980EE2051F161E080E00E94C6188BE77B
:103A000092E00E94C4188EE00E949B0B86E291E037
:103A10000E9447198F2D0E94810E0E94020A0E9467
:103A200074198E2D882309F486C787E080933701A7
:103A300082C760E08091EF020E94FE0C882309F4A7
:103A40007AC786E08093370176C78CAB0E947419E1
:103A50008CA9E8CF8AED91E00E94670BB8010E9423
:103A6000AA0B882309F467C789818823F1F1609143
:103A7000EF02B9E06B9FB0011124665C7E4F80E1DC
:103A800091E00E944C2898E0F92EF0920C018BE016
:103A900091E00E947F0B0E947419F09237014BC78E
:103AA000F090EF02B80185E792E00E94AA0BE82EA1
:103AB000882309F440C7D980DD2009F454C061E0AF
:103AC00080E00E94C6188BE792E00E94C4188EE046
:103AD0000E949B0B8F2D0E94E90E0E94020A0E94F9
:103AE0007419ED2CEE2009F426C78AE08093370183
:103AF00022C7E090EF02F12C4AE0BE016E5D7F4FDD
:103B0000C70101960E94C72586E0EBE8F1E0D801E5
:103B100001900D928A95E1F718861F82BE016E5DB5
:103B20007F4FC8010E94412861E872E0C8010E94ED
:103B300041284BE051E0B80183E892E00E94E50B98
:103B4000882309F4F8C689E0D82EDE9CC001DF9CEA
:103B5000900D112460E171E0865C9E4F0E944C281C
:103B6000D0923701E8C68F2D0E94420B0E94741933
:103B7000B9CF8CEC91E00E94670BB8010E94AA0BB0
:103B8000882309F4D8C689818823B9F08BE0809313
:103B900037018091EF020E94AC0980910A014AE04E
:103BA00066E271E0EAE08E9FC00111240E94C72501
:103BB00081E291E00E947F0BBEC68CE080933701CA
:103BC000BAC66091EF02109225018BE0E3E9F1E0C3
:103BD000D80101900D928A95E1F7FE013C9687E0AD
:103BE000DF011D928A95E9F7B9E0FB2EF69EB00140
:103BF0001124665C7E4FC8010E94412841E251E0D9
:103C000064E772E0C8010E94E50B882309F493C6BB
:103C10008CE080933701E090EF0286E291E00E9411
:103C2000A0256AE070E00E947D26693071051CF4D1
:103C3000F0920A0109C06B3F710524F08AEF80936E
:103C40000A0102C060930A0160910A018E2D90E082
:103C50004F969A838983C8010E94610EA0910A0140
:103C6000EAE0AE9FD001112420E831E541E050E0C8
:103C70000E94442660930001709301018093020129
:103C80009093030158C68EEB91E00E94670BB80138
:103C90000E94AA0B882309F44EC68981882341F12A
:103CA0008DE08093370147C6F090EF02B8018BE8B2
:103CB00092E00E94AA0B882309F43DC6E980EE2019
:103CC00009F4CCC061E080E00E94C6188BE792E066
:103CD0000E94C4188BE00E949B0B8F2D0E94B50E92
:103CE0000E94020A0E9474198E2D882309F423C6AB
:103CF00080E1809337011FC68091EF020E94DC1A99
:103D0000882339F1E091C505F0E0EE0FFF1FEB5A73
:103D1000FE4F808191810E94390EBC0180E191E0CB
:103D20000E944C28809110018F3349F4E1E2F1E0C8
:103D3000129221E0E031F207D9F710920B0188E0EE
:103D400080930C018BE091E00E947F0B8EE08093CA
:103D500037018091EF03833009F0EDC58FE0809348
:103D600037010E947419E7C58091C50590E04AE0CB
:103D7000BE016E5D7F4F01960E94C72586E0E5EA91
:103D8000F1E0D80101900D928A95E1F71F82188623
:103D90001986BE016E5D7F4FC8010E94412861E80F
:103DA00072E0C8010E9441284BE051E0B80183E86D
:103DB00092E00E94E50BB82E882309F4BCC5E12CE3
:103DC000F12CC12CD12CA0901001C7010E94830DB1
:103DD00090E02A2DAA0C330B8217930789F5A09047
:103DE0001101C70101960E94830D90E02A2DAA0CB3
:103DF000330B8217930721F5A0901201C701029699
:103E00000E94830D90E02A2DAA0C330B8217930792
:103E1000B9F4A0901301C70103960E94830D90E0AE
:103E20002A2DAA0C330B8217930751F4E091C50594
:103E3000F0E0EE0FFF1FEB5AFE4FD182C0820BC0A5
:103E40008FEFC81AD80A98E0E90EF11CE114A0E43B
:103E5000FA0609F0B8CFB11023CF6DC58CAB0E9424
:103E600074198CA942CF8EEA91E00E94670BB801C9
:103E70000E94AA0B882309F45EC58981882389F0F2
:103E800083E18093370157C588EA91E00E94670B70
:103E9000B8010E94AA0B882309F44DC589818823A3
:103EA00079F384E18093370146C58091C50590E0A0
:103EB0004AE0BE016E5D7F4F01960E94C7258DE0EE
:103EC000EEEAF1E0D80101900D928A95E1F71E86A5
:103ED0001F86188ABE016E5D7F4FC8010E9441286F
:103EE00061E872E0C8010E9441284BE051E064E7BC
:103EF00072E0C8010E94E50B8091EF03843009F065
:103F000056C080911001811108C082E18093370171
:103F100085E0809339010E947419E090EF02F12C42
:103F2000B2E8EB0EF11C43E0EE0CFF1C4A95E1F702
:103F30008091C505E80EF11C54E0EE0CFF1C5A956B
:103F4000E1F7A12CB12C60E1C62E61E0D62EF6017E
:103F500001900020E9F7CF01815191408A159B051E
:103F600028F0F501E55FFE4F658101C060E0C50105
:103F70008E0D9F1D0E94380DEFEFAE1ABE0AF0E1C4
:103F8000AF16B10421F76091C5056F5F6093C50559
:103F9000683068F48091EF020E94090EBC0180E154
:103FA00091E00E944C288BE091E00E947F0B809171
:103FB000C505883008F4BFC48091EF03853009F04F
:103FC000BAC482E180933701B6C41092C5050E943D
:103FD00074196091C5058091EF020E94090EBC0121
:103FE00080E191E00E944C2810920C018BE091E05E
:103FF0000E947F0B81E1809337019DC48BE991E0A2
:104000000E94670BB8010E94AA0B882309F493C48D
:104010008981882321F085E1809337018CC487E171
:104020008093370188C48AE891E00E94670BBC0145
:104030008EED92E00E944C2889E791E00E94670B88
:10404000BC018EED92E00E94C509882309F473C477
:1040500086E1809337016FC48BE691E00E94670B85
:10406000B8010E94AA0B882309F465C487E18093F4
:1040700037018981882309F45EC4E090EF0220E3D0
:10408000E29E70011124670188EBC81A8FEBD80AF1
:1040900035E5A32E31E0B32E98E8E91A9FEBF90A33
:1040A000D5016C91C6010E94380DF5016181B2E025
:1040B000AB0EB11CC60101960E94380DE2E0CE0E97
:1040C000D11CCE14DF0461F736C481E08093370140
:1040D000809309011092F0020E9474192CC420915F
:1040E0000901283109F47EC1C0F4243009F426C145
:1040F00040F4223009F460C008F002C12130B9F167
:104100001AC4263009F44EC108F433C1263109F42B
:104110004DC1273109F456C10EC4253509F470C3C9
:1041200078F42F3109F4B1C120F4293109F467C1C1
:1041300002C4203209F4D2C22D3309F4DEC2FBC31B
:104140002B3509F49EC320F42A3509F482C3F3C346
:104150002C3509F4DDC3233609F0EDC385E08093E7
:1041600039010E94741981E080930901E4C38AE552
:1041700091E00E94670BBC018EED92E00E944C28FA
:104180008091DA029091DB02A091DC02B091DD0215
:104190004497A105B10564F48FE491E00E94670B98
:1041A000BC018EED92E00E94C509882309F4C3C3C7
:1041B00082E080930901BFC360E080E02FAB0E94E2
:1041C000C61887E992E00E94C41861E080E00E946E
:1041D000C6181092DA038091EF0229E0F22EF89EC1
:1041E000C0011124865C9E4F0E94C418E091EF022A
:1041F000FE9EF0011124E65CFE4FDF010D900020D1
:10420000E9F78E2F8A1B845F0E949B0B83E20E943A
:104210003C19E090EF021A821982F0E3EF9E7001E0
:104220001124670180E7C80ED11C90EAE90EF11C49
:10423000A12CB12C2FA9C6012FAB0E940426898383
:10424000C60101960E9404268A8389819A81A80E5C
:10425000B91EA2E0CA0ED11C2FA9CE14DF0459F753
:10426000BF92AF9288EA92E09F938F931F930F9330
:104270002FAB0E945328C8010E94C4188091EF03FD
:104280000F900F900F900F900F900F902FA98130EB
:1042900051F48091EF02811101C021E02093EF02DF
:1042A000822F0E94420B8091EF03823061F4809153
:1042B000EF0290E00197181619060CF080E0809349
:1042C000EF020E94420B8091EF03853071F49091D0
:1042D0003901943051F4809339010E94741983E0BC
:1042E00080930901E7E3F1E003C00E94D50923C3ED
:1042F0001292B1E0E632FB07D9F7109221011BC3FD
:104300008EE391E00E94670BB8010E94AA0B8823FC
:1043100009F411C30E9474198981882359F086E138
:1043200080930901E7E3F1E0129221E0E632F2071F
:10433000D9F7E3CF84E080930901FDC28FE291E0D9
:104340000E94670BB8010E94AA0B882309F4F3C2EC
:104350000E9474198981882341F08FE180930901BB
:104360008091EF020E94AC09E6C285E080930901CA
:10437000E2C288E291E00E94670BB8010E94AA0B9A
:10438000882309F4D8C20E9474198981882331F0E6
:1043900081E0809337018093F002CDC286E0809364
:1043A0000901C9C283E680930901C5C261E0809119
:1043B000EF020E94FE0C882309F4BDC287E18093BE
:1043C0000901B9C28091EF020E949A0A882331F054
:1043D00088E1809309011092C505ADC283E0809306
:1043E0000901A9C28091EF020E94DC1A882309F416
:1043F000A2C289E1809309011092C5059CC2F09088
:10440000EF022091C505822F90E04AE0BE016F5C6B
:104410007F4F01960E94C7258DE0EEEAF1E0DE01B4
:10442000929601900D928A95E1F718AA1FA6BE01F7
:104430006F5C7F4FCE0182960E94412861E872E056
:10444000CE0182960E94412819821A821B821C8208
:104450008DE0D1011D928A95E9F76091C5058F2DF8
:104460000E94090EBC01C8010E944C2827E145ECBE
:1044700055E0B801CE0182960E9479198111C3C21C
:104480008981882309F4BFC256C2C0900001D09030
:104490000101E0900201F09003016091DA02709155
:1044A000DB028091DC029091DD02A30192010E9467
:1044B0001A264B015C01C701B601A30192010E94BB
:1044C0001A2686169706A806B90609F0E1C0B1E0DB
:1044D000CB1AD108E108F108C0920001D092010185
:1044E000E0920201F092030160E080E00E94C618B1
:1044F00088EA90E00E94670B0E94C41861E080E0A7
:104500000E94C61860910001709101018091020122
:104510009091030120E831E541E050E00E941A2625
:1045200057FF26C08DE22FAB3CAB4DAB5EAB0E947C
:104530003C192FA93CA94DA95EA9509540953095ED
:1045400021953F4F4F4F5F4F19A2FE01B1967F015A
:10455000CA01B901A30192010E944C26605DD701F6
:104560006E937D01211531054105510589F713C071
:1045700019A2FE01B1967F01CA01B901A3019201FE
:104580000E944C26605DD7016E937D012115310597
:104590004105510589F7C7010E94B2188DEA92E0E2
:1045A0000E94C41860910001709101018091020184
:1045B0009091030120E13EE040E050E00E941A2685
:1045C000CA01B90128E130E040E050E00E941A261B
:1045D0009F938F937F936F9390EBE92E92E0F92E48
:1045E000FF92EF921F930F930E945328C8010E94DD
:1045F000C41881E892E00E94C41860910001709193
:10460000010180910201909103012CE330E040E030
:1046100050E00E941A26CA01B9012CE330E040E0C4
:1046200050E00E941A269F938F937F936F93FF927F
:10463000EF921F930F930E945328C8010E94C41841
:1046400081E892E00E94C41860910001709101011C
:1046500080910201909103012CE330E040E050E0B2
:104660000E941A269F938F937F936F93FF92EF92EE
:104670001F930F930E945328C8010E94C41883E718
:1046800092E00E94C4180FB6F894DEBF0FBECDBFF3
:104690008091000190910101A0910201B09103016C
:1046A000181619061A061B065CF080E280930901B1
:1046B00085E091E00E9447198091EF020E94810EEF
:1046C0008091EF03853009F036C180913901833044
:1046D00009F031C183E6809309012DC187E191E0A2
:1046E0000E94670B65EB72E00E94C509882309F4FC
:1046F00022C181E0809309011EC186E091E00E9401
:10470000670BBC018EED92E00E944C288CEF90E08C
:104710000E94670B28EC44E051E0BC018EED92E072
:104720000E947919882351F083E6809309016091F2
:10473000040181E090E00E940C26FDC08091EF030F
:10474000853009F4F8C0D0900401ED2CF12C61E023
:104750008BE00E94D610E114F10429F460E08BE0B4
:104760000E949510E8C0FFEFEF16F10429F461E014
:104770008BE00E949510DFC0E2ECF0E0E491E330C2
:10478000F9F048F4E130B9F0E230A1F584B5806287
:1047900084BDD8BCD0C0E730E9F0E83019F1E4308E
:1047A00049F580918000806280938000F0928B00B8
:1047B000E0928A00C0C084B5806884BDD7BCBBC00D
:1047C00080918000806880938000F0928900E09260
:1047D0008800B1C08091B00080688093B000D09212
:1047E000B300A9C08091B00080628093B000D092E5
:1047F000B400A1C020E8E216F1040CF0B8CFAECFAF
:1048000080E00E94E90D882331F08AE58093090158
:104810001092EF0290C081E00E94E90D882339F0E8
:104820008AE58093090181E08093EF0284C082E0F1
:104830000E94E90D882339F08AE58093090182E01E
:104840008093EF0278C01092EF0281E0809309011B
:1048500072C06091EF0289E0689FB0011124DB0112
:10486000A65CBE4F7D018BEE90E00E94670BB70106
:104870000E94C509882309F45EC08BE58093090175
:104880005AC08CED90E00E94670BB8010E94AA0B01
:10489000882309F450C089818823B1F1E090EF02A8
:1048A000B0E3EB9E700111244701E8EB8E1AEFEBA9
:1048B0009E0A85E5C82E81E0D82EF8E8EF1AFFEBB6
:1048C000FF0AC4010E94830DA82EB12CD601AD921F
:1048D000BC92C40101960E94830DB82AF601A192F0
:1048E000B1926F01F2E08F0E911C8E149F0449F774
:1048F0008091EF020E94B50E8091EF020E94670D39
:1049000085E58093090117C08CE58093090113C0E8
:104910008BEC90E00E94670BB8010E94AA0B8823E1
:1049200051F085E5809309018981882321F08091E8
:10493000EF020E94670D0E94E9182FB7F89460916A
:10494000D6027091D7028091D8029091D9022FBFE0
:10495000C090DA02D090DB02E090DC02F090DD0241
:1049600024E630E040E050E00E944C26CA01B90144
:1049700024E630E040E050E00E944C264B015C0110
:10498000C701B60124E630E040E050E00E941A265C
:1049900086169706A806B90661F1C701B6016F5FD2
:1049A0007F4F8F4F9F4F6093DA027093DB028093AB
:1049B000DC029093DD022091DA03F090750422234B
:1049C00079F025E030E040E050E00E941A2620FD1A
:1049D00007C08F2D8260809375046F2D6A6005C0BB
:1049E0006F2D6D7F60937504686087E694E00E9488
:1049F0003A1280E090E0892B11F40C94A11C0E94E3
:104A000000000C949A1C85E0809339010E9474196F
:104A100070CE8CEF93E00E9476098AE794E00E94C2
:104A20009809F894A89584B7877F84BFE0E6F0E002
:104A30008081886180831082789460E470E08FE2E6
:104A400095E00E946C0960E470E08FE695E00C94BC
:104A50006C09CF93DF93E0EFF3E01382128288EECC
:104A600093E0A0E0B0E084839583A683B7838AECCB
:104A700091E0918380831092B0051092AF05E1EB35
:104A8000F5E0108281818078806881831092B3057F
:104A90001092B4051092B5051092B60580E89EEE0E
:104AA000A6E3B0E08093B7059093B805A093B9054D
:104AB000B093BA051092C3051092C405C7E6D4E0BE
:104AC0001B821A8288E492E09983888382E08C8337
:104AD00088E08D838BE08E8389E08F8384E08987F3
:104AE00085E08A8786E08B8787E088878C8761E00E
:104AF00088E00E94D61061E08E810E94D61061E0AD
:104B00008F810E94D61088E28D87CE010E94481ABC
:104B1000EAE7F4E084E392E0918380838AE0828391
:104B20008FE794E09483838384EF91E09093FD0377
:104B30008093FC038CEF93E0DF91CF910C94D7022C
:104B4000FC0188279927E89421912032E9F3293044
:104B500010F02E30C8F32B3241F02D3239F4689426
:104B600004C00E94D225820F911D219120532A302A
:104B7000C0F31EF4909581959F4F0895FC01059018
:104B80000020E9F7809590958E0F9F1F0895BB2711
:104B90004A3031F4992322F4BDE2909581959F4FDC
:104BA0000C94DB257AE0979F902D879F802D910DA7
:104BB00011240895BB27FB015527AA27880F991FA9
:104BC000AA1FA41710F0A41B83955051B9F7A05D3C
:104BD000AA3308F0A95DA193009779F7B111B193B9
:104BE0001192CB010C94F425DC01FC01672F71912B
:104BF0007723E1F7329704C07C916D9370836291C3
:104C0000AE17BF07C8F30895F999FECF92BD81BDD5
:104C1000F89A992780B50895262FF999FECF1FBAE3
:104C200092BD81BD20BD0FB6F894FA9AF99A0FBED5
:104C300001960895052E97FB1EF400940E943126DC
:104C400057FD07D00E944C2607FC03D04EF40C946D
:104C5000312650954095309521953F4F4F4F5F4FEE
:104C6000089590958095709561957F4F8F4F9F4FD8
:104C700008950E946E26A59F900DB49F900DA49F4D
:104C8000800D911D11240895B7FF0C9439260E94C0
:104C90003926821B930B0895A1E21A2EAA1BBB1B77
:104CA000FD010DC0AA1FBB1FEE1FFF1FA217B307F8
:104CB000E407F50720F0A21BB30BE40BF50B661F0E
:104CC000771F881F991F1A9469F7609570958095D2
:104CD00090959B01AC01BD01CF010895A29FB00149
:104CE000B39FC001A39F700D811D1124911DB29F20
:104CF000700D811D1124911D089597FB072E16F448
:104D0000009407D077FD09D00E94DE2607FC05D06D
:104D10003EF4909581959F4F0895709561957F4FD2
:104D20000895EE0FFF1F0590F491E02D0994692777
:104D30009627692778278727782708950F930830C3
:104D400090F0982F872F762F652F542F432F322FD7
:104D500022270850F4CF220F331F441F551F661F10
:104D6000771F881F991F0A95B2F70F91089597FB37
:104D700010F8169400080F93083098F00850232F6D
:104D8000342F452F562F672F782F892F902DF4CF52
:104D90000594979587957795679557954795379596
:104DA00027950A95AAF70F9108952A0D3B1D4C1DD2
:104DB0005D1D6E1D7F1D801F911F0895AA1BBB1BCB
:104DC00051E107C0AA1FBB1FA617B70710F0A61B0B
:104DD000B70B881F991F5A95A9F780959095BC012C
:104DE000CD010895CF93DF938230910510F482E0D6
:104DF00090E0E091C805F091C90520E030E0C0E006
:104E0000D0E0309711F14081518148175907C0F027
:104E10004817590761F482819381209719F09B8389
:104E20008A832BC09093C9058093C80526C021159D
:104E3000310519F04217530718F49A01BE01DF013A
:104E4000EF010280F381E02DDCCF2115310509F15E
:104E5000281B390B2430310590F412968D919C91CA
:104E600013976115710521F0FB019383828304C0C0
:104E70009093C9058093C805FD01329644C0FD0199
:104E8000E20FF31F81939193225031092D933C93AC
:104E90003AC02091C6053091C705232B41F42091DB
:104EA0008701309188013093C7052093C605209172
:104EB0008501309186012115310541F42DB73EB7AA
:104EC0004091890150918A01241B350BE091C60560
:104ED000F091C705E217F307A0F42E1B3F0B28172C
:104EE000390778F0AC014E5F5F4F2417350748F063
:104EF0004E0F5F1F5093C7054093C6058193919352
:104F000002C0E0E0F0E0CF01DF91CF9108950F9370
:104F10001F93CF93DF93009709F48CC0FC01329765
:104F2000138212820091C8051091C905011511055F
:104F300081F420813181820F931F2091C605309129
:104F4000C7052817390779F5F093C705E093C6051B
:104F500071C0D80140E050E0AE17BF0750F4129680
:104F60002D913C911397AD012115310509F1D9011E
:104F7000F3CF9D01DA013383228360817181860F33
:104F8000971F8217930769F4EC0128813981260F56
:104F9000371F2E5F3F4F318320838A819B8193830C
:104FA0008283452B29F4F093C905E093C80542C0DC
:104FB0001396FC93EE931297ED01499159919E013E
:104FC000240F351FE217F30771F480819181840F5C
:104FD000951F029611969C938E93828193811396CE
:104FE0009C938E931297E0E0F0E0D80112968D9199
:104FF0009C911397009719F0F8018C01F6CF8D91D1
:105000009C9198012E5F3F4F820F931F2091C60500
:105010003091C7052817390769F4309729F41092A1
:10502000C9051092C80502C0138212821093C705E9
:105030000093C605DF91CF911F910F91089581E0F4
:1050400090E0F8940C942B2BFB01DC0104C08D91B3
:105050000190801921F441505040C8F7881B990BEA
:105060000895FB01DC0102C001900D9241505040B7
:10507000D8F70895DC0101C06D9341505040E0F72E
:105080000895FB01DC010D900020E9F711970190D4
:105090000D920020E1F70895FB01DC0101900D92D3
:1050A0000020E1F70895AEE0B0E0E9E5F8E20C9405
:1050B000022B0D891E8986E08C831A8309838FEF6A
:1050C0009FE79E838D83AE01475E5F4F6F89788D2A
:1050D000CE0101960E9476282F813885F801E20FD3
:1050E000F31F10822E96E4E00C941E2BACE0B0E08F
:1050F000ECE7F8E20C94F42A7C016B018A01FC01D4
:1051000017821682838181FFBDC1CE0101964C01B9
:10511000F7019381F60193FD859193FF81916F01D2
:10512000882309F4ABC1853239F493FD859193FF4F
:1051300081916F01853229F4B70190E00E945E2AC7
:10514000E7CF512C312C20E02032A0F48B3269F0D3
:1051500030F4803259F0833269F420612CC08D32F2
:1051600039F0803339F4216026C02260246023C0E6
:10517000286021C027FD27C030ED380F3A3078F481
:1051800026FF06C0FAE05F9E300D1124532E13C097
:105190008AE0389E300D1124332E20620CC08E32EE
:1051A00021F426FD6BC1206406C08C3611F4206802
:1051B00002C0883641F4F60193FD859193FF8191F9
:1051C0006F018111C1CF982F9F7D9554933028F4A2
:1051D0000C5F1F4FFFE3F9830DC0833631F0833737
:1051E00071F0833509F05BC022C0F80180818983AA
:1051F0000E5F1F4F44244394512C540115C03801B5
:10520000F2E06F0E711CF801A080B18026FF03C090
:10521000652D70E002C06FEF7FEFC5012C870E9403
:10522000532A2C0183012C852F77222E17C0380199
:10523000F2E06F0E711CF801A080B18026FF03C060
:10524000652D70E002C06FEF7FEFC5012C870E94D3
:10525000482A2C012C852068222E830123FC1BC0A8
:10526000832D90E048165906B0F4B70180E290E033
:105270000E945E2A3A94F4CFF50127FC859127FE1F
:1052800081915F01B70190E00E945E2A31103A944B
:10529000F1E04F1A51084114510471F7E5C084360A
:1052A00011F0893639F5F80127FF07C06081718157
:1052B000828193810C5F1F4F08C060817181072E2E
:1052C000000C880B990B0E5F1F4F2F76722E97FFE5
:1052D00009C090958095709561957F4F8F4F9F4F36
:1052E0002068722E2AE030E0A4010E94962AA82E9F
:1052F000A81844C0853729F42F7EB22E2AE030E06A
:1053000025C0F22FF97FBF2E8F36C1F018F48835F3
:1053100079F0B4C0803719F0883721F0AFC02F2F53
:105320002061B22EB4FE0DC08B2D8460B82E09C052
:1053300024FF0AC09F2F9660B92E06C028E030E0F7
:1053400005C020E130E002C020E132E0F801B7FE04
:1053500007C060817181828193810C5F1F4F06C0FD
:105360006081718180E090E00E5F1F4FA4010E9478
:10537000962AA82EA818FB2DFF777F2E76FE0BC04D
:10538000372D3E7FA51450F474FE0AC072FC08C08D
:10539000372D3E7E05C0BA2C372D03C0BA2C01C074
:1053A000B52C34FF0DC0FE01EA0DF11D8081803364
:1053B00011F4397E09C032FF06C0B394B39404C01F
:1053C000832F867809F0B39433FD13C030FF06C0F5
:1053D0005A2CB31418F4530C5B18B32CB31468F4A0
:1053E000B70180E290E03C870E945E2AB3943C853E
:1053F000F5CFB31410F43B1801C0312C34FF12C0A8
:10540000B70180E390E03C870E945E2A3C8532FF32
:1054100017C031FD03C088E790E002C088E590E046
:10542000B7010CC0832F867859F031FF02C08BE2A0
:1054300001C080E237FD8DE2B70190E00E945E2A54
:10544000A51438F4B70180E390E00E945E2A5A94D4
:10545000F7CFAA94F401EA0DF11D8081B70190E025
:105460000E945E2AA110F5CF332009F451CEB70176
:1054700080E290E00E945E2A3A94F6CFF70186819E
:10548000978102C08FEF9FEF2C96E2E10C94102BD6
:10549000FC010590615070400110D8F780959095FF
:1054A0008E0F9F1F0895FC01615070400190011004
:1054B000D8F7809590958E0F9F1F08950F931F9397
:1054C000CF93DF93FB01238121FD03C08FEF9FEF7B
:1054D00028C022FF16C0468157812481358142179A
:1054E000530744F4A081B1819D012F5F3F4F318369
:1054F00020838C93268137812F5F3F4F378326830C
:1055000010C0EB01092F182F0084F185E02D0995BB
:10551000892BE1F68E819F8101969F838E83812F57
:10552000902FDF91CF911F910F910895FA01AA2733
:10553000283051F1203181F1E8946F936E7F6E5FD6
:105540007F4F8F4F9F4FAF4FB1E03ED0B4E03CD084
:10555000670F781F891F9A1FA11D680F791F8A1F67
:10556000911DA11D6A0F711D811D911DA11D20D0CE
:1055700009F468943F912AE0269F11243019305D88
:105580003193DEF6CF010895462F4770405D419379
:10559000B3E00FD0C9F7F6CF462F4F70405D4A33C6
:1055A00018F0495D31FD4052419302D0A9F7EACF8E
:1055B000B4E0A6959795879577956795BA95C9F7BD
:1055C00000976105710508959B01AC010A2E0694B0
:1055D0005795479537952795BA95C9F7620F731F69
:1055E000841F951FA01D08952F923F924F925F92A6
:1055F0006F927F928F929F92AF92BF92CF92DF92E3
:10560000EF92FF920F931F93CF93DF93CDB7DEB747
:10561000CA1BDB0B0FB6F894DEBF0FBECDBF0994DB
:105620002A88398848885F846E847D848C849B8432
:10563000AA84B984C884DF80EE80FD800C811B8140
:10564000AA81B981CE0FD11D0FB6F894DEBF0FBE6F
:10565000CDBFED01089512E0CCEAD2E004C0FE0116
:105660000E9491262196CD3AD107C9F7F894FFCF31
:1056700000A7760037313233000109000001000035
:10568000000000000000000000000000000000001A
:105690000000000101010000000000000000000007
:1056A00000000000000000010105414C504841008D
:1056B00000000042455441000000000047414D4DAC
:1056C0004100000000FFFFFFFFFFFFFFFFFFFFFFA4
:1056D000FFFFFFFFFFFFFFFFFFFFFFFFFFFFFFFFDA
:1056E000FFFFFFFFFFFFFFFFFFFFFFFFFFFFFFFFCA
:1056F000FFFFFFFFFF0000CA0580004E616D6520BF
:1057000000000044656C617920666F722000000023
:105710000000000000576F72642000000000446524
:10572000736372697074696F6E2000000000001B63
:10573000362D6C775A41000000002610F60F5610E7
:10574000CA0FEE0FDA0FCB0F0000000000000000C0
:105750005910591059105910591059105910591001
:1057600000000000760980092A032703D7023C07BE
:10577000AA075B1086180718000000000000000050
:1057800059105910591059105910591000000000A3
:1057900000000000790659105910F405E7048A0941
:1057A000000000009809A20979067C067F06F4052E
:1057B000E7048A09000000002E121F0F5610551032
:1057C000576F72647320666F722000000000000043
:1057D00000466F726D6174696E672E2E2E00464111
:1057E000494C212000536176653F00536176656422
:1057F000003A0053657474696E67005361766520E2
:10580000776F7264733F0053656C656374207365D2
:105810006564206E616D6500253034780044200099
:105820002530326400746F203132330050494E20ED
:10583000666F7220006973204F4B006973205752C6
:045840004F4E470080
:107E0000112484B714BE81FFF0D085E080938100F7
:107E100082E08093C00088E18093C10086E0809377
:107E2000C20080E18093C4008EE0C9D0259A86E02C
:107E300020E33CEF91E0309385002093840096BBD3
:107E4000B09BFECF1D9AA8958150A9F7CC24DD24C4
:107E500088248394B5E0AB2EA1E19A2EF3E0BF2EE7
:107E6000A2D0813461F49FD0082FAFD0023811F036
:107E7000013811F484E001C083E08DD089C08234E0
:107E800011F484E103C0853419F485E0A6D080C0E4
:107E9000853579F488D0E82EFF2485D0082F10E0AE
:107EA000102F00270E291F29000F111F8ED06801E7
:107EB0006FC0863521F484E090D080E0DECF843638
:107EC00009F040C070D06FD0082F6DD080E0C81688
:107ED00080E7D80618F4F601B7BEE895C0E0D1E017
:107EE00062D089930C17E1F7F0E0CF16F0E7DF06D8
:107EF00018F0F601B7BEE89568D007B600FCFDCFD4
:107F0000A601A0E0B1E02C9130E011968C91119780
:107F100090E0982F8827822B932B1296FA010C0160
:107F200087BEE89511244E5F5F4FF1E0A038BF0790
:107F300051F7F601A7BEE89507B600FCFDCF97BE46
:107F4000E89526C08437B1F42ED02DD0F82E2BD052
:107F50003CD0F601EF2C8F010F5F1F4F84911BD097
:107F6000EA94F801C1F70894C11CD11CFA94CF0C13
:107F7000D11C0EC0853739F428D08EE10CD085E9AC
:107F80000AD08FE07ACF813511F488E018D01DD067
:107F900080E101D065CF982F8091C00085FFFCCF94
:107FA0009093C60008958091C00087FFFCCF809118
:107FB000C00084FD01C0A8958091C6000895E0E648
:107FC000F0E098E1908380830895EDDF803219F02E
:107FD00088E0F5DFFFCF84E1DECF1F93182FE3DFCA
:107FE0001150E9F7F2DF1F91089580E0E8DFEE27F6
:047FF000FF270994CA
:027FFE00040479
:0400000300007E007B
:00000001FF
