:100000000C94FD010C9425020C9425020C942502FD
:100010000C9425020C9425020C9436060C942502AF
:100020000C9425020C9425020C9425020C942502B4
:100030000C9425020C9425020C9425020C942502A4
:100040000C94EA150C9425020C9425020C942502BC
:100050000C9425020C9425020C9425020C94250284
:100060000C94A9160C942502EA1BF51BFF1B0F1C10
:10007000591C261C661CC51C951C051D331D941D92
:10008000AD1DE31D5D1E941EAB1E5D1F731F8A1FF9
:100090000001020408102040801B36637C777BF24D
:1000A0006B6FC53001672BFED7AB76CA82C97DFA6C
:1000B0005947F0ADD4A2AF9CA472C0B7FD932636C9
:1000C0003FF7CC34A5E5F171D8311504C723C31827
:1000D00096059A071280E2EB27B27509832C1A1B4A
:1000E0006E5AA0523BD6B329E32F8453D100ED20A2
:1000F000FCB15B6ACBBE394A4C58CFD0EFAAFB4368
:100100004D338545F9027F503C9FA851A3408F9203
:100110009D38F5BCB6DA2110FFF3D2CD0C13EC5F9D
:10012000974417C4A77E3D645D197360814FDC223C
:100130002A908846EEB814DE5E0BDBE0323A0A49BC
:1001400006245CC2D3AC629195E479E7C8376D8D23
:10015000D54EA96C56F4EA657AAE08BA78252E1CFD
:10016000A6B4C6E8DD741F4BBD8B8A703EB56648E9
:1001700003F60E613557B986C11D9EE1F8981169E5
:10018000D98E949B1E87E9CE5528DF8CA1890DBF9F
:10019000E6426841992D0FB054BB1652096AD5301A
:1001A00036A538BF40A39E81F3D7FB7CE339829B01
:1001B0002FFF87348E4344C4DEE9CB547B9432A6B0
:1001C000C2233DEE4C950B42FAC34E082EA1662881
:1001D000D924B2765BA2496D8BD12572F8F664867C
:1001E000689816D4A45CCC5D65B6926C704850FDDE
:1001F000EDB9DA5E154657A78D9D8490D8AB008C7B
:10020000BCD30AF7E45805B8B34506D02C1E8FCAF4
:100210003F0F02C1AFBD0301138A6B3A9111414FE9
:1002200067DCEA97F2CFCEF0B4E67396AC7422E7BF
:10023000AD3585E2F937E81C75DF6E47F11A711D9F
:1002400029C5896FB7620EAA18BE1BFC563E4BC665
:10025000D279209ADBC0FE78CD5AF41FDDA833880E
:1002600007C731B11210592780EC5F60517FA9197F
:10027000B54A0D2DE57A9F93C99CEFA0E03B4DAEAA
:100280002AF5B0C8EBBB3C83539961172B047EBAA7
:1002900077D626E169146355210C7D982F8A429107
:1002A000443771CFFBC0B5A5DBB5E95BC25639F168
:1002B00011F159A4823F92D55E1CAB98AA07D801D0
:1002C0005B8312BE853124C37D0C55745DBE72FE06
:1002D000B1DE80A706DC9B74F19BC1C1699BE486FB
:1002E00047BEEFC69DC10FCCA10C246F2CE92DAAEF
:1002F00084744ADCA9B05CDA88F97652513E986D74
:10030000C631A8C82703B0C77F59BFF30BE0C64763
:1003100091A7D55163CA0667292914850AB72738DA
:10032000211B2EFC6D2C4D130D385354730A65BBE5
:100330000A6A762EC9C281852C7292A1E8BFA24BAF
:10034000661AA8708B4BC2A3516CC719E892D124CE
:100350000699D685350EF470A06A1016C1A4190846
:100360006C371E4C774827B5BCB034B30C1C394AE7
:10037000AAD84E4FCA9C5BF36F2E68EE828F746FC3
:1003800063A5781478C8840802C78CFAFFBE90EB86
:100390006C50A4F7A3F9BEF27871C60000000024E7
:1003A0000027002A0000000000250028002B000084
:1003B00000000023002600290004040404040404AF
:1003C0000402020202020203030303030301020404
:1003D00008102040800102040810200102040810C7
:1003E00020000000080002010000030407000000D4
:1003F0000000000000006423442311241FBECFEF3F
:10040000D8E0DEBFCDBF26E0A2ECB3E001C01D9274
:10041000A639B207E1F713E0A0E0B1E0E8E6F4E5C1
:1004200002C005900D92A23CB107D9F711E0CCEFC4
:10043000D1E004C02197FE010E94F224CB3FD107F6
:10044000C9F70E94881A0C94272A0C9400002F9256
:100450003F924F925F926F927F928F929F92AF9254
:10046000BF92CF92DF92EF92FF920F931F93CF93A1
:10047000DF9300D0CDB7DEB78C01FB0140818181D5
:1004800092815381642E712C9301220F331F7BE1E3
:10049000272E239E302C11243226A82FB0E09D0158
:1004A000220F331F239EB02C1124B226492E512C2B
:1004B0009201220F331F239E902C11249226652F28
:1004C00070E09B01220F331F239E202C1124222633
:1004D0009301220F331F220F331F3A8329836D01AB
:1004E000CC0CDD1CCC0CDD1CED2CFF24F701E25400
:1004F000FE4F80808C246201CC0CDD1CCC0CDD1CFA
:10050000ED2CFF24970122543E4FF901A080AC242A
:100510006B01CC0CDD1CCC0CDD1CED2CFF249701F9
:1005200022543E4FF901D080DC247301E3E0EE0C4D
:10053000FF1CEA95E1F72F2D332722543E4FF90196
:100540002081E2263D01A3E0660C771CAA95E1F725
:10055000A72DBB27A254BE4FAC91A62523E0440C87
:10056000551C2A95E1F7E52DFF27E254FE4FE08167
:100570004E26E3E0660F771FEA95E1F7E72FFF27A6
:10058000E254FE4FE0816E2729813A81632E772461
:10059000F301E254FE4F3081298123272E25392F84
:1005A000382735273A253A273425362733253B2562
:1005B0003227F8013083392F3427352738253D2558
:1005C0003E253A2734253627B326B924B182482759
:1005D0005427A526AA26A424A6269A2492242925AF
:1005E00022839427C92EC824CD24EC24AE254A2684
:1005F00064256325262F222523830F900F90DF91FA
:10060000CF911F910F91FF90EF90DF90CF90BF900F
:10061000AF909F908F907F906F905F904F903F90A2
:100620002F9008950F931F93CF93DF93FC01DB016D
:100630001C9111960C91119712967C91129713961A
:10064000BC91812F90E0880F991FCBE1C99F602D4D
:1006500011246827402F50E0440F551FC59F802D5F
:1006600011244827272F30E0220F331FC39F802DEE
:10067000112428278B2F90E0880F991FC99FC02D28
:1006800011248C27972F90279B27962794279083B8
:10069000972F91279B27492742274183A12FA027E6
:1006A000BA272B27282722837A2776278727838331
:1006B000DF91CF911F910F910895CF93DF93DC01CC
:1006C000EB01E881F0E0E556FE4FE491EC93ED8517
:1006D000F0E0E556FE4FE4911196EC931197EA8510
:1006E000F0E0E556FE4FE4911296EC931297EF81FD
:1006F000F0E0E556FE4FE4911396EC931397EC81EE
:10070000F0E0E556FE4FE4911496EC931497E981DE
:10071000F0E0E556FE4FE4911596EC931597EE85C3
:10072000F0E0E556FE4FE4911696EC931697EB85B4
:10073000F0E0E556FE4FE4911796EC931797E885A5
:10074000F0E0E556FE4FE4911896EC931897ED8192
:10075000F0E0E556FE4FE4911996EC931997EA8183
:10076000F0E0E556FE4FE4911A96EC931A97EF8568
:10077000F0E0E556FE4FE4911B96EC931B97EC8559
:10078000F0E0E556FE4FE4911C96EC931C97E9854A
:10079000F0E0E556FE4FE4911D96EC931D97EE8137
:1007A000F0E0E556FE4FE4911E96EC931E97EB8128
:1007B000F0E0E556FE4FE4911F96EC93DF91CF9168
:1007C00008958F929F92AF92BF92CF92DF92EF9255
:1007D000FF920F931F93CF93DF93CDB7DEB7A09710
:1007E0000FB6F894DEBF0FBECDBF4C015B01FC011C
:1007F0008281E380F480F0E18F9FE00CF11C1124F2
:10080000BA0197016E0181E1C80ED11CD60190E1B9
:100810009C0DFB018191BF01F90141919F0184274A
:100820008D939A13F6CFB6018E010F5F1F4FC8014B
:100830000E945D03F401928080E1882E800ED70132
:100840005097F1E0F91538F57D01F8018D9190810F
:10085000892781938E12FACFB801C6010E94270220
:10086000BE016B5F7F4FCE0145960E942702BE01FD
:10087000675F7F4FCE0149960E942702BE01635FEA
:100880007F4FCE014D960E942702B601C8010E94FB
:100890005D039A94D4CFC501F80121918F013D9158
:1008A0002327FC012193CF01AE15BF05A9F7A09620
:1008B0000FB6F894DEBF0FBECDBFDF91CF911F9171
:1008C0000F91FF90EF90DF90CF90BF90AF909F90EF
:1008D0008F900895CF93DF93DC01EB01E881F0E086
:1008E000E556FF4FE491EC93ED81F0E0E556FF4FC4
:1008F000E4911196EC931197EA85F0E0E556FF4FED
:10090000E4911296EC931297EF85F0E0E556FF4FD5
:10091000E4911396EC931397EC81F0E0E556FF4FCA
:10092000E4911496EC931497E985F0E0E556FF4FB7
:10093000E4911596EC931597EE85F0E0E556FF4FA0
:10094000E4911696EC931697EB81F0E0E556FF4F95
:10095000E4911796EC931797E885F0E0E556FF4F82
:10096000E4911896EC931897ED85F0E0E556FF4F6B
:10097000E4911996EC931997EA81F0E0E556FF4F60
:10098000E4911A96EC931A97EF81F0E0E556FF4F49
:10099000E4911B96EC931B97EC85F0E0E556FF4F36
:1009A000E4911C96EC931C97E981F0E0E556FF4F2B
:1009B000E4911D96EC931D97EE81F0E0E556FF4F14
:1009C000E4911E96EC931E97EB85F0E0E556FF4F01
:1009D000E4911F96EC93DF91CF910895AF92BF926F
:1009E000CF92DF92EF92FF920F931F93CF93DF93FB
:1009F000CDB7DEB7A0970FB6F894DEBF0FBECDBF60
:100A00009C01B62EC72EDC0113960D911C911497F4
:100A1000BA01A8017E01B1E1EB0EF11CD70180E122
:100A2000A82EAE0CFB019191BF01FA018191AF019B
:100A300098279D93AA12F6CF005F1F4FD9011296F7
:100A4000DC90B1E0B701CE010196BD1548F50E94DA
:100A50006A04BE016F5F7F4FC7010E941203BE018F
:100A60006B5F7F4FCE0145960E941203BE01675F08
:100A70007F4FCE0149960E941203BE01635F7F4FF4
:100A8000CE014D960E941203D801F7018D919081FD
:100A900089278193AE12FACF005F1F4FDA94D1CF2E
:100AA0000E946A048B2D9C2DFE01319630E13E0F91
:100AB0002191D8014D918D012427DC012D93CD0189
:100AC0003E13F6CFA0960FB6F894DEBF0FBECDBF93
:100AD000DF91CF911F910F91FF90EF90DF90CF901A
:100AE000BF90AF90089580E190E0089580E190E09C
:100AF00008952F923F925F926F927F928F929F9272
:100B0000AF92BF92CF92DF92EF92FF920F931F931B
:100B1000CF93DF934031510509F095C09C012B5FC5
:100B20003F4F40E1FB01D90101900D924A95E1F759
:100B3000AC014A5E5F4FDC015796EC0168964C01B0
:100B400065EA860E911C5524539484E0782ECE01DC
:100B500006971C010196FE0134975F01BE016750A4
:100B600071096B0131967F018E01025111096A50A2
:100B70007109F4E07F123FC0F1017080E72DF0E0D1
:100B8000E556FF4F6490E52DF0E0E057FF4F74907D
:100B9000FC018081E82FF0E0E556FF4F8491FA01D7
:100BA0008083F5018081E82FF0E0E556FF4FE49166
:100BB000EC93F6018081E82FF0E0E556FF4FE491D9
:100BC000E8837624F90180817826F7017082FA01A2
:100BD0009081F80180818927FA0180839C91FB0133
:100BE000808189278C939881319680818927888399
:100BF0005394712C1BC0F601C080F901D080DC2415
:100C0000F701D082F8011081F10100811027FA016B
:100C10001083FB016081FC01808186278C93FE019B
:100C200070979081F5018081892788832C5F3F4FE1
:100C300073944C5F5F4F149624962815390509F07C
:100C400086CF81E001C080E0DF91CF911F910F91AD
:100C5000FF90EF90DF90CF90BF90AF909F908F90DC
:100C60007F906F905F903F902F9008951F920F920A
:100C70000FB60F9211242F934F935F936F937F932F
:100C80008F939F93AF93BF93209184008091EC0347
:100C90009091ED03A091EE03B091EF03820F911DAF
:100CA000A11DB11D8093EC039093ED03A093EE037F
:100CB000B093EF038091EC039091ED03A091EE03CC
:100CC000B091EF034091EC035091ED036091EE037E
:100CD0007091EF032AE0880F991FAA1FBB1F2A9566
:100CE000D1F7840F951FA61FB71F8093EC03909335
:100CF000ED03A093EE03B093EF038091EC0390918A
:100D0000ED03A091EE03B091EF034091EC035091FD
:100D1000ED036091EE037091EF0326E0B695A79581
:100D2000979587952A95D1F784279527A627B727E2
:100D30008093EC039093ED03A093EE03B093EF0345
:100D40008091EB038F5F8093EB03BF91AF919F91F5
:100D50008F917F916F915F914F912F910F900FBE67
:100D60000F901F9018958F929F92AF92BF92CF9243
:100D7000DF92EF92FF920F93CF93DF9300D0CDB726
:100D8000DEB74C017B01BA016901DC01ED91FC91F8
:100D90000680F781E02D49837A8309955C01D401AF
:100DA000ED91FC910084F185E02DC40109956981E4
:100DB0007A81AC14BD0428F0A601C7010E94642703
:100DC00024C0D401ED91FC910284F385E02DA601AD
:100DD000C4010995D401ED91FC910480F581E02DC9
:100DE000C40109956C01D401ED91FC910484F58551
:100DF000E02DAC01B701C4010995D401ED91FC913E
:100E00000084F185E02DC401099547018C0C9D1CDF
:100E1000A5014C195D09602F70E0C4010E946D2787
:100E2000F701E815F90521F0908190279193F9CF0A
:100E30000F900F90DF91CF910F91FF90EF90DF9087
:100E4000CF90BF90AF909F908F900895680F791FBB
:100E50008617970721F0FC0110820196F9CF0895BB
:100E600025E032E0FC0121933193CF0169E670E087
:100E70000C942607CF93DF93EC010E943007CE013C
:100E8000DF91CF910C94F025FC01628170E06F5FDF
:100E90007F4F84E0660F771F8A95E1F78381948105
:100EA0000C94260725E432E0FC013183208360EBBB
:100EB00070E005960C942607CF93DF93EC010E9417
:100EC0005207CE01DF91CF910C94F02590E04F9620
:100ED0000E94362480930A019AE0899FD001112450
:100EE00020E831E541E050E00E94FF2460930001DA
:100EF00070930101809302019093030108950F9371
:100F00001F93CF93DF938C01EB011092C80360E035
:100F100080E00E94EB17F801448155816081718166
:100F200084E395E00E945D0C61E080E00E94EB1795
:100F300088E993E00E94E9178091BC04853069F448
:100F400090918401913011F4988303C0943029F476
:100F500018828093840181E001C080E0DF91CF910D
:100F60001F910F9108958091BC04853021F481E098
:100F70008093380118C08091BC048530A1F065E0F1
:100F800070E080E090E00E94B0150E940E18809101
:100F9000B8049091B904099774F368EC70E080E0AC
:100FA00090E00C94B01580913801882341F064E6FC
:100FB00070E080E090E00E94B01510923801089532
:100FC0008F929F92AF92BF92CF92DF92EF92FF9259
:100FD000CF93DF9394E6892E912CA12CB12C809194
:100FE000BC04853091F161E070E080E090E00E9407
:100FF000B0152FB7F8946091C4037091C503809128
:10100000C6039091C7032FBFC090C903D090CA03F5
:10101000E090CB03F090CC03A50194010E94B12491
:10102000C216D306E406F506D0F68FEFC81AD80A22
:10103000E80AF80AC092C903D092CA03E092CB032F
:10104000F092CC030E940E18CACF80938401C8EBA3
:10105000DBE084E6882E912CA12CB12C61E070E0BD
:1010600080E090E00E94B0152FB7F8946091C4031F
:101070007091C5038091C6039091C7032FBFC090A4
:10108000C903D090CA03E090CB03F090CC03A50134
:1010900094010E94B124C216D306E406F50678F442
:1010A0008FEFC81AD80AE80AF80AC092C903D0928A
:1010B000CA03E092CB03F092CC030E940E188091F9
:1010C000BC04853039F490918401943019F48093F4
:1010D000840103C0219709F0C1CFDF91CF91FF9028
:1010E000EF90DF90CF90BF90AF909F908F9008953A
:1010F000AF92BF92CF92DF92EF92FF920F931F9326
:10110000CF93DF93CDB7DEB760970FB6F894DEBF0D
:101110000FBECDBF182F60E080E00E94EB1789EA78
:1011200093E00E94E917E12EF12C29E0129FC00103
:101130001124875C9E4F0E94E91761E080E00E94C5
:10114000EB17609142056D7F60934205686084E310
:1011500095E00E949E1686E291E00E94951880E13B
:10116000E8EAF4E0DE01119601900D928A95E1F72C
:10117000970194E0220F331F9A95E1F7690180E40B
:10118000C80ED11C48EAA42E44E0B42E7901E0E553
:10119000EE0EF11CC6010E943624F50181935F0119
:1011A000FFEFCF1ADF0ACE14DF04A1F740E150E0D1
:1011B000BE016F5F7F4F88EA94E00E945727892B1A
:1011C00029F582EB93E00E94E9170E94E0070E9454
:1011D000C21880E3189F900111247901E0E7EE0E18
:1011E000F11C84E5C82E81E0D82E890100561F4FDE
:1011F000C7010E943624F60181936F01FFEFEF1AB9
:10120000FF0AE016F106A1F781E009C088EB93E040
:101210000E94E9170E94E0070E94C21880E06096D1
:101220000FB6F894DEBF0FBECDBFDF91CF911F91F7
:101230000F91FF90EF90DF90CF90BF90AF90089507
:10124000EF92FF920F931F93CF93DF9399E0899FC3
:1012500090011124790194E0E90EF11CE901C75CC9
:10126000DE4F8901035F1F4FC7010E943624899317
:101270008FEFE81AF80AE016F106B1F7DF91CF9187
:101280001F910F91FF90EF900895CF93DF93DC01B2
:10129000EC012596FE0101900020E9F73197EC1B47
:1012A000FD0BEC9311962C911197822F90E08E0FED
:1012B000911D40971CF08FE0821B8C93DF91CF91A2
:1012C0000895CF93DF93D82FC0E0CD1731F086E992
:1012D00092E00E94E917CF5FF8CFDF91CF91089598
:1012E000EF92FF920F931F93CF93DF937C018B01BB
:1012F000EA011092C80360E080E00E94EB17C7018A
:101300000E94E91761E080E00E94EB17C8010E948B
:10131000E917F80101900020E9F7802F8E1B8F5EFE
:101320000E9461098091BC04813041F4888190E081
:101330000197181619060CF080E088838091BC0490
:10134000823041F4888190E00196873191050CF05C
:1013500087E188838091BC04853051F490918401A9
:10136000943031F4809384010E94C21881E003C05C
:101370000E94B30780E0DF91CF911F910F91FF9002
:10138000EF900895EF92FF920F931F93CF93DF9307
:101390007C018B01EA018A818823D9F181E0809365
:1013A000C80360E080E00E94EB17C7010E94E917C4
:1013B00061E080E00E94EB17C8010E94E9170091EC
:1013C000EA0361E089810E94EB178C818823A1F0F8
:1013D00010E08881181728F48AE20E948A181F5F9B
:1013E000F8CFFE01E80FF11D8581882349F0011136
:1013F0008AE20E948A1804C0CE0105960E94E9176D
:101400008EE00E9461099981888161E0890F0E94C4
:10141000EB178091E903882371F08091BA049091D1
:10142000BB04079744F01092E9031092BC04109299
:10143000BB041092BA048091BC0491E0853009F499
:1014400090E09A838130B1F5E881F0E0DE01AE0FE3
:10145000BF1F15968C9115972B8181110BC02223EC
:1014600011F080E301C081E415968C9315971696D0
:101470001C921BC0CE010596E80FF91F8081222324
:1014800051F08F5F8A330CF089E380838081803351
:1014900064F480E309C08B3514F08AE505C080321E
:1014A00014F480E201C08F5F808381E08093E903C0
:1014B0001092EA038091BC048230B1F5E881F0E03B
:1014C000DE01AE0FBF1F15968C9115972B818111F0
:1014D0000BC0222311F089E301C08AE515968C9395
:1014E000159716961C921BC0CE010596E80FF91FA2
:1014F0008081222351F081508A330CF089E380836C
:101500008081803364F480E309C08B3514F08AE570
:1015100005C0803214F480E201C08150808381E0F4
:101520008093E9031092EA038091BC04833061F454
:10153000888190E0FE01E80FF91F158201971816C7
:1015400019065CF080E009C081110AC0888190E032
:1015500001968F3091050CF08FE088831092EA039A
:101560008091BC04853061F490918401943041F401
:101570008093840181E08A830E94C21881E014C0B4
:101580008A8181110EC08091EA0381110AC0809185
:10159000BA049091BB04079724F081E08A8380937A
:1015A000EA030E94B30780E0DF91CF911F910F9172
:1015B000FF90EF900895CF93DF93CDB7DEB7649798
:1015C0000FB6F894DEBF0FBECDBFE1E2F1E0648359
:1015D000118299E0E9EAF3E0DE01119601900D92A3
:1015E0009A95E1F7FE013A969BE0DF011D929A95EC
:1015F000E9F7B9E08B9FC0011124BC01675C7E4F05
:10160000CE0101960E94742741E251E067E972E041
:10161000CE0101960E94C20964960FB6F894DEBF0F
:101620000FBECDBFDF91CF910895CF93DF93EC0133
:1016300081E08093840480E58093A6041092850461
:101640001092A7048D2F9D2F990F990B0E9485183A
:10165000CE0199270E9485180E94C71880918304A3
:101660008111FCCF81E080938304809382049FEFFB
:10167000909381041092800410927F0480935E0402
:1016800080915E04806A80935E0480915D04813065
:1016900061F410925D0480915E048093BB008091A0
:1016A000BC0083FDF8CF85EC01C085EE8093BC00C3
:1016B000809183048130E1F380918004811103C023
:1016C0008091800401C081E0AFE5B4E020EF33E019
:1016D000F9019E2F921B981718F49D919193F9CFC1
:1016E0001092C3038093C2038DEB94E00E94180D07
:1016F000DF91CF910895FF920F931F93CF93DF93C4
:10170000C82FD0E0CE57DF4F83E0CC0FDD1F8A9586
:10171000E1F7C60FD11D94E0CC0FDD1F9A95E1F7DC
:1017200008ED13E0C85DD34020E1F22EF00ECE01AB
:10173000800F911F0E94150BF80181938F01FE12FB
:10174000F6CF1092E80388ED93E0DF91CF911F91DF
:101750000F91FF9008950F931F93CF93DF9397FD01
:101760001BC0EC0183E0CC0FDD1F8A95E1F70FEC85
:1017700013E0CF5CD340CE01800F911F0E94150B68
:10178000F80181938F01F3E0073D1F07A1F7109245
:10179000D7038FEC93E002C08DEF92E0DF91CF9101
:1017A0001F910F910895EF92FF920F931F93CF9384
:1017B000DF931F92CDB7DEB77C01FC010081118160
:1017C000C80169830E9436246981681719F0C8012D
:1017D0000E943E24C7010F90DF91CF911F910F917E
:1017E000FF90EF900895CF92DF92EF92FF920F93C8
:1017F0001F93CF93DF9300D0CDB7DEB720E1829F58
:10180000C00111247C01E0E4EE0EF11C28EAC22E96
:1018100024E0D22E8C01005B1F4FF60161916F0115
:10182000FA82E982CE0101960E94D30BFFEFEF1AF4
:10183000FF0AE016F10689F70F900F90DF91CF9124
:101840001F910F91FF90EF90DF90CF900895CF926E
:10185000DF92EF92FF920F931F93CF93DF9300D00D
:10186000CDB7DEB799E0899F70011124E4E0EE0E58
:10187000F11CF9E08F9F80011124075C1E4F680165
:1018800089E0C80ED11CF80161918F01FA82E982CA
:10189000CE0101960E94D30BFFEFEF1AFF0A0C1541
:1018A0001D0589F70F900F90DF91CF911F910F9138
:1018B000FF90EF90DF90CF900895CF92DF92EF925C
:1018C000FF920F931F93CF93DF936C017A018B01EB
:1018D000C0E0D0E0CE15DF0589F0D8016D918D0113
:1018E000D601ED91FC910190F081E02DC6010995A2
:1018F000892B11F47E0102C02196ECCFC701DF9144
:10190000CF911F910F91FF90EF90DF90CF900895AE
:10191000833081F028F4813099F08230A1F008956D
:101920008730A9F08830B9F08430D1F480918000FC
:101930008F7D03C0809180008F7780938000089511
:1019400084B58F7702C084B58F7D84BD0895809162
:10195000B0008F7703C08091B0008F7D8093B0007E
:1019600008953FB7F8948091580490915904A0913C
:101970005A04B0915B0426B5A89B05C02F3F19F00F
:101980000196A11DB11D3FBFBA2FA92F982F8827FF
:10199000820F911DA11DB11DBC01CD0142E0660F5A
:1019A000771F881F991F4A95D1F7089585ED809379
:1019B000BC008091BC0084FDFCCF1092830408958C
:1019C00040913204262F30E0240F311D21323105A1
:1019D000DCF4209183042430C9F4FC0180E090E021
:1019E000861758F4309132042191DC01A05FBB4F7F
:1019F000A30FB11D2C930196F3CF80913204680F91
:101A00006093320480E0089581E0089582E00895B3
:101A10000895E091C3038091C203E81730F4F0E029
:101A2000E051FC4F808190E008958FEF9FEF089583
:101A30009091C3038091C203981750F4E92FF0E00E
:101A4000E051FC4F208130E09F5F9093C30302C0C0
:101A50002FEF3FEFC90108958091C20390E02091DC
:101A6000C303821B91090895CF92DF92EF92FF92F8
:101A70000F931F93CF93DF937C01262F972F8A011B
:101A800080918404882391F0C62FD72F6E01C40E55
:101A9000D51ECC15DD0571F06991D701ED91FC9152
:101AA0000190F081E02DC7010995F3CF642F822FBB
:101AB0000E94E00CC801DF91CF911F910F91FF9020
:101AC000EF90DF90CF900895CF93DF931F92CDB723
:101AD000DEB76983209184042223D1F02091A704EA
:101AE000203240F021E030E0FC013383228380E0AB
:101AF00090E015C080918504E82FF0E0EA57FB4F95
:101B0000998190838F5F809385048093A70405C09B
:101B100061E0CE0101960E94E00C81E090E00F9020
:101B2000DF91CF910895089580E090E008952F927D
:101B30003F924F925F926F927F928F929F92AF925D
:101B4000BF92CF92DF92EF92FF920F931F93CF93AA
:101B5000DF93CDB7DEB7CC54D1090FB6F894DEBF12
:101B60000FBECDBF2D969FAF8EAF2D971C0102E209
:101B7000200E311C8E599F4F988F8F8BF101608101
:101B80007181828193810E94F82461937193819382
:101B900091932F89388DE217F30789F72D96AEAD13
:101BA000BFAD2D9712964D915D916D917C911597DA
:101BB0004FA358A769A77AA716964D905D906D9090
:101BC0007C9019974BA65CA66DA67EA61A964D90A2
:101BD0005D906D907C901D974FA658AA69AA7AAA2D
:101BE0001E964D905D906D907C9051974BAA5CAA8B
:101BF0006DAA7EAA52964D905D906D907C905597FF
:101C00004FAA58AE69AE7AAE56964D905D906D90E3
:101C10007C9059974BAE5CAE6DAE7EAE5A964D90B1
:101C20005D906D907C905D9723964CAE5DAE6EAEF0
:101C30007FAE23975E964D905D906D907C909197CE
:101C400027964CAE5DAE6EAE7FAE27970BE912E0E5
:101C50001E8B0D8B7301620123962CAD3DAD4EADF5
:101C60005FAD23972F8F38A349A35AA34BAD5CAD2B
:101C70006DAD7EAD498B5A8B6B8B7C8B6FA978AD2C
:101C800089AD9AAD6D837E838F8398878BA99CA93C
:101C9000ADA9BEA98BA39CA3ADA3BEA34FA458A876
:101CA00069A87AA84B8E5C8E6D8E7E8E6BA47CA408
:101CB0008DA49EA469867A868B869C868FA098A424
:101CC000A9A4BAA489829A82AB82BC82ED89FE89DA
:101CD0000591159125913491D1014D905D906D90B4
:101CE0007D901D014D815E816F817885B62F672FB4
:101CF000742F452F5B2F400E511E621E731E0D81E7
:101D00001E812F81388500951095209530958F8CF8
:101D100098A0A9A0BAA0082119212A213B218988CD
:101D20009A88AB88BC888D819E81AF81B8858822D6
:101D30009922AA22BB22082519252A253B25040D14
:101D4000151D261D371D2A013B01440C551C661C20
:101D5000771C411C440C551C661C771C411C4C0113
:101D60005D018B2CBA2CA92C982E80FAB794A794DD
:101D700097948794B7F884249524A624B7242A013D
:101D80003B0140FA779467945794479477F840FA68
:101D9000779467945794479477F840FA77946794C8
:101DA0005794479477F884249524A624B724800E6A
:101DB000911EA21EB31EC80CD91CEA1CFB1C098173
:101DC0001A812B813C81A02F032F322F212F1A2F14
:101DD000000F111F221F331F011DD901C801880FD9
:101DE000991FAA1FBB1F811D49815A816B817C816C
:101DF00040FB779567955795479577F940FB779521
:101E000067955795479577F98C019D01042715270C
:101E10002627372749815A816B817C81FA01AB01E2
:101E2000BF01440F551F661F771F411D440F551FEB
:101E3000661F771F411DDB01CA01880F991FAA1F6A
:101E4000BB1F811DB901A801482759276A277B2795
:101E50008B8C9C8CAD8CBE8C49845A846B847C8426
:101E600084249524A624B72409811A812B813C81DE
:101E700080229122A222B3220B8D1C8D2D8D3E8DAE
:101E80000421152126213721082519252A253B253E
:101E9000400F511F621F731F8BA19CA1ADA1BEA15A
:101EA0008C0D9D1DAE1DBF1D8D879E87AF87B88B86
:101EB000DB01CA018C0D9D1DAE1DBF1D0D891E8944
:101EC0000C5F1F4F1E8B0D8B2B8D3C8D4D8D5E8DB2
:101ED0002BA33CA34DA35EA3CF8CD8A0E9A0FAA06E
:101EE0004F89588D2416350669F109891A892B897D
:101EF0003C890F8F18A329A33AA32D813E814F81DE
:101F00005885298B3A8B4B8B5C8B4D855E856F8515
:101F100078894D835E836F83788749845A846B8484
:101F20007C844B8E5C8E6D8E7E8E69807A808B80F9
:101F30009C8069867A868B869C8689839A83AB830C
:101F4000BC83C4CE6BED72E07E8B6D8B2224239418
:101F5000312CF101EF70FF273896EE0FFF1FEE0FC7
:101F6000FF1F2D96EEACFFAC2D97EE0DFF1D0281ED
:101F7000138124813581F1013D96EF70FF2738965A
:101F8000EE0FFF1FEE0FFF1FEE0DFF1DC280D3806F
:101F9000E480F5804FE0420DE42FEF70B601A70119
:101FA0003A014B0160FA979487947794679497F875
:101FB0002B966CAE7DAE8EAE9FAE2B972D966EADF2
:101FC0007FAD2D9744E0E49F600D711D1124FB014E
:101FD000B096F88FEF8BF1013896EF70FF273896A7
:101FE000EE0FFF1FEE0FFF1F2D964EAD5FAD2D972D
:101FF0004E0F5F1FEF89F88D42805380648075809B
:10200000FA0182809380A480B580840C951CA61C64
:10201000B71C702E412E522E632EB301A201440F25
:10202000551F661F771F411D28013901E3E0769493
:10203000679457944794EA95D1F744265526662627
:102040007726B80189019B0100FB379527951795E5
:10205000079537F900FB379527951795079537F9B9
:102060004026512662267326480C591C6A1C7B1C8C
:10207000FAE0F694E794D794C794FA95D1F72B96A3
:102080008CAC9DACAEACBFAC2B97C824D924EA2451
:10209000FB2480FAB794A79497948794B7F880FAB2
:1020A000B794A79497948794B7F88C249D24AE2472
:1020B000BF24840C951CA61CB71CEF89F88D828266
:1020C0009382A482B5826D897E89FB0145905590EB
:1020D000659074904F8A588E698E7A8E0D851E8514
:1020E0002F853889F22F232F302F012F1F2F4D8559
:1020F0005E856F8578894095509560957095498883
:102100005A886B887C8844215521662177214D802F
:102110005E806F807884CD84DE84EF84F8884C20E4
:102120005D206E207F206A017B01C424D524E62433
:10213000F7244F89588D698D7A8DC40ED51EE61E01
:10214000F71E28013901440C551C661C771C411CE4
:10215000440C551C661C771C411C4D855E856F85A3
:102160007889E42F472F762F652F5E2F40FB7795D8
:1021700067955795479577F9442555256625772521
:102180002801390140FA779467945794479477F877
:1021900040FA779467945794479477F840FA779485
:1021A00067945794479477F84425552566257725F5
:1021B0004C0D5D1D6E1D7F1D840E951EA61EB71E47
:1021C0004F8C58A069A07AA0840C951CA61CB71C43
:1021D000D82EE92EFA2ECB2ECC0CDD1CEE1CFF1CCB
:1021E000C11C97018601000F111F221F331F011D03
:1021F000AC01BD0140FB779567955795479577F9F9
:1022000040FB779567955795479577F96801790170
:10221000C426D526E626F726BC01AD01440F551F7E
:10222000661F771F411D440F551F661F771F411DF5
:102230008A019B01000F111F221F331F011DB701CF
:10224000A6014027512762277327C984DA84EB84CB
:10225000FC8409811A812B813C81C026D126E2268B
:10226000F326C822D922EA22FB2209851A852B856A
:102270003C8549805A806B807C8004211521262171
:1022800037210C251D252E253F25400F511F621F8C
:10229000731F4B8C5C8C6D8C7E8C480C591C6A1C9B
:1022A0007B1C480D591D6A1D7B1D0FEF201A300A3B
:1022B0002D893E892C5F3F4F3E8B2D8B89849A84DC
:1022C000AB84BC848B8E9C8EAD8EBE8EA988BA8862
:1022D000CB88DC88AF8EB8A2C9A2DAA201E32016AF
:1022E000310419F18D809E80AF80B884898A9A8AE2
:1022F000AB8ABC8AAD84BE84CF84D888AD82BE82CE
:10230000CF82D8864D865E866F86788AC980DA80CD
:10231000EB80FC80C986DA86EB86FC8689839A830B
:10232000AB83BC83DB01CA0114CE8FA098A4A9A4FF
:10233000BAA4480D591D6A1D7B1D2D96EEADFFAD4B
:102340002D9742835383648375838BA49CA4ADA48F
:10235000BEA4880D991DAA1DBB1D86839783A087E7
:10236000B18789819A81AB81BC818FA498A8A9A8E3
:10237000BAA8880D991DAA1DBB1D82879387A487C3
:10238000B58789859A85AB85BC858BA89CA8ADA8A7
:10239000BEA8880D991DAA1DBB1D86879787A08B97
:1023A000B18B8FA898ACA9ACBAAC480C591C6A1C6C
:1023B0007B1C428A538A648A758A8D859E85AF8587
:1023C000B8894BAC5CAC6DAC7EAC840D951DA61D84
:1023D000B71D868B978BA08FB18F8D819E81AF812A
:1023E000B88523964CAC5DAC6EAC7FAC2397840D66
:1023F000951DA61DB71D828F938FA48FB58F8989D8
:102400009A89AB89BC8927964CAC5DAC6EAC7FAC2D
:102410002797840D951DA61DB71D868F978FA0A3A6
:10242000B1A3C45BDF4F0FB6F894DEBF0FBECDBFC4
:10243000DF91CF911F910F91FF90EF90DF90CF90A0
:10244000BF90AF909F908F907F906F905F904F90D4
:102450003F902F900895FC0187E696EEA9E0BAE63A
:1024600082839383A483B58385E89EEAA7E6BBEBCA
:1024700086839783A087B18782E793EFAEE6BCE3BC
:1024800082879387A487B5878AE395EFAFE4B5EA9F
:1024900086879787A08BB18B8FE792E5AEE0B1E599
:1024A000828B938BA48BB58B8CE898E6A5E0BBE977
:1024B000868B978BA08FB18F8BEA99EDA3E8BFE154
:1024C000828F938FA48FB58F89E19DECA0EEBBE541
:1024D000868F978FA0A3B1A3DF01A659BF4F1C928F
:1024E000EE59FF4F108211821282138214821582DC
:1024F00016821782089580E490E0089580E290E0CB
:1025000008950E9452270F93CF93DF93EC019A0115
:10251000829606E3AB01BC01CE010E94B306FE0128
:10252000EE59FF4F20813181428153816481758151
:10253000868197813E5F4F4F5F4F6F4F7F4F8F4F29
:102540009F4F2083318342835383648375838683C3
:102550009783CE01DF91CF910F910C94970D6F92DD
:102560007F928F929F92AF92BF92CF92DF92EF9223
:10257000FF920F931F93CF93DF93CDB7DEB7A09752
:102580000FB6F894DEBF0FBECDBF7C014B013A0100
:1025900069015801DC01ED91FC910484F585E02D81
:1025A00040E250E0BE016F5F7F4F0995B7016E5D5D
:1025B0007F4F0CE59301A401C7010E94B306F70108
:1025C000EE59FF4F208131814281538164817581B1
:1025D000868197813E5F4F4F5F4F6F4F7F4F8F4F89
:1025E0009F4F208331834283538364837583868323
:1025F0009783C7010E94970DD701ED91FC9102844A
:10260000F385E02D40E250E0BE016F5F7F4FC701D0
:102610000995D701ED91FC910484F585E02DA50184
:10262000B601C701099560E270E0CE0101960E94F3
:102630002607A0960FB6F894DEBF0FBECDBFDF9180
:10264000CF911F910F91FF90EF90DF90CF90BF90AF
:10265000AF909F908F907F906F900895CF93DF936E
:10266000EC0169E670E002960E942607E881F98194
:102670000084F185E02DCE01DF91CF9109946F9216
:102680007F928F929F92AF92BF92CF92DF92EF9202
:10269000FF920F931F93CF93DF934C013B01EA010D
:1026A0009A0140E050E060E070E080E090E003E0FC
:1026B0000E940725F401EE59FF4FA080B180C2802F
:1026C000D380E480F580068117810E943E25208317
:1026D0003183428353836483758386839783840124
:1026E00006591F4F80E4A82E740122E2E20EF11C6D
:1026F000209721F1F8018081BA2CB81A2B2D30E0F7
:10270000C217D30708F4BC2ECB2CD12CA601B301E1
:102710009701280F311DC9010E946427F8018081AB
:102720008B0D8083CC19DD096C0C7D1C803401F786
:10273000C4010E94970DF8011082DACFDF91CF918A
:102740001F910F91FF90EF90DF90CF90BF90AF90CF
:102750009F908F907F906F9008954F925F926F92AD
:102760007F928F929F92AF92BF92CF92DF92EF9221
:10277000FF920F931F93CF93DF93EC016B01942E85
:10278000A52E7C0182E2E80EF11CFE01E659FF4F06
:102790002081822F90E08E010E591F4FD701A80F84
:1027A000B91F283308F06BC020E82C93808190E09B
:1027B00047E350E0481B590B019660E070E08E0D36
:1027C0009F1D0E946D27D8018C901196BC90119787
:1027D0001296FC9112971396EC91139714966C91A4
:1027E000149715967C911597282D3B2D4F2F5E2F12
:1027F00016968C91169717969C9100E20E942225BE
:10280000C901DA01AE01465A5F4F782E662455247D
:1028100044240B2F11272227332704291529262981
:102820003729492E5A2E6B2E772444246624772488
:102830000429152926293729BA2FA92F982F882747
:1028400088279927BB27082B192B2A2B3B2BDA012A
:102850000D931D932D933C931397682D7B2D8F2FF4
:102860009E2F0E94F824FE01E25AFF4F608371837D
:1028700082839383CE010E94970D229618C020E890
:102880002C93808190E04FE350E0481B590B019658
:1028900060E070E08E0D9F1D0E946D27CE010E94AA
:1028A000970D88E3F70111928A95E9F78CCF69912A
:1028B0007991899199910E94F8246C8F7D8F8E8FE8
:1028C0009F8FCE15DF0599F7492D5A2D41325105BD
:1028D00010F040E250E0B701C601DF91CF911F91A7
:1028E0000F91FF90EF90DF90CF90BF90AF909F90AF
:1028F0008F907F906F905F904F900C946427FC01B5
:10290000808191810C94F025EF92FF920F931F9399
:10291000CF93DF93EC01198218821B821A821D82E9
:102920001C8261157105A9F17B01FB01019000205A
:10293000E9F731978F01061B170BB8016F5F7F4FC7
:1029400080E090E00E948826009759F09983888360
:102950001B830A832C813D81232B81F4FC0110828F
:102960000DC088819981009711F00E94F02519828D
:1029700018821D821C821B821A820BC01D830C834D
:10298000B701DF91CF911F910F91FF90EF900C94C1
:102990007F27DF91CF911F910F91FF90EF900895C6
:1029A000CF93DF93282F30E0F901EF51FC4F849152
:1029B000F901E353FC4FD491F901E754FC4FC49162
:1029C000CC2391F081110E94880CEC2FF0E0EE0FE7
:1029D000FF1FE155FC4FA591B491EC91ED2381E0EF
:1029E00090E021F480E002C080E090E0DF91CF91A0
:1029F00008951F93CF93DF93282F30E0F901EF5113
:102A0000FC4F8491F901E353FC4FD491F901E75451
:102A1000FC4FC491CC23C9F0162F81110E94880C61
:102A2000EC2FF0E0EE0FFF1FEB55FC4FA591B4919A
:102A30008FB7F894111105C09C91ED2FE095E92313
:102A400002C0EC91ED2BEC938FBFDF91CF911F91E2
:102A50000895CF93DF93EC0161E08F810E94F91418
:102A600083EC90E00197F1F760E08F81DF91CF91E7
:102A70000C94F914CF93DF9390E0FC01E353FC4FE7
:102A80002491FC01E754FC4F8491882361F190E08C
:102A9000880F991FFC01E556FC4FC591D491FC01AC
:102AA000EB55FC4FA591B491611109C09FB7F89403
:102AB0008881209582238883EC912E230BC062307D
:102AC00061F49FB7F8943881822F8095832388839F
:102AD000EC912E2B2C939FBF06C08FB7F894E88102
:102AE0002E2B28838FBFDF91CF910895EF92FF9215
:102AF0001F93CF93DF93EC0160E088850E943A1525
:102B000060E08D810E94F91461E08E810E94F914C9
:102B100083E2E82EF12C60E08F810E94F91461E0DD
:102B20008F810E94F914C7010197F1F788850E94EF
:102B3000D014182F60E08F810E94F914CE010E94FA
:102B400029151111E8CF61E088850E943A1560E0EF
:102B50008E81DF91CF911F91FF90EF900C94F9142B
:102B60008F929F92AF92BF92CF92DF92EF92FF929D
:102B70006B017C010E94B10C4B015C01C114D104BA
:102B8000E104F104F1F00E94B10CDC01CB018819E1
:102B90009909AA09BB09883E9340A105B10570F3C4
:102BA00021E0C21AD108E108F10888EE880E83E01E
:102BB000981EA11CB11CC114D104E104F10419F741
:102BC000DDCFFF90EF90DF90CF90BF90AF909F90C0
:102BD0008F9008951F920F920FB60F9211242F938A
:102BE0003F938F939F93AF93BF938091C403909132
:102BF000C503A091C603B091C7033091570423E0E9
:102C0000230F2D3720F40196A11DB11D05C026E824
:102C1000230F0296A11DB11D209357048093C40376
:102C20009093C503A093C603B093C7038091580443
:102C300090915904A0915A04B0915B040196A11D92
:102C4000B11D8093580490935904A0935A04B093F3
:102C50005B04BF91AF919F918F913F912F910F9006
:102C60000FBE0F901F901895AF92BF92CF92DF9238
:102C7000EF92FF920F931F93CF93DF935C017C0140
:102C800089E0E80EF11CC0E0D0E0062F10E06701FB
:102C900061E0F70181917F010E943A15B8010C2E85
:102CA00002C0759567950A94E2F76170F60180811C
:102CB0000E94F9142196C430D10549F783EC90E0C5
:102CC0000197F1F7C501DF91CF911F910F91FF900F
:102CD000EF90DF90CF90BF90AF900C9429151F9389
:102CE000CF93DF93EC01162F642F8D810E94F9148E
:102CF00061E08E810E943A1560E08E810E94F91495
:102D0000812F90E0BC0184E0759567958A95E1F785
:102D1000CE010E943416612FCE01DF91CF911F9119
:102D20000C943416CF93DF93EC0141E00E946F16B0
:102D3000CE010E947615DF91CF910895CF93DF9356
:102D4000EC0140E00E946F16CE01DF91CF910C9410
:102D500076151F920F920FB60F9211242F933F9367
:102D60004F935F936F937F938F939F93AF93BF9393
:102D7000EF93FF938091B900887F803609F49CC05F
:102D800068F5883209F45BC090F4803109F454C0CE
:102D900038F4882309F4F6C0883009F44DC0F6C031
:102DA000883109F44CC0803209F45DC0EFC0803432
:102DB00009F468C048F4803309F455C0883309F039
:102DC000E5C080938104D8C0803509F44FC08835B0
:102DD00009F45DC0883409F0D9C0D6C0883909F437
:102DE000C7C0A8F4883709F467C038F4883609F4F6
:102DF00063C0803709F460C0C9C0883809F4B8C01E
:102E0000803909F45FC0803809F0C0C05BC0803BE6
:102E100009F486C038F4803A09F466C0883A09F4A7
:102E20007FC0B4C0803C09F4A7C0883C09F4A4C0AA
:102E3000883B09F48AC0AAC080915E0410C09091BA
:102E4000800480917F04981770F5E091800481E000
:102E50008E0F80938004F0E0E15AFB4F80818093D5
:102E6000BB0085EC86C0809381048EC0E091800415
:102E700081E08E0F809380048091BB00F0E0E15AE6
:102E8000FB4F80839091800480917F046EC0E0911D
:102E9000800481E08E0F809380048091BB00F0E07D
:102EA000E15AFB4F80838091820481116DC081E0E3
:102EB00080935D0484EA61C083E080938304109270
:102EC0005604CFCF80915604803208F051C0E09173
:102ED000560481E08E0F809356048091BB00F0E091
:102EE000EA5CFB4F8083BDCF85EC8093BC001092E1
:102EF000830480915604803230F4E0915604F0E06F
:102F0000EA5CFB4F10826091560470E0E09134045B
:102F1000F091350486E394E009951092560436C08A
:102F200084E0809383041092330410923204E09181
:102F30003004F0913104099580913204811105C06B
:102F400081E08093320410921004E091330481E018
:102F50008E0F80933304F0E0E05FFB4F808180931D
:102F6000BB009091330480913204981708F479CF14
:102F700085E88093BC000AC085EC8093BC00109269
:102F8000830404C0109281040E94D60CFF91EF913B
:102F9000BF91AF919F918F917F916F915F914F9171
:102FA0003F912F910F900FBE0F901F901895009793
:102FB00069F0FC0101900020E9F73197AF01481B4F
:102FC000590BBC0184E395E00C945D0C80E090E02B
:102FD00008950C94D717CF93DF9300D000D0CDB7CE
:102FE000DEB7198220E42A8324E12B8324E52C8395
:102FF00020914605621708F060E0FE01E60FF11D22
:103000009181682F690F606884E395E00F900F90BD
:103010000F900F90DF91CF910C949E1682E00E944A
:10302000D014892B91F083E00E94D014892B81F079
:1030300081E10E94D014892B71F08CE00E94D014A1
:10304000892B61F085E090E00BC081E090E008C042
:1030500082E090E005C083E090E002C084E090E070
:103060008093BC04823041F018F4813029F006C00E
:10307000833011F0843011F480938401059771F44A
:103080008091BA049091BB0401969093BB04809305
:10309000BA041092B9041092B80408951092BB04B7
:1030A0001092BA048091B8049091B904019690935B
:1030B000B9048093B8040895EF92FF920F931F9381
:1030C000CF93DF9300D0CDB7DEB704E511E0845590
:1030D00091407C019701200F311FF80161918F0110
:1030E0003A832983CE0101960E94D30BF1E0043884
:1030F0001F0781F784E591E00F900F90DF91CF914A
:103100001F910F91FF90EF900895682F8DEB94E041
:103110000C94640DE0913405F09135050190F08137
:10312000E02D682F84E395E009940F931F93CF93CC
:10313000DF938C01C9ECD4E0E881F9810084F1854A
:10314000E02DCE010995F80101900020E9F73197B3
:10315000AF01401B510BE881F9810284F385E02D1A
:10316000B801CE010995E881F9810484F585E02D47
:1031700040E150E068EA74E0CE01DF91CF911F9109
:103180000F91099461E084E395E00C949E162091E0
:10319000A7049091A604213208F04AC080918304CC
:1031A0008111FCCF32E03093830431E0309382040C
:1031B0003FEF309381041092800420937F04A6E8AF
:1031C000B4E04FE554E0FA013E2F341B321718F4F7
:1031D0003D913193F9CF10925E0420915E04990FD6
:1031E000922B90935E0490915D04913061F4109263
:1031F0005D0490915E049093BB009091BC0093FDA0
:10320000F8CF95EC01C095EE9093BC0090918304AB
:103210009230E1F3909181049F3F79F08091810495
:10322000803241F080918104803331F084E005C028
:1032300081E003C082E001C083E010928504109217
:10324000A704109284040895CF92DF92EF92FF9228
:103250000F931F93CF93DF93EC0182E08A8B198A3F
:1032600061E08D810E943A1561E08E810E943A15DD
:1032700061E08F810E943A1560E08D810E94F9140F
:1032800060E08F810E94F91460E08E810E94F91441
:103290008BE39DE00197F1F78E01075F1F4F7E01E1
:1032A0008DE0E80EF11C680161E0F80181918F0169
:1032B0000E943A1560E0F60180810E94F9140E1513
:1032C0001F0589F763E0CE010E9434160BE11EE46E
:1032D000C8010197F1F78C81823039F468E0CE01A2
:1032E0000E943416C8010197F1F762E0CE010E94F6
:1032F00034160BE11EE4C8010197F1F762E0CE013C
:103300000E943416C8010197F1F768E0CE010E94CF
:103310003416C8010197F1F768E0CE010E949E16AD
:10332000C8010197F1F761E0CE010E949E16C80125
:103330000197F1F766E0CE010E949E16C801019741
:10334000F1F762E0CE010E949E16C8010197F1F7E5
:103350006CE0CE010E949E16C8010197F1F7DF9143
:10336000CF911F910F91FF90EF90DF90CF90089534
:103370001F93CF93DF93CDB7DEB7AE970FB6F89418
:10338000DEBF0FBECDBF182F80915C0490E04AE0F5
:10339000BE01645D7F4F01960E94F923E0915C04B9
:1033A000F0E0EE0FFF1FEC5AFE4F808191810E94EA
:1033B000AB0BBC01CE0183960E947F278BE0E6EC2D
:1033C000F1E0DE01529601900D928A95E1F7FE013F
:1033D0007D9686E0DF011D928A95E9F7B9E01B9F93
:1033E000B0011124675C7E4FCE0142960E94742783
:1033F00083E290E0A0E0B0E089839A83AB83BC8352
:10340000FE0135968DE0DF011D928A95E9F7BE0138
:10341000645D7F4FCE0101960E94742766E972E0D9
:10342000CE0101960E947427BE016D5D7F4FCE01D3
:1034300001960E9474274CE554E0BE016F5F7F4FF8
:10344000CE0142960E947009AE960FB6F894DEBF88
:103450000FBECDBFDF91CF911F910895CF93DF9322
:10346000EC0161E08BE00E943A15209711F460E0D6
:1034700004C0CF3FD10531F461E08BE0DF91CF9103
:103480000C94F914ECEEF3E0E491E330F9F048F435
:10349000E130B9F0E230A1F584B5806284BDC8BDE9
:1034A00034C0E730E9F0E83019F1E43049F58091B3
:1034B0008000806280938000D0938B00C0938A004C
:1034C00024C084B5806884BDC7BD1FC080918000C2
:1034D000806880938000D0938900C093880015C0D5
:1034E0008091B00080688093B000C093B3000DC09D
:1034F0008091B00080628093B000C093B40005C09A
:10350000C038D1050CF0B8CFB2CFDF91CF9108957C
:10351000CF93DF93CDB7DEB7E9970FB6F894DEBF50
:103520000FBECDBF789484B5826084BD84B58160C0
:1035300084BD85B5826085BD85B5816085BD80917E
:103540006E00816080936E001092810080918100F6
:1035500082608093810080918100816080938100EE
:10356000809180008160809380008091B1008460B0
:103570008093B1008091B00081608093B000809111
:103580007A00846080937A0080917A0082608093D0
:103590007A0080917A00816080937A0080917A002D
:1035A000806880937A001092C10061E08DE00E94F3
:1035B0003A1560E08DE00E94F91460E08AE00E9414
:1035C0003A1560E08EE00E943A1560E08FE00E94BC
:1035D0003A1560E080E10E943A1562E081E10E94C4
:1035E0003A1562E08CE00E943A1562E082E00E94A7
:1035F0003A1562E083E00E943A1584E395E00E9468
:1036000024190E94C21860914205862F846080931D
:1036100042056C6084E395E00E949E168091B100A3
:10362000887F81608093B10080E090E00E94362422
:103630008A3429F48091CD030E94200932C00E946F
:10364000C21881E692E00E94E91760E177E280E02B
:1036500090E00E94B0150FE110E080E7E82EF12C19
:10366000B1EEDB2ED00E8D2D0E94270C85E091E06F
:103670000E9495188D2D0E94F30BC7010E945C18C3
:1036800062E1C8010E943E2420E3E20EF11C0F5FBC
:103690001F4F0232110521F76AE480E090E00E949A
:1036A0003E241092C3031092C2031092850410921C
:1036B000A7041092830481E08093820410925D0439
:1036C00061E082E10E94F91461E083E10E94F91453
:1036D0008091B9008E7F8093B9008091B9008D7F71
:1036E0008093B90088E48093B80085E48093BC009F
:1036F00060E080E00E94EB178EE692E00E94E917FE
:1037000061E080E00E94EB178FE792E00E94E917EA
:10371000F89489E0E0E0F0E080935700E491E3E082
:10372000F0E080935700E491E2E0F0E080935700EE
:10373000E491E1E0F0E08093570084917894837005
:1037400021F08AE892E00E94E91761E08AE00E9495
:10375000EB17E12CF12C00E010E0C8010E94150BE2
:10376000E80EF11C0F5F1F4F011580E41807A9F741
:1037700099EBE91696ECF90651F081E992E00E9486
:10378000E91760E777E180E090E00E94B015AAE0D9
:103790008A2E912CA12CB12C1E01E5E02E0E311C9D
:1037A0008E010F5F1F4FCE010C969DAB8CAB8091AD
:1037B000CE03882309F4B6C3E09137018E2F90E041
:1037C000FC013197E431F10508F0F2C6EC5CFF4FE3
:1037D0000C94F22482E080933701E7E3F1E0129247
:1037E00091E0E632F907D9F793C461E08091CD0307
:1037F0000E94DB0A882309F4DBC683E007C08091BE
:10380000CD030E947808882321F084E0809337015B
:10381000CFC681E0809337011092CE03C9C668E914
:1038200072E0C8010E948414BE016E5D7F4FC80122
:103830000E947F07F82EC8010E947F14FF2009F420
:10384000B7C68AA1882399F185E0E0CFF090CD0337
:1038500064EA72E0C8010E948414BE016E5D7F4F6D
:10386000C8010E947F07E82EC8010E947F14EE2045
:1038700009F49EC6DAA0DD2031F161E080E00E940B
:10388000EB178AEA92E00E94E9178EE00E94610934
:1038900086E291E00E9495188F2D0E94F30B0E9402
:1038A000E0070E94C218ED2CEE2009F481C687E0E3
:1038B000ADCF60E08091CD030E94DB0A882309F43C
:1038C00077C686E0A3CF0E94C218EECF60EB72E00D
:1038D000C8010E948414BE016E5D7F4FC8010E9422
:1038E0007F07F82EC8010E947F14FF2009F460C6EC
:1038F0008AA1882309F447C06091CD03E9E06E9F57
:10390000B0011124675C7E4F80E191E00E947F2727
:10391000F8E0FF2EF0920C018BE091E00E94450947
:103920000E94C218F092370143C6F090CD0364EABA
:1039300072E0C8010E948414BE016E5D7F4FC80111
:103940000E947F07E82EC8010E947F14EE2009F430
:103950002FC6DAA0DD2009F452C061E080E00E94A9
:10396000EB178AEA92E00E94E9178EE00E94610953
:103970008F2D0E94270C0E94E0070E94C218ED2C98
:10398000EE2009F415C68AE041CFE090CD03F12C7A
:103990004AE0BE016E5D7F4FC70101960E94F92388
:1039A00086E0EBE8F1E0D80101900D928A95E1F70D
:1039B00018861F82BE016E5D7F4FC8010E9474276A
:1039C0006DEB72E0C8010E9474274BE051E0B80132
:1039D0008FEB92E00E94C209882309F4E9C5E9E06F
:1039E000DE2EDE9CC001DF9C900D112460E171E0B1
:1039F000875C9E4F0E947F27D0923701D9C58F2DBB
:103A00000E9420090E94C218BBCF67EC72E0C80177
:103A10000E948414BE016E5D7F4FC8010E947F0723
:103A2000F82EC8010E947F14FF2009F4C1C58AA1A5
:103A30008823B9F08BE0809337018091CD030E94F9
:103A4000660780910A014AE066E271E0FAE08F9F22
:103A5000C00111240E94F92381E291E00E944509EE
:103A6000A7C58CE0D3CE6091CD03109225018BE0E9
:103A7000E3E9F1E0D80101900D928A95E1F787E042
:103A8000ECA9FDA911928A95E9F779E0F72EF69E47
:103A9000B0011124675C7E4FC8010E94742741E287
:103AA00051E067E972E0C8010E94C209882309F465
:103AB0007FC58CE080933701E090CD0386E291E0F2
:103AC0000E94DB236AE070E00E949D24693071054A
:103AD0001CF4F0920A0109C06B3F710524F08AEFD3
:103AE00080930A0102C060930A0160910A018E2D41
:103AF00090E04F969A838983C8010E94D30BA091CE
:103B00000A01FAE0AF9FD001112420E831E541E03D
:103B100050E00E94FF2460930001709301018093A4
:103B200002019093030144C565ED72E0C8010E9453
:103B30008414BE016E5D7F4FC8010E947F07F82E7E
:103B4000C8010E947F14FF2009F432C58AA188238E
:103B500011F08DE05BCE80E159CE8091CD030E94C3
:103B6000B819882339F1E0915C04F0E0EE0FFF1FF3
:103B7000EC5AFE4F808191810E94AB0BBC0180E129
:103B800091E00E947F27809110018F3349F4E1E298
:103B9000F1E0129221E0E031F207D9F710920B0127
:103BA00088E080930C018BE091E00E9445098EE053
:103BB000809337018091BC04833009F0F9C48FE011
:103BC000809337019CC480915C0490E04AE0BE0180
:103BD0006E5D7F4F01960E94F92386E0E5EAF1E0F1
:103BE000D80101900D928A95E1F71F8218861986F7
:103BF000BE016E5D7F4FC8010E9474276DEB72E0BD
:103C0000C8010E9474274BE051E0B8018FEB92E0AD
:103C10000E94C209782E882309F4CAC4E12CF12C31
:103C2000C12CD12C60901001C7010E94150B90E0AF
:103C3000262D660C330B8217930789F560901101CE
:103C4000C70101960E94150B90E0262D660C330BE0
:103C50008217930721F560901201C70102960E9416
:103C6000150B90E0262D660C330B82179307B9F4E1
:103C700060901301C70103960E94150B90E0262D5A
:103C8000660C330B8217930751F4E0915C04F0E06B
:103C9000EE0FFF1FEC5AFE4FD182C0820BC08FEF98
:103CA000C81AD80A98E0E90EF11CE114E0E4FE0617
:103CB00009F0B8CF71104DCF7BC4F090CD0363EE07
:103CC00072E0C8010E948414BE016E5D7F4FC8017E
:103CD0000E947F07E82EC8010E947F14EE2009F49D
:103CE00067C4DAA0DD20C9F061E080E00E94EB1734
:103CF0008AEA92E00E94E9178BE00E946109F0E3F2
:103D0000FF9EC001112480599F4F0E945C180E94A1
:103D1000E0070E94C218ED2C02C00E94C218EE20DB
:103D200009F446C484E172CD6FEE72E0C8010E94CE
:103D30008414BE016E5D7F4FC8010E947F07F82E7C
:103D4000C8010E947F14FF2009F432C48AA188238D
:103D500049F383E15BCD80915C0490E04AE0BE01D1
:103D60006E5D7F4F01960E94F9238DE0EEEAF1E04F
:103D7000D80101900D928A95E1F71E861F86188A58
:103D8000BE016E5D7F4FC8010E9474276DEB72E02B
:103D9000C8010E9474274BE051E067E972E0C80156
:103DA0000E94C2098091BC04843009F07AC08091DD
:103DB0001001811108C082E18093370185E0809372
:103DC00084010E94C218E090CD03F12C22E8E20E9B
:103DD000F11C23E0EE0CFF1C2A95E1F780915C04B6
:103DE000E80EF11C34E0EE0CFF1C3A95E1F7612C73
:103DF000712C40E1C42E41E0D42E31E020E5F601E3
:103E000001900020E9F7CF01815191408615970577
:103E100028F0F301E55FFE4F658101C060E02301FA
:103E20004E0C5F1C309384042093A60410928504EA
:103E30001092A704852D952D990F990B29AF38AFB6
:103E40006EAB0E948518C20199270E9485186EA941
:103E50008DEB94E00E94640D0E94C71865E070E04D
:103E600080E090E00E94B0158FEF681A780A29ADC3
:103E700038AD90E16916710411F660915C046F5FD2
:103E800060935C04683068F48091CD030E947B0BE2
:103E9000BC0180E191E00E947F278BE091E00E94CD
:103EA000450980915C04883008F482C38091BC0489
:103EB000853009F07DC382E1A9CC6FEF72E0C801C3
:103EC0000E948414BE016E5D7F4FC8010E947F076F
:103ED000F82EC8010E947F14FF2009F469C38AA14B
:103EE000811120CF36CF10925C040E94C2186091DD
:103EF0005C048091CD030E947B0BBC0180E191E0CA
:103F00000E947F2710920C018BE091E00E944509EE
:103F100081E17CCC81E0809337018093090110928C
:103F2000CE03EDC220910901263109F45AC108F0EF
:103F300054C0233009F4EFC008F046C0213009F422
:103F400061C0223009F034C360E080E029AF0E94F4
:103F5000EB1781E193E00E94E91761E080E00E94A5
:103F6000EB171092C8038091CD0399E0F92EF89ECB
:103F7000C0011124875C9E4F0E94E917E091CD0398
:103F8000FE9EF0011124E75CFE4FDF010D90002042
:103F9000E9F78E2F8A1B845F0E94610983E20E94E9
:103FA0008A18E090CD031A821982F0E3EF9E700127
:103FB0001124670180E7C80ED11C90EAE90EF11CBC
:103FC000612C712C29AD42C0253009F4E9C008F4F8
:103FD000C6C0263009F455C3EBC2293109F422C109
:103FE00038F4273109F407C1283109F40EC1E0C2C1
:103FF000203209F487C22D3309F491C22F3109F020
:10400000D7C255C18091C9039091CA03A091CB0337
:10401000B091CC034297A105B1056CF41982A801B7
:1040200066E073E08EE692E00E947009882309F44E
:10403000BFC282E0D3C06091CD03E9E06E9FB001C2
:104040001124675C7E4F1982A801ECCFC60129AF0D
:104050000E9436248983C60101960E9436248A83F1
:1040600089819A81680E791EE2E0CE0ED11C29ADBD
:10407000CE14DF0459F77F926F9282E293E09F9310
:104080008F931F930F9329AF0E948627C8010E9428
:10409000E9178091BC040F900F900F900F900F9034
:1040A0000F9029AD813051F48091CD03811101C071
:1040B00021E02093CD03822F0E9420098091BC042F
:1040C000823061F48091CD0390E0019718161906B3
:1040D0000CF080E08093CD030E9420098091BC0405
:1040E000853071F490918401943051F4809384016F
:1040F0000E94C21883E080930901E7E3F1E003C066
:104100000E94B30755C2129221E0E632F207D9F7B6
:10411000109221014DC267E273E0C8010E9484142D
:10412000BE016E5D7F4FC8010E947F07F82EC80157
:104130000E947F14FF2009F43BC20E94C2188AA18A
:10414000882359F086E180930901E7E3F1E01292B8
:1041500081E0E632F807D9F7DBCF84E03FC068E3BF
:1041600073E0C8010E948414BE016E5D7F4FC801D8
:104170000E947F07F82EC8010E947F14FF2009F4D7
:1041800017C20E94C2188AA1882341F08FE1809350
:1041900009018091CD030E9466070AC285E01EC016
:1041A00067E473E0C8010E948414BE016E5D7F4F16
:1041B000C8010E947F07F82EC8010E947F14FF20CB
:1041C00009F4F6C10E94C2188AA1882331F081E067
:1041D000809337018093CE03EBC186E08093090181
:1041E000E7C161E08091CD030E94DB0A882309F4D6
:1041F000DFC187E1F3CF8091CD030E947808882347
:1042000011F088E10AC083E0E9CF8091CD030E94DC
:10421000B819882309F4CCC189E18093090110926F
:104220005C04C6C1F090CD0320915C04822F90E025
:104230004AE0BE016F5C7F4F01960E94F9238DE03A
:10424000EEEAF1E0DE01929601900D928A95E1F797
:1042500018AA1FA6BE016F5C7F4FCE0182960E94F6
:1042600074276DEB72E0CE0182960E94742719824A
:104270001A821B821C828DE0F10111928A95E9F766
:1042800060915C048F2D0E947B0BBC01C8010E94D1
:104290007F274CE554E0B801CE0182960E94700958
:1042A0008111ECC18981882309F4E8C181C1C090E2
:1042B0000001D0900101E0900201F09003016091B3
:1042C000C9037091CA038091CB039091CC03A501DF
:1042D00094010E94D3242B013C01C701B601A50122
:1042E00094010E94D324461657066806790609F001
:1042F000DFC0F1E0CF1AD108E108F108C092000157
:10430000D0920101E0920201F092030160E080E0AE
:104310000E94EB178EE493E00E94E91761E080E0D1
:104320000E94EB17609100017091010180910201E0
:104330009091030120E831E541E050E00E94D32450
:1043400057FF26C08DE229AF38AF4EAB5FAB0E945E
:104350008A1829AD38AD4EA95FA950954095309582
:1043600021953F4F4F4F5F4F19A2CE0181967C019F
:10437000CA01B901A50194010E94B124605DF70151
:1043800062937F01211531054105510589F713C05D
:1043900019A2CE0181967C01CA01B901A50194013F
:1043A0000E94B124605DF70162937F012115310500
:1043B0004105510589F7C7010E94D7178DE593E0A4
:1043C0000E94E91760910001709101018091020142
:1043D0009091030120E13EE040E050E00E94D324B0
:1043E000CA01B90128E130E040E050E00E94D32446
:1043F0009F938F937F936F9380E6E82E83E0F82E50
:10440000FF92EF921F930F930E948627C8010E948C
:10441000E9178DEB92E00E94E9176091000170911D
:10442000010180910201909103012CE330E040E012
:1044300050E00E94D324CA01B9012CE330E040E0EF
:1044400050E00E94D3249F938F937F936F93FF92AA
:10445000EF921F930F930E948627C8010E94E917CD
:104460008DEB92E00E94E9176091000170910101CB
:1044700080910201909103012CE330E040E050E094
:104480000E94D3249F938F937F936F93FF92EF9219
:104490001F930F930E948627C8010E94E91786E99F
:1044A00092E00E94E9170FB6F894DEBF0FBECDBFB1
:1044B0008091000190910101A0910201B09103014E
:1044C000181619061A061B065CF080E28093090193
:1044D00085E091E00E9495188091CD030E94F30B36
:1044E0008091BC04853009F063C0909184019330C1
:1044F00009F05EC08093840181E0809309010E94ED
:10450000C21856C01982A80165E673E08CE693E0F4
:104510000E947009882309F44BC081E05FCE10929D
:10452000C80360E080E00E94EB178DE793E00E94F3
:10453000E91761E080E00E94EB178EE893E00E94AB
:10454000E9178091BC04813069F48091040190E006
:104550000196863991050CF086E98093040190E07C
:104560000E942E1A8091BC04823069F4809104016B
:1045700090E00197181619060CF080E08093040172
:1045800090E00E942E1A8091BC04853089F49091AD
:104590008401943069F4809384010E94C21881E000
:1045A000809309016091040181E090E00E943E2423
:1045B0000E940E182FB7F8946091C4037091C50340
:1045C0008091C6039091C7032FBFC090C903D090BC
:1045D000CA03E090CB03F090CC0324E630E040E047
:1045E00050E00E94B124CA01B90124E630E040E065
:1045F00050E00E94B1242B013C01C701B60124E622
:1046000030E040E050E00E94D3244616570668068A
:10461000790661F1C701B6016F5F7F4F8F4F9F4FE2
:104620006093C9037093CA038093CB039093CC0328
:104630002091C803F0904205222379F025E030E074
:1046400040E050E00E94D32420FD07C08F2D8260FF
:10465000809342056F2D6A6005C06F2D6D7F60935A
:104660004205686084E395E00E949E1680E090E039
:10467000892B09F49CC80E9400008EC885E08093B5
:1046800084010E94C21849CF89EC94E00E9430074F
:1046900087E495E00E945207F894A89584B7877F35
:1046A00084BFE0E6F0E080818861808310827894A6
:1046B00060E470E08CEF95E00E94260760E470E013
:1046C0008CE396E00C942607CF93DF93EDEBF4E0B8
:1046D0001382128288EE93E0A0E0B0E08483958399
:1046E000A683B7838BED91E09183808310927D0642
:1046F00010927C06EEE7F6E0108281818078806877
:104700008183109280061092810610928206109288
:10471000830680E89EEEA6E3B0E080938406909343
:104720008506A0938606B093870610929006109295
:104730009106C4E3D5E01B821A8289E592E0998351
:10474000888382E08C8388E08D838BE08E8389E090
:104750008F8384E0898785E08A8786E08B8787E07E
:1047600088878C8761E088E00E943A1561E08E813D
:104770000E943A1561E08F810E943A1588E28D8788
:10478000CE010E942419E7E4F5E085E492E09183EC
:1047900080838AE082838CE495E09483838385E040
:1047A00092E09093CA048093C90489EC94E0DF916D
:1047B000CF910C942B12FC0188279927E894219122
:1047C0002032E9F3293010F02E30C8F32B3241F0BB
:1047D0002D3239F4689404C00E940424820F911D84
:1047E000219120532A30C0F31EF4909581959F4F5C
:1047F0000895BB274A3031F4992322F4BDE2909505
:1048000081959F4F0C940D247AE0979F902D879F60
:10481000802D910D11240895BB27FB015527AA2750
:10482000880F991FAA1FA41710F0A41B839550513D
:10483000B9F7A05DAA3308F0A95DA193009779F7B5
:10484000B111B1931192CB010C942624DC01FC012F
:10485000672F71917723E1F7329704C07C916D93B4
:1048600070836291AE17BF07C8F30895F999FECF20
:1048700092BD81BDF89A992780B50895262FF999A0
:10488000FECF1FBA92BD81BD20BD0FB6F894FA9A33
:10489000F99A0FBE019608950E948E24A59F900D4F
:1048A000B49F900DA49F800D911D112408952F9207
:1048B0003F924F925F926F927F928F929F92AF92B0
:1048C000BF92CF92DF92EF92FF920F931F93CF93FD
:1048D000DF93CDB7DEB7CA1BDB0B0FB6F894DEBF94
:1048E0000FBECDBF09942A88398848885F846E84BA
:1048F0007D848C849B84AA84B984C884DF80EE8004
:10490000FD800C811B81AA81B981CE0FD11D0FB60C
:10491000F894DEBF0FBECDBFED010895A29FB00198
:10492000B39FC001A39F700D811D1124911DB29FE3
:10493000700D811D1124911D089597FB072E16F40B
:10494000009407D077FD09D00E94472507FC05D0C9
:104950003EF4909581959F4F0895709561957F4F96
:104960000895A1E21A2EAA1BBB1BFD010DC0AA1FB0
:10497000BB1FEE1FFF1FA217B307E407F50720F0C8
:10498000A21BB30BE40BF50B661F771F881F991F43
:104990001A9469F760957095809590959B01AC018C
:1049A000BD01CF010895052E97FB1EF400940E94CF
:1049B000EA2457FD07D00E94B12407FC03D04EF42F
:1049C0000C94EA2450954095309521953F4F4F4FD8
:1049D0005F4F089590958095709561957F4F8F4FAB
:1049E0009F4F0895EE0FFF1F0590F491E02D09945D
:1049F0006927962769277827872778270895B7FF9B
:104A00000C944C240E944C24821B930B08950F930A
:104A1000083090F0982F872F762F652F542F432F33
:104A2000322F22270850F4CF220F331F441F551F67
:104A3000661F771F881F991F0A95B2F70F91089577
:104A400097FB10F8169400080F93083098F0085060
:104A5000232F342F452F562F672F782F892F902DF6
:104A6000F4CF0594979587957795679557954795D2
:104A7000379527950A95AAF70F9108952A0D3B1DA2
:104A80004C1D5D1D6E1D7F1D801F911F0895AA1B6B
:104A9000BB1B51E107C0AA1FBB1FA617B70710F029
:104AA000A61BB70B881F991F5A95A9F7809590955B
:104AB000BC01CD010895CF93DF938230910510F4AE
:104AC00082E090E0E0919406F091950620E030E0DD
:104AD000C0E0D0E0309711F140815181481759076B
:104AE000C0F04817590761F482819381209719F02B
:104AF0009B838A832BC0909395068093940626C04F
:104B00002115310519F04217530718F49A01BE0117
:104B1000DF01EF010280F381E02DDCCF21153105AB
:104B200009F1281B390B2430310590F412968D9130
:104B30009C9113976115710521F0FB01938382838A
:104B400004C09093950680939406FD01329644C06C
:104B5000FD01E20FF31F81939193225031092D93B0
:104B60003C933AC02091920630919306232B41F456
:104B7000209187013091880130939306209392060B
:104B800020918501309186012115310541F42DB721
:104B90003EB74091890150918A01241B350BE09169
:104BA0009206F0919306E217F307A0F42E1B3F0B39
:104BB0002817390778F0AC014E5F5F4F241735078F
:104BC00048F04E0F5F1F50939306409392068193D7
:104BD000919302C0E0E0F0E0CF01DF91CF91089522
:104BE0000F931F93CF93DF93009709F48CC0FC01C0
:104BF0003297138212820091940610919506011546
:104C0000110581F420813181820F931F209192063A
:104C1000309193062817390779F5F0939306E093BE
:104C2000920671C0D80140E050E0AE17BF0750F4C3
:104C300012962D913C911397AD012115310509F183
:104C4000D901F3CF9D01DA01338322836081718121
:104C5000860F971F8217930769F4EC012881398129
:104C6000260F371F2E5F3F4F318320838A819B8120
:104C700093838283452B29F4F0939506E093940661
:104C800042C01396FC93EE931297ED01499159910E
:104C90009E01240F351FE217F30771F48081918183
:104CA000840F951F029611969C938E938281938117
:104CB00013969C938E931297E0E0F0E0D801129641
:104CC0008D919C911397009719F0F8018C01F6CF04
:104CD0008D919C9198012E5F3F4F820F931F2091E1
:104CE0009206309193062817390769F4309729F412
:104CF000109295061092940602C0138212821093AD
:104D0000930600939206DF91CF911F910F91089522
:104D1000A0E0B0E0EEE8F6E20C945B24EC01009732
:104D200021F4CB010E945B25B8C0FC01E60FF71F00
:104D30009C0122503109E217F30708F4ACC0D901F5
:104D40000D911C91119706171707B0F0053011054A
:104D500008F49FC0C80104978617970708F499C004
:104D600002501109061B170B019311936D937C934D
:104D7000CF010E94F0258DC05B01A01AB10A4C0141
:104D8000800E911EA0919406B091950640E050E0EF
:104D9000E12CF12C109709F44AC0A815B905D1F5FA
:104DA0006D907C901197630182E0C80ED11CCA14EB
:104DB000DB0480F1A3014A195B096A0182E0C80E95
:104DC000D11C1296BC9012971396AC91B5E0CB16FD
:104DD000D10440F0B282A38351834083D9016D9303
:104DE0007C930AC00E5F1F4FC301800F911FF90112
:104DF00091838083EB2DFA2FE114F10431F0D70178
:104E00001396FC93EE93129744C0F0939506E093AB
:104E100094063FC08D919C9111974817590708F44B
:104E2000AC017D0112960D90BC91A02DB3CF809165
:104E300092069091930688159905E1F44617570755
:104E4000C8F48091850190918601009741F48DB757
:104E50009EB74091890150918A01841B950BE817F8
:104E6000F907C8F4F0939306E0939206F901718371
:104E700060830FC0CB010E945B257C01009759F035
:104E8000A801BE010E946427CE010E94F025C7013F
:104E900004C0CE0102C080E090E0CDB7DEB7EEE006
:104EA0000C94772481E090E0F8940C94272AFB017D
:104EB000DC0104C08D910190801921F441505040D3
:104EC000C8F7881B990B0895FB01DC0102C0019013
:104ED0000D9241505040D8F70895DC0101C06D9308
:104EE00041505040E0F70895FB01DC010D90002097
:104EF000E9F7119701900D920020E1F70895FB0169
:104F0000DC0101900D920020E1F70895AEE0B0E0E1
:104F1000ECE8F7E20C9465240D891E8986E08C8309
:104F20001A8309838FEF9FE79E838D83AE01475ECF
:104F30005F4F6F89788DCE0101960E94A9272F813E
:104F40003885F801E20FF31F10822E96E4E00C94EE
:104F50008124ACE0B0E0EFEAF7E20C9457247C0146
:104F60006B018A01FC0117821682838181FFBDC11A
:104F7000CE0101964C01F7019381F60193FD8591D5
:104F800093FF81916F01882309F4ABC1853239F415
:104F900093FD859193FF81916F01853229F4B701CB
:104FA00090E00E949129E7CF512C312C20E0203253
:104FB000A0F48B3269F030F4803259F0833269F416
:104FC00020612CC08D3239F0803339F4216026C045
:104FD0002260246023C0286021C027FD27C030ED57
:104FE000380F3A3078F426FF06C0FAE05F9E300DA5
:104FF0001124532E13C08AE0389E300D1124332E15
:1050000020620CC08E3221F426FD6BC1206406C0E4
:105010008C3611F4206802C0883641F4F60193FD05
:10502000859193FF81916F018111C1CF982F9F7D51
:105030009554933028F40C5F1F4FFFE3F9830DC0A4
:10504000833631F0833771F0833509F05BC022C0BD
:10505000F801808189830E5F1F4F44244394512CB3
:10506000540115C03801F2E06F0E711CF801A080E8
:10507000B18026FF03C0652D70E002C06FEF7FEFA7
:10508000C5012C870E9486292C0183012C852F774E
:10509000222E17C03801F2E06F0E711CF801A080BB
:1050A000B18026FF03C0652D70E002C06FEF7FEF77
:1050B000C5012C870E947B292C012C852068222E7B
:1050C000830123FC1BC0832D90E048165906B0F4E1
:1050D000B70180E290E00E9491293A94F4CFF50163
:1050E00027FC859127FE81915F01B70190E00E9426
:1050F000912931103A94F1E04F1A510841145104AA
:1051000071F7E5C0843611F0893639F5F80127FFCB
:1051100007C060817181828193810C5F1F4F08C03D
:1051200060817181072E000C880B990B0E5F1F4F59
:105130002F76722E97FF09C0909580957095619596
:105140007F4F8F4F9F4F2068722E2AE030E0A401DE
:105150000E94C929A82EA81844C0853729F42F7E9B
:10516000B22E2AE030E025C0F22FF97FBF2E8F3615
:10517000C1F018F4883579F0B4C0803719F0883759
:1051800021F0AFC02F2F2061B22EB4FE0DC08B2DA9
:105190008460B82E09C024FF0AC09F2F9660B92EE4
:1051A00006C028E030E005C020E130E002C020E188
:1051B00032E0F801B7FE07C060817181828193817E
:1051C0000C5F1F4F06C06081718180E090E00E5F30
:1051D0001F4FA4010E94C929A82EA818FB2DFF77F4
:1051E0007F2E76FE0BC0372D3E7FA51450F474FE43
:1051F0000AC072FC08C0372D3E7E05C0BA2C372D80
:1052000003C0BA2C01C0B52C34FF0DC0FE01EA0D5D
:10521000F11D8081803311F4397E09C032FF06C050
:10522000B394B39404C0832F867809F0B39433FD0C
:1052300013C030FF06C05A2CB31418F4530C5B187B
:10524000B32CB31468F4B70180E290E03C870E946D
:105250009129B3943C85F5CFB31410F43B1801C0E9
:10526000312C34FF12C0B70180E390E03C870E94EC
:1052700091293C8532FF17C031FD03C088E790E0DB
:1052800002C088E590E0B7010CC0832F867859F002
:1052900031FF02C08BE201C080E237FD8DE2B70131
:1052A00090E00E949129A51438F4B70180E390E0C2
:1052B0000E9491295A94F7CFAA94F401EA0DF11DA6
:1052C0008081B70190E00E949129A110F5CF332091
:1052D00009F451CEB70180E290E00E9491293A94FE
:1052E000F6CFF7018681978102C08FEF9FEF2C9652
:1052F000E2E10C947324FC010590615070400110B0
:10530000D8F7809590958E0F9F1F0895FC016150EE
:10531000704001900110D8F7809590958E0F9F1FD7
:1053200008950F931F93CF93DF93FB01238121FDFA
:1053300003C08FEF9FEF28C022FF16C04681578120
:10534000248135814217530744F4A081B1819D0126
:105350002F5F3F4F318320838C93268137812F5FCE
:105360003F4F3783268310C0EB01092F182F00848D
:10537000F185E02D0995892BE1F68E819F810196BB
:105380009F838E83812F902FDF91CF911F910F915B
:105390000895FA01AA27283051F1203181F1E894CB
:1053A0006F936E7F6E5F7F4F8F4F9F4FAF4FB1E018
:1053B0003ED0B4E03CD0670F781F891F9A1FA11D13
:1053C000680F791F8A1F911DA11D6A0F711D811D14
:1053D000911DA11D20D009F468943F912AE0269FD9
:1053E00011243019305D3193DEF6CF010895462F38
:1053F0004770405D4193B3E00FD0C9F7F6CF462F19
:105400004F70405D4A3318F0495D31FD4052419381
:1054100002D0A9F7EACFB4E0A6959795879577953E
:105420006795BA95C9F700976105710508959B01C5
:10543000AC010A2E06945795479537952795BA954E
:10544000C9F7620F731F841F951FA01D089511E0F7
:10545000CCEFD1E004C0FE010E94F2242196CD3FA2
:08546000D107C9F7F894FFCF52
:1054680000A776003731323300010900000100003F
:105478000000000000000000000000000000000024
:105488000000000101010000000000000000000011
:10549800000000000000000101414C50484100009C
:1054A800000042455441000000000047414D4D4175
:1054B80000000000FFFFFFFFFFFFFFFFFFFFFFFFF0
:1054C800FFFFFFFFFFFFFFFFFFFFFFFFFFFFFFFFE4
:1054D800FFFFFFFFFFFFFFFFFFFFFFFFFFFFFFFFD4
:1054E800FFFFFFFF050000960680004E616D6520F6
:1054F80000000044656C617920666F72200000002E
:105508000000000000576F7264200000000044652E
:10551800736372697074696F6E2000000000001B6D
:10552800362D6C775A41576F72647320666F7220FC
:105538000000000000000000000000640D340D941D
:105548000D080D2C0D180D090D00000000000000BD
:1055580000811281128112811281128112811281BD
:10556800120000000030073A077E127B122B123F10
:1055780013AD132E138312AF1200000000000000B9
:1055880000811281128112811281128112000000A1
:105598000000000000730581128112EE04E103444B
:1055A800070000000052075C07730576057905EED1
:1055B80004E10344070000000092165D0C940D936B
:1055C8000D466F726D6174696E672E2E2E005365DD
:1055D80065642073746F726520302E372E32005345
:1055E800656C6620746573742000554E4C4F434BB0
:1055F800004641494C2120004368616E6765205090
:10560800494E3F00536176653F00536176656400FB
:105618004368616E6765206E616D653F003A0053AF
:10562800657474696E67004368616E6765206465B8
:105638006C61793F004368616E676520776F7264BB
:10564800733F005361766520776F7264733F004340
:1056580068616E67652064657363722E203F00453C
:10566800786974203F004A6F652054696E6B6572D3
:105678000053656C6563742073656564206E616DA5
:105688006500253034780053686F772042495033DD
:105698003920736565643F00466F72676F7474657F
:1056A8006E2050494E3F0053657475703F00446545
:1056B8006C617965642061636365737300442000DD
:1056C8002530326400746F203132330050494E2047
:1056D800686173206265656E207365740053657434
:1056E800204C434420636F6E74726173740055706C
:1056F800202F20446F776E0053656C6563743D4EB0
:105708006F2055703D5965730050494E20666F7281
:1057180020006973204F4B0069732057524F4E4742
:0257280000007F
:107E0000112484B714BE81FFF0D085E080938100F7
:107E100082E08093C00088E18093C10086E0809377
:107E2000C20080E18093C4008EE0C9D0259A86E02C
:107E300020E33CEF91E0309385002093840096BBD3
:107E4000B09BFECF1D9AA8958150A9F7CC24DD24C4
:107E500088248394B5E0AB2EA1E19A2EF3E0BF2EE7
:107E6000A2D0813461F49FD0082FAFD0023811F036
:107E7000013811F484E001C083E08DD089C08234E0
:107E800011F484E103C0853419F485E0A6D080C0E4
:107E9000853579F488D0E82EFF2485D0082F10E0AE
:107EA000102F00270E291F29000F111F8ED06801E7
:107EB0006FC0863521F484E090D080E0DECF843638
:107EC00009F040C070D06FD0082F6DD080E0C81688
:107ED00080E7D80618F4F601B7BEE895C0E0D1E017
:107EE00062D089930C17E1F7F0E0CF16F0E7DF06D8
:107EF00018F0F601B7BEE89568D007B600FCFDCFD4
:107F0000A601A0E0B1E02C9130E011968C91119780
:107F100090E0982F8827822B932B1296FA010C0160
:107F200087BEE89511244E5F5F4FF1E0A038BF0790
:107F300051F7F601A7BEE89507B600FCFDCF97BE46
:107F4000E89526C08437B1F42ED02DD0F82E2BD052
:107F50003CD0F601EF2C8F010F5F1F4F84911BD097
:107F6000EA94F801C1F70894C11CD11CFA94CF0C13
:107F7000D11C0EC0853739F428D08EE10CD085E9AC
:107F80000AD08FE07ACF813511F488E018D01DD067
:107F900080E101D065CF982F8091C00085FFFCCF94
:107FA0009093C60008958091C00087FFFCCF809118
:107FB000C00084FD01C0A8958091C6000895E0E648
:107FC000F0E098E1908380830895EDDF803219F02E
:107FD00088E0F5DFFFCF84E1DECF1F93182FE3DFCA
:107FE0001150E9F7F2DF1F91089580E0E8DFEE27F6
:047FF000FF270994CA
:027FFE00040479
:0400000300007E007B
:00000001FF
