:100000000C94AD020C94D5020C94D5020C94D5023C
:100010000C94D5020C94D5020C941B090C94D502B7
:100020000C94D5020C94D5020C94D5020C94D502F4
:100030000C94D5020C94D5020C94D5020C94D502E4
:100040000C9402120C94D5020C94D5020C94D50297
:100050000C94D5020C94D5020C94D5020C94D502C4
:100060000C94DD120C94D5020A1D151D1F1D2F1DA9
:100070006A1D3E1D791DCB1DA21D0D1E331E951E32
:10008000CD1E031FA41E821FA01F911F30204920D8
:100090005A207120AA2053656C6563743D4E6F2011
:1000A00055703D596573000001020408102040801E
:1000B0001B36637C777BF26B6FC53001672BFED7F5
:1000C000AB76CA82C97DFA5947F0ADD4A2AF9CA4E1
:1000D00072C0B7FD9326363FF7CC34A5E5F171D851
:1000E000311504C723C31896059A071280E2EB273F
:1000F000B27509832C1A1B6E5AA0523BD6B329E362
:100100002F8453D100ED20FCB15B6ACBBE394A4C41
:1001100058CFD0EFAAFB434D338545F9027F503CC1
:100120009FA851A3408F929D38F5BCB6DA2110FFED
:10013000F3D2CD0C13EC5F974417C4A77E3D645DEA
:10014000197360814FDC222A908846EEB814DE5E77
:100150000BDBE0323A0A4906245CC2D3AC629195CB
:10016000E479E7C8376D8DD54EA96C56F4EA657A07
:10017000AE08BA78252E1CA6B4C6E8DD741F4BBDA8
:100180008B8A703EB5664803F60E613557B986C155
:100190001D9EE1F8981169D98E949B1E87E9CE5572
:1001A00028DF8CA1890DBFE6426841992D0FB0541C
:1001B000BB1652096AD53036A538BF40A39E81F3DD
:1001C000D7FB7CE339829B2FFF87348E4344C4DE08
:1001D000E9CB547B9432A6C2233DEE4C950B42FAF8
:1001E000C34E082EA16628D924B2765BA2496D8B36
:1001F000D12572F8F66486689816D4A45CCC5D6547
:10020000B6926C704850FDEDB9DA5E154657A78D71
:100210009D8490D8AB008CBCD30AF7E45805B8B3E2
:100220004506D02C1E8FCA3F0F02C1AFBD0301137C
:100230008A6B3A9111414F67DCEA97F2CFCEF0B466
:10024000E67396AC7422E7AD3585E2F937E81C75A4
:10025000DF6E47F11A711D29C5896FB7620EAA18A2
:10026000BE1BFC563E4BC6D279209ADBC0FE78CD31
:100270005AF41FDDA8338807C731B11210592780FF
:10028000EC5F60517FA919B54A0D2DE57A9F93C99E
:100290009CEFA0E03B4DAE2AF5B0C8EBBB3C8353CE
:1002A0009961172B047EBA77D626E169146355212C
:1002B0000C7D554E4C4F434B0053656C6620746566
:1002C0007374200044656C617965642061636365C3
:1002D000737300457261736520732E206261636BD6
:1002E00075703F005265636F76657279207365653E
:1002F000643F004261636B757020697320666F759F
:100300006E6421005570202F20446F776E00536576
:1003100074204C434420636F6E7472617374005098
:10032000494E20686173206265656E2073657400B4
:1003300053657475703F00466F72676F7474656EB5
:100340002050494E3F0053686F772042495033395F
:1003500020736565643F004A6F652054696E6B6564
:100360007200536565642073746F726520302E3798
:100370002E330041726520796F7520737572653F69
:1003800000666F722075706772616465206F6E6CB5
:10039000790054656D70726F7261727920756E7339
:1003A0006563004261636B757020736565643F002F
:1003B000457869743F004368616E676520646573C2
:1003C00063722E203F004368616E676520776F720D
:1003D00064733F004368616E67652064656C617992
:1003E0003F004368616E6765206E616D653F004345
:1003F00068616E67652050494E3F00982F8A429190
:10040000443771CFFBC0B5A5DBB5E95BC25639F106
:1004100011F159A4823F92D55E1CAB98AA07D8016E
:100420005B8312BE853124C37D0C55745DBE72FEA4
:10043000B1DE80A706DC9B74F19BC1C1699BE48699
:1004400047BEEFC69DC10FCCA10C246F2CE92DAA8D
:1004500084744ADCA9B05CDA88F97652513E986D12
:10046000C631A8C82703B0C77F59BFF30BE0C64702
:1004700091A7D55163CA0667292914850AB7273879
:10048000211B2EFC6D2C4D130D385354730A65BB84
:100490000A6A762EC9C281852C7292A1E8BFA24B4E
:1004A000661AA8708B4BC2A3516CC719E892D1246D
:1004B0000699D685350EF470A06A1016C1A41908E5
:1004C0006C371E4C774827B5BCB034B30C1C394A86
:1004D000AAD84E4FCA9C5BF36F2E68EE828F746F62
:1004E00063A5781478C8840802C78CFAFFBE90EB25
:1004F0006C50A4F7A3F9BEF27871C6000000002486
:100500000027002A0000000000250028002B000022
:10051000000000230026002900040404040404044D
:1005200004020202020202030303030303010204A2
:100530000810204080010204081020010204081065
:100540002000000008000201000003040700000072
:100550000000000000000A25EA2411241FBECFEF8E
:10056000D8E0DEBFCDBF12E0A0E0B1E0E4E1F6E507
:1005700002C005900D92A23EB107D9F725E0A2EE88
:10058000B2E001C01D92AD3DB207E1F712E0CCEA46
:10059000D2E004C02197FE010E946326CB3AD10726
:1005A000C9F70E94931B0C94FD2A0C940000FC01D7
:1005B00087E696EEA9E0BAE682839383A483B583A7
:1005C00085E89EEAA7E6BBEB86839783A087B18781
:1005D00082E793EFAEE6BCE382879387A487B58773
:1005E0008AE395EFAFE4B5EA86879787A08BB18B56
:1005F0008FE792E5AEE0B1E5828B938BA48BB58B50
:100600008CE898E6A5E0BBE9868B978BA08FB18F2D
:100610008BEA99EDA3E8BFE1828F938FA48FB58F0A
:1006200089E19DECA0EEBBE5868F978FA0A3B1A3D7
:10063000DF01A659BF4F1C92EE59FF4F1082118265
:10064000128213821482158216821782089580E422
:1006500090E0089580E290E008952F923F924F92AB
:100660005F926F927F928F929F92AF92BF92CF9242
:10067000DF92EF92FF920F931F93CF93DF9300D0FF
:10068000CDB7DEB78C01FB0140818181928153811E
:10069000642E712C9301220F331F7BE1272E239EA2
:1006A000302C11243226A82FB0E09D01220F331FD9
:1006B000239EB02C1124B226492E512C9201220FD8
:1006C000331F239E902C11249226652F70E09B01EE
:1006D000220F331F239E202C112422269301220F48
:1006E000331F220F331F3A8329836D01CC0CDD1C8D
:1006F000CC0CDD1CED2CFF24F701E557FE4F80806C
:100700008C246201CC0CDD1CCC0CDD1CED2CFF24F8
:10071000970125573E4FF901A080AC246B01CC0C0A
:10072000DD1CCC0CDD1CED2CFF24970125573E4F22
:10073000F901D080DC247301E3E0EE0CFF1CEA95A4
:10074000E1F72F2D332725573E4FF9012081E2266F
:100750003D01A3E0660C771CAA95E1F7A72DBB2706
:10076000A557BE4FAC91A62523E0440C551C2A95F5
:10077000E1F7E52DFF27E557FE4FE0814E26E3E048
:10078000660F771FEA95E1F7E72FFF27E557FE4F42
:10079000E0816E2729813A81632E7724F301E557A2
:1007A000FE4F3081298123272E25392F38273527E1
:1007B0003A253A273425362733253B253227F801B9
:1007C0003083392F3427352738253D253E253A27D4
:1007D00034253627B326B924B18248275427A526C5
:1007E000AA26A424A6269A24922429252283942783
:1007F000C92EC824CD24EC24AE254A2664256325C1
:10080000262F222523830F900F90DF91CF911F91E8
:100810000F91FF90EF90DF90CF90BF90AF909F909F
:100820008F907F906F905F904F903F902F900895A2
:100830000F931F93CF93DF93FC01DB011C91119663
:100840000C91119712967C9112971396BC91812F5F
:1008500090E0880F991FCBE1C99F602D1124682774
:10086000402F50E0440F551FC59F802D112448276D
:10087000272F30E0220F331FC39F802D11242827FC
:100880008B2F90E0880F991FC99FC02D11248C27B2
:10089000972F90279B27962794279083972F912710
:1008A0009B27492742274183A12FA027BA272B271F
:1008B000282722837A27762787278383DF91CF9182
:1008C0001F910F910895CF93DF93DC01EB01E88135
:1008D000F0E0EE54FE4FE491EC93ED85F0E0EE5441
:1008E000FE4FE4911196EC931197EA85F0E0EE54F7
:1008F000FE4FE4911296EC931297EF81F0E0EE54E4
:10090000FE4FE4911396EC931397EC81F0E0EE54D4
:10091000FE4FE4911496EC931497E981F0E0EE54C5
:10092000FE4FE4911596EC931597EE85F0E0EE54AA
:10093000FE4FE4911696EC931697EB85F0E0EE549B
:10094000FE4FE4911796EC931797E885F0E0EE548C
:10095000FE4FE4911896EC931897ED81F0E0EE5479
:10096000FE4FE4911996EC931997EA81F0E0EE546A
:10097000FE4FE4911A96EC931A97EF85F0E0EE544F
:10098000FE4FE4911B96EC931B97EC85F0E0EE5440
:10099000FE4FE4911C96EC931C97E985F0E0EE5431
:1009A000FE4FE4911D96EC931D97EE81F0E0EE541E
:1009B000FE4FE4911E96EC931E97EB81F0E0EE540F
:1009C000FE4FE4911F96EC93DF91CF9108958F92A3
:1009D0009F92AF92BF92CF92DF92EF92FF920F93CE
:1009E0001F93CF93DF93CDB7DEB7A0970FB6F894E0
:1009F000DEBF0FBECDBF4C015B01FC018281E380F5
:100A0000F480F0E18F9FE00CF11C1124BA019701F2
:100A10006E0181E1C80ED11CD60190E19C0DFB0155
:100A20008191BF01F90141919F0184278D939A1310
:100A3000F6CFB6018E010F5F1F4FC8010E946304FD
:100A4000F401928080E1882E800ED7015097F1E06A
:100A5000F91538F57D01F8018D91908189278193F1
:100A60008E12FACFB801C6010E942D03BE016B5F42
:100A70007F4FCE0145960E942D03BE01675F7F4FD9
:100A8000CE0149960E942D03BE01635F7F4FCE01C8
:100A90004D960E942D03B601C8010E9463049A94EA
:100AA000D4CFC501F80121918F013D912327FC018D
:100AB0002193CF01AE15BF05A9F7A0960FB6F89404
:100AC000DEBF0FBECDBFDF91CF911F910F91FF9081
:100AD000EF90DF90CF90BF90AF909F908F90089550
:100AE000CF93DF93DC01EB01E881F0E0EE54FF4FA0
:100AF000E491EC93ED81F0E0EE54FF4FE491119618
:100B0000EC931197EA85F0E0EE54FF4FE4911296D2
:100B1000EC931297EF85F0E0EE54FF4FE4911396BB
:100B2000EC931397EC81F0E0EE54FF4FE4911496B0
:100B3000EC931497E985F0E0EE54FF4FE49115969D
:100B4000EC931597EE85F0E0EE54FF4FE491169686
:100B5000EC931697EB81F0E0EE54FF4FE49117967B
:100B6000EC931797E885F0E0EE54FF4FE491189668
:100B7000EC931897ED85F0E0EE54FF4FE491199651
:100B8000EC931997EA81F0E0EE54FF4FE4911A9646
:100B9000EC931A97EF81F0E0EE54FF4FE4911B962F
:100BA000EC931B97EC85F0E0EE54FF4FE4911C961C
:100BB000EC931C97E981F0E0EE54FF4FE4911D9611
:100BC000EC931D97EE81F0E0EE54FF4FE4911E96FA
:100BD000EC931E97EB85F0E0EE54FF4FE4911F96E7
:100BE000EC93DF91CF910895AF92BF92CF92DF92B5
:100BF000EF92FF920F931F93CF93DF93CDB7DEB7A2
:100C0000A0970FB6F894DEBF0FBECDBF9C01B62EE5
:100C1000C72EDC0113960D911C911497BA01A801FF
:100C20007E01B1E1EB0EF11CD70180E1A82EAE0CE4
:100C3000FB019191BF01FA018191AF0198279D932A
:100C4000AA12F6CF005F1F4FD9011296DC90B1E0D7
:100C5000B701CE010196BD1548F50E947005BE0191
:100C60006F5F7F4FC7010E941804BE016B5F7F4F0B
:100C7000CE0145960E941804BE01675F7F4FCE01EA
:100C800049960E941804BE01635F7F4FCE014D96C6
:100C90000E941804D801F7018D91908189278193D2
:100CA000AE12FACF005F1F4FDA94D1CF0E947005C9
:100CB0008B2D9C2DFE01319630E13E0F2191D80104
:100CC0004D918D012427DC012D93CD013E13F6CFEC
:100CD000A0960FB6F894DEBF0FBECDBFDF91CF91C7
:100CE0001F910F91FF90EF90DF90CF90BF90AF904A
:100CF000089580E190E0089580E190E008956F927A
:100D00007F928F929F92AF92BF92CF92DF92EF929B
:100D1000FF920F931F93CF93DF934C013B01EA01A6
:100D20009A0140E050E060E070E080E090E003E095
:100D30000E947026F401EE59FF4FA080B180C2805E
:100D4000D380E480F580068117810E94A726208346
:100D500031834283538364837583868397838401BD
:100D600006591F4F80E4A82E740122E2E20EF11C06
:100D7000209721F1F8018081BA2CB81A2B2D30E090
:100D8000C217D30708F4BC2ECB2CD12CA601B3017B
:100D90009701280F311DC9010E940328F8018081A5
:100DA0008B0D8083CC19DD096C0C7D1C803401F720
:100DB000C4010E940B14F8011082DACFDF91CF91A9
:100DC0001F910F91FF90EF90DF90CF90BF90AF9069
:100DD0009F908F907F906F9008952F923F925F9297
:100DE0006F927F928F929F92AF92BF92CF92DF923B
:100DF000EF92FF920F931F93CF93DF9340315105F2
:100E000009F095C09C012B5F3F4F40E1FB01D901E8
:100E100001900D924A95E1F7AC014A5E5F4FDC010B
:100E20005796EC0168964C0165EA860E911C552494
:100E3000539484E0782ECE0106971C010196FE01A2
:100E400034975F01BE01675071096B0131967F01D4
:100E50008E01025111096A507109F4E07F123FC0FE
:100E6000F1017080E72DF0E0EE54FF4F6490E52D26
:100E7000F0E0E955FF4F7490FC018081E82FF0E02D
:100E8000EE54FF4F8491FA018083F5018081E82FB1
:100E9000F0E0EE54FF4FE491EC93F6018081E82FEF
:100EA000F0E0EE54FF4FE491E8837624F90180816D
:100EB0007826F7017082FA019081F80180818927F4
:100EC000FA0180839C91FB01808189278C93988112
:100ED00031968081892788835394712C1BC0F60139
:100EE000C080F901D080DC24F701D082F8011081A4
:100EF000F10100811027FA011083FB016081FC01E0
:100F0000808186278C93FE0170979081F501808106
:100F1000892788832C5F3F4F73944C5F5F4F1496F3
:100F200024962815390509F086CF81E001C080E0BC
:100F3000DF91CF911F910F91FF90EF90DF90CF90B5
:100F4000BF90AF909F908F907F906F905F903F90F9
:100F50002F9008954F925F926F927F928F929F92FF
:100F6000AF92BF92CF92DF92EF92FF920F931F93B7
:100F7000CF93DF93EC016B01942EA52E7C0182E2CE
:100F8000E80EF11CFE01E659FF4F2081822F90E010
:100F90008E010E591F4FD701A80FB91F283308F033
:100FA0006BC020E82C93808190E047E350E0481B21
:100FB000590B019660E070E08E0D9F1D0E940C2879
:100FC000D8018C901196BC9011971296FC911297B3
:100FD0001396EC91139714966C91149715967C9137
:100FE0001597282D3B2D4F2F5E2F16968C91169717
:100FF00017969C9100E20E948B26C901DA01AE018E
:10100000465A5F4F782E6624552444240B2F11270F
:10101000222733270429152926293729492E5A2E14
:101020006B2E772444246624772404291529262945
:101030003729BA2FA92F982F882788279927BB27C8
:10104000082B192B2A2B3B2BDA010D931D932D9383
:101050003C931397682D7B2D8F2F9E2F0E9469261E
:10106000FE01E25AFF4F6083718382839383CE0136
:101070000E940B14229618C020E82C93808190E0E7
:101080004FE350E0481B590B019660E070E08E0D75
:101090009F1D0E940C28CE010E940B1488E3F701CB
:1010A00011928A95E9F78CCF6991799189919991FB
:1010B0000E9469266C8F7D8F8E8F9F8FCE15DF05E6
:1010C00099F7492D5A2D4132510510F040E250E078
:1010D000B701C601DF91CF911F910F91FF90EF9063
:1010E000DF90CF90BF90AF909F908F907F906F9048
:1010F0005F904F900C9403288F929F92AF92BF9273
:10110000CF92DF92EF92FF920F93CF93DF9300D0B5
:10111000CDB7DEB74C017B01BA016901DC01ED916D
:10112000FC910680F781E02D49837A8309955C0163
:10113000D401ED91FC910084F185E02DC401099565
:1011400069817A81AC14BD0428F0A601C7010E9410
:10115000032824C0D401ED91FC910284F385E02D95
:10116000A601C4010995D401ED91FC910480F5819B
:10117000E02DC40109956C01D401ED91FC9104842A
:10118000F585E02DAC01B701C4010995D401ED91BD
:10119000FC910084F185E02DC401099547018C0C78
:1011A0009D1CA5014C195D09602F70E0C4010E94CF
:1011B0000C28F701E815F90521F09081902791930B
:1011C000F9CF0F900F90DF91CF910F91FF90EF909B
:1011D000DF90CF90BF90AF909F908F9008950F9326
:1011E000CF93DF93EC019A01829606E3AB01BC0139
:1011F000CE010E947C08FE01EE59FF4F2081318113
:101200004281538164817581868197813E5F4F4F12
:101210005F4F6F4F7F4F8F4F9F4F208331834283AC
:1012200053836483758386839783CE01DF91CF9147
:101230000F910C940B141F920F920FB60F92112462
:101240002F934F935F936F937F938F939F93AF935E
:10125000BF93209184008091100390911103A0917D
:101260001203B0911303820F911DA11DB11D809334
:10127000100390931103A0931203B0931303809172
:10128000100390911103A0911203B09113034091A8
:1012900010035091110360911203709113032AE01F
:1012A000880F991FAA1FBB1F2A95D1F7840F951F7E
:1012B000A61FB71F8093100390931103A0931203EE
:1012C000B09313038091100390911103A091120326
:1012D000B0911303409110035091110360911203D8
:1012E0007091130326E0B695A795979587952A9553
:1012F000D1F784279527A627B727809310039093CB
:101300001103A0931203B093130380910F038F5F17
:1013100080930F03BF91AF919F918F917F916F91B8
:101320005F914F912F910F900FBE0F901F901895C6
:10133000680F791F8617970721F0FC01108201962C
:10134000F9CF08956F927F928F929F92AF92BF9242
:10135000CF92DF92EF92FF920F931F93CF93DF9381
:10136000CDB7DEB7A0970FB6F894DEBF0FBECDBFE6
:101370007C014B013A0169015801DC01ED91FC91BE
:101380000484F585E02D40E250E0BE016F5F7F4FA1
:101390000995B7016E5D7F4F0CE59301A401C7016C
:1013A0000E947C08F701EE59FF4F20813181428174
:1013B000538164817581868197813E5F4F4F5F4F76
:1013C0006F4F7F4F8F4F9F4F2083318342835383D3
:1013D0006483758386839783C7010E940B14D701AA
:1013E000ED91FC910284F385E02D40E250E0BE01D6
:1013F0006F5F7F4FC7010995D701ED91FC91048480
:10140000F585E02DA501B601C701099560E270E000
:10141000CE0101960E949809A0960FB6F894DEBFFF
:101420000FBECDBFDF91CF911F910F91FF90EF9035
:10143000DF90CF90BF90AF909F908F907F906F90F4
:101440000895CF93DF93EC0169E670E002960E9465
:101450009809E881F9810084F185E02DCE01DF91C2
:10146000CF91099424EF31E0FC0121933193CF0116
:1014700069E670E00C949809CF93DF93EC010E9429
:10148000320ACE01DF91CF910C945927FC01628181
:1014900070E06F5F7F4F84E0660F771F8A95E1F7FA
:1014A000838194810C94980924E332E0FC01318318
:1014B000208360EB70E005960C949809CF93DF933E
:1014C000EC010E94540ACE01DF91CF910C94592770
:1014D00090E04F960E94D62580930B019AE0899F59
:1014E000D001112420E831E541E050E00E941626A9
:1014F00060930101709302018093030190930401B2
:101500000895CF93DF931F92CDB7DEB7198227E1FD
:10151000AE014F5F5F4F0E9453190F90DF91CF9143
:1015200008958091FD03853021F481E080930001CE
:1015300018C08091FD038530A1F065E070E080E087
:1015400090E00E94C8110E94C8188091F903909100
:10155000FA03099774F368EC70E080E090E00C9473
:10156000C81180910001882341F064E670E080E0BA
:1015700090E00E94C8111092000108958F929F92EE
:10158000AF92BF92CF92DF92EF92FF92CF93DF9311
:1015900094E6892E912CA12CB12C8091FD038530ED
:1015A00091F161E070E080E090E00E94C8112FB7F7
:1015B000F89460911603709117038091180390912D
:1015C00019032FBFC0901A03D0901B03E0901C0397
:1015D000F0901D03A50194010E941E26C216D30699
:1015E000E406F506D0F68FEFC81AD80AE80AF80A1A
:1015F000C0921A03D0921B03E0921C03F0921D03C9
:101600000E94C818CACF80933901C8EBDBE084E69A
:10161000882E912CA12CB12C61E070E080E090E04C
:101620000E94C8112FB7F8946091160370911703A8
:1016300080911803909119032FBFC0901A03D09086
:101640001B03E0901C03F0901D03A50194010E9470
:101650001E26C216D306E406F50678F48FEFC81AE4
:10166000D80AE80AF80AC0921A03D0921B03E09243
:101670001C03F0921D030E94C8188091FD03853061
:1016800039F490913901943019F48093390103C0F1
:10169000219709F0C1CFDF91CF91FF90EF90DF90BC
:1016A000CF90BF90AF909F908F900895AF92BF92D0
:1016B000CF92DF92EF92FF920F931F93CF93DF931E
:1016C000CDB7DEB760970FB6F894DEBF0FBECDBFC3
:1016D000182F60E080E00E94B31881E692E00E943B
:1016E000B118E12EF12C29E0129FC0011124865C73
:1016F0009E4F0E94B11861E080E00E94B318609193
:1017000085046D7F60938504686085E794E00E949E
:10171000D21287E291E00E94261980E1E9EEF3E01F
:10172000DE01119601900D928A95E1F7970194E000
:10173000220F331F9A95E1F7690180E4C80ED11C8E
:1017400049EEA42E43E0B42E7901E0E5EE0EF11C43
:10175000C6010E94D625F50181935F01FFEFCF1AE4
:10176000DF0ACE14DF04A1F740E150E0BE016F5F55
:101770007F4F89EE93E00E94F627892B39F58AE6A0
:1017800092E00E94B1180E94BE0A85E794E00E9490
:10179000D51280E3189F900111247901E0E7EE0E45
:1017A000F11C85E5C82E81E0D82E890100561F4F17
:1017B000C7010E94D625F60181936F01FFEFEF1A52
:1017C000FF0AE016F106A1F781E00BC080E792E086
:1017D0000E94B1180E94BE0A85E794E00E94D512CB
:1017E00080E060960FB6F894DEBF0FBECDBFDF91EC
:1017F000CF911F910F91FF90EF90DF90CF90BF900E
:10180000AF900895EF92FF920F931F93CF93DF93C2
:1018100099E0899F90011124790194E0E90EF11C6F
:10182000E901C65CDE4F8901035F1F4FC7010E94BB
:10183000D62589938FEFE81AF80AE016F106B1F77A
:10184000DF91CF911F910F91FF90EF900895CF936B
:10185000DF93EC010E94902590E0292F30E0FE01FB
:10186000E20FF31FE491D901A450BD4FEC939F5FA9
:10187000891798F78CEF92E0DF91CF910895CF937D
:10188000DF93DC01EC012596FE0101900020E9F7D1
:101890003197EC1BFD0BEC9311962C911197822F35
:1018A00090E08E0F911D40971CF08FE0821B8C936F
:1018B000DF91CF910895CF93DF93D82FC0E0CD175C
:1018C00031F08BE892E00E94B118CF5FF8CFDF9142
:1018D000CF9108950F931F93CF93DF93EC018B016A
:1018E0001092E80360E080E00E94B318CE010E94ED
:1018F000B118FE0101900020E9F78C2F8E1B8F5E3E
:101900000E945B0C61E080E00E94B31886E990E0E1
:101910000E94270C0E94B1188091FD03853079F454
:1019200090913901913019F4F801908304C09430FA
:1019300031F4F80110828093390181E001C080E028
:10194000DF91CF911F910F910895EF92FF920F9326
:101950001F93CF93DF937C018B01EA018A81882357
:10196000D9F181E08093E80360E080E00E94B31841
:10197000C7010E94B11861E080E00E94B318C8015D
:101980000E94B11800910E0361E089810E94B31892
:101990008C818823A1F010E08881181728F48AE24E
:1019A0000E941B191F5FF8CFFE01E80FF11D858112
:1019B000882349F001118AE20E941B1904C0CE015C
:1019C00005960E94B1188EE00E945B0C9981888177
:1019D00061E0890F0E94B31880910D03882371F094
:1019E0008091FB039091FC03079744F010920D0344
:1019F0001092FD031092FC031092FB038091FD03F3
:101A000091E0853009F490E09A838130B1F5E88166
:101A1000F0E0DE01AE0FBF1F15968C9115972B815C
:101A200081110BC0222311F080E301C081E41596DF
:101A30008C93159716961C921BC0CE010596E80F45
:101A4000F91F8081222351F08F5F8A330CF089E3E4
:101A500080838081803364F480E309C08B3514F087
:101A60008AE505C0803214F480E201C08F5F808374
:101A700081E080930D0310920E038091FD0382306C
:101A8000B1F5E881F0E0DE01AE0FBF1F15968C9135
:101A900015972B8181110BC0222311F089E301C01E
:101AA0008AE515968C93159716961C921BC0CE014D
:101AB0000596E80FF91F8081222351F081508A3367
:101AC0000CF089E380838081803364F480E309C073
:101AD0008B3514F08AE505C0803214F480E201C031
:101AE0008150808381E080930D0310920E038091DA
:101AF000FD03833061F4888190E0FE01E80FF91F57
:101B000015820197181619065CF080E009C0811152
:101B10000AC0888190E001968F3091050CF08FE02B
:101B2000888310920E038091FD03853071F49091AB
:101B30003901943051F48093390181E08A8385E73B
:101B400094E00E94D51281E014C08A8181110EC0F8
:101B500080910E0381110AC08091FB039091FC03D8
:101B6000079724F081E08A8380930E030E94910AF4
:101B700080E0DF91CF911F910F91FF90EF9008953A
:101B8000CF93DF93CDB7DEB764970FB6F894DEBF7F
:101B90000FBECDBFE2E2F1E06483118299E0E1E69D
:101BA000F2E0DE01119601900D929A95E1F7FE01A7
:101BB0003A969BE0DF011D929A95E9F7B9E08B9F79
:101BC000C0011124BC01665C7E4FCE0101960E94CB
:101BD000132842E251E06CE872E0CE0101960E94C7
:101BE000A50C64960FB6F894DEBF0FBECDBFDF9193
:101BF000CF9108950F931F93CF93DF931F92CDB78B
:101C0000DEB78C0181E08093C40380E58093E60316
:101C10001092C5031092E703812F912F990F990B12
:101C200069830E941619C80199270E9416196981B3
:101C30008EEF93E00E94E8100E94C71965E070E003
:101C400080E090E00F90DF91CF911F910F910C9465
:101C5000C8110F931F93CF93DF9320E3829FC0019E
:101C600011248C01085B1F4BEC01C858DF4B6FEF50
:101C7000C8010E94FA0D0F5F1F4F0C171D07B9F71F
:101C8000DF91CF911F910F910895CF93DF93EC01D6
:101C900081E08093C40380E58093E6031092C5033E
:101CA0001092E7038D2F9D2F990F990B0E94161903
:101CB000CE0199270E9416190E94C7198091C3036B
:101CC0008111FCCF81E08093C3038093C2039FEF17
:101CD0009093C1031092C0031092BF0380939E03A0
:101CE00080919E03806A80939E0380919D03813042
:101CF00061F410929D0380919E038093BB008091BC
:101D0000BC0083FDF8CF85EC01C085EE8093BC005C
:101D10008091C3038130E1F38091C003811103C03E
:101D20008091C00301C081E0AFE9B3E021E333E07B
:101D3000F9019E2F921B981718F49D919193F9CF5A
:101D400010921503809314038EEF93E00E949C1071
:101D5000DF91CF9108950F931F93CF93DF9320E3EB
:101D6000829FC00111248C01085B1F4BEC01C858F5
:101D7000DF4BC8010E94450E8F3F39F40F5F1F4FA4
:101D80000C171D07B1F780E001C081E0DF91CF9112
:101D90001F910F910895FF920F931F93CF93DF939D
:101DA000C82FD0E0CE57DF4F83E0CC0FDD1F8A95E0
:101DB000E1F7C60FD11D94E0CC0FDD1F9A95E1F736
:101DC0000BEE12E0CB5ED24020E1F22EF00ECE01FF
:101DD000800F911F0E94450EF80181938F01FE1222
:101DE000F6CF1092FB028BEE92E0DF91CF911F9124
:101DF0000F91FF9008950F931F93CF93DF9397FD5B
:101E00001BC0EC0183E0CC0FDD1F8A95E1F702EEE9
:101E100012E0C25ED240CE01800F911F0E94450E9B
:101E2000F80181938F01F2E00A3E1F07A1F710929B
:101E3000EA0282EE92E002C081E992E0DF91CF9166
:101E40001F910F910895EF92FF920F931F93CF93DD
:101E5000DF931F92CDB7DEB77C01FC0100811181B9
:101E6000C80169830E94D6256981681719F0C801E5
:101E70000E94DE25C7010F90DF91CF911F910F9136
:101E8000FF90EF900895CF92DF92EF92FF920F9321
:101E90001F93CF93DF9300D0CDB7DEB720E1829FB1
:101EA000C00111247C01E0E4EE0EF11C29EEC22EEB
:101EB00023E0D22E8C01005B1F4FF60161916F0170
:101EC000FA82E982CE0101960E94230FFFEFEF1AFA
:101ED000FF0AE016F10689F70F900F90DF91CF917E
:101EE0001F910F91FF90EF90DF90CF900895CF92C8
:101EF000DF92EF92FF920F931F93CF93DF9300D067
:101F0000CDB7DEB720E3829FC00111247C01E0E75A
:101F1000EE0EF11C25E5C22E21E0D22E8C010056DA
:101F20001F4FF60161916F01FA82E982CE0101969D
:101F30000E94230FFFEFEF1AFF0AE016F10689F760
:101F40000F900F90DF91CF911F910F91FF90EF9025
:101F5000DF90CF900895CF92DF92EF92FF920F9390
:101F60001F93CF93DF9300D0CDB7DEB799E0899F61
:101F700070011124E4E0EE0EF11CF9E08F9F800166
:101F80001124065C1E4F680189E0C80ED11CF801BF
:101F900061918F01FA82E982CE0101960E94230F9E
:101FA000FFEFEF1AFF0A0C151D0589F70F900F9030
:101FB000DF91CF911F910F91FF90EF90DF90CF9025
:101FC0000895CF92DF92EF92FF920F931F93CF93DA
:101FD000DF936C017A018B01C0E0D0E0CE15DF0504
:101FE00089F0D8016D918D01D601ED91FC910190A0
:101FF000F081E02DC6010995892B11F47E0102C004
:102000002196ECCFC701DF91CF911F910F91FF90E7
:10201000EF90DF90CF900895833081F028F48130E5
:1020200099F08230A1F008958730A9F08830B9F096
:102030008430D1F4809180008F7D03C08091800036
:102040008F7780938000089584B58F7702C084B520
:102050008F7D84BD08958091B0008F7703C08091FB
:10206000B0008F7D8093B00008953FB7F8948091C1
:10207000990390919A03A0919B03B0919C0326B57C
:10208000A89B05C02F3F19F00196A11DB11D3FBFB0
:10209000BA2FA92F982F8827820F911DA11DB11D3E
:1020A000BC01CD0142E0660F771F881F991F4A953A
:1020B000D1F7089585ED8093BC008091BC0084FD2C
:1020C000FCCF1092C303089540917303262F30E094
:1020D000240F311D21323105DCF42091C30324305B
:1020E000C9F4FC0180E090E0861758F43091730346
:1020F0002191DC01AF5ABC4FA30FB11D2C93019667
:10210000F3CF80917303680F6093730380E00895A9
:1021100081E0089582E008950895E091150380918B
:102120001403E81730F4F0E0EF5CFC4F808190E09E
:1021300008958FEF9FEF08959091150380911403F8
:10214000981750F4E92FF0E0EF5CFC4F208130E06D
:102150009F5F9093150302C02FEF3FEFC9010895D1
:102160008091140390E020911503821B910908953A
:10217000CF92DF92EF92FF920F931F93CF93DF9353
:102180007C01262F972F8A018091C403882391F028
:10219000C62FD72F6E01C40ED51ECC15DD0571F0EC
:1021A0006991D701ED91FC910190F081E02DC7017B
:1021B0000995F3CF642F822F0E946410C801DF912C
:1021C000CF911F910F91FF90EF90DF90CF900895E6
:1021D000CF93DF931F92CDB7DEB769832091C403FD
:1021E0002223D1F02091E703203240F021E030E0BB
:1021F000FC013383228380E090E015C08091C50309
:10220000E82FF0E0EA53FC4F998190838F5F809331
:10221000C5038093E70305C061E0CE0101960E94EB
:10222000641081E090E00F90DF91CF9108950895C0
:1022300080E090E008950E94F127CF93DF93282F4C
:1022400030E0F901EF5BFA4F8491F901E35DFA4F59
:10225000D491F901E75EFA4FC491CC2391F081113A
:102260000E940C10EC2FF0E0EE0FFF1FE15FFA4F21
:10227000A591B491EC91ED2381E090E021F480E010
:1022800002C080E090E0DF91CF9108951F93CF933B
:10229000DF93282F30E0F901EF5BFA4F8491F901C9
:1022A000E35DFA4FD491F901E75EFA4FC491CC2374
:1022B000C9F0162F81110E940C10EC2FF0E0EE0FE8
:1022C000FF1FEB5FFA4FA591B4918FB7F8941111EE
:1022D00005C09C91ED2FE095E92302C0EC91ED2B18
:1022E000EC938FBFDF91CF911F910895CF93DF9330
:1022F000EC0160E08E810E94461161E08E810E94B7
:10230000461160E08E810E9446118BE891E00197B2
:10231000F1F7DF91CF910895CF93DF9390E0FC0127
:10232000E35DFA4F2491FC01E75EFA4F8491882324
:1023300061F190E0880F991FFC01E550FB4FC591BA
:10234000D491FC01EB5FFA4FA591B491611109C0E2
:102350009FB7F8948881209582238883EC912E235F
:102360000BC0623061F49FB7F8943881822F80955A
:1023700083238883EC912E2B2C939FBF06C08FB7AD
:10238000F894E8812E2B28838FBFDF91CF91089599
:102390008F929F92AF92BF92CF92DF92EF92FF9275
:1023A0006B017C010E9435104B015C01C114D1040A
:1023B000E104F104F1F00E943510DC01CB01881931
:1023C0009909AA09BB09883E9340A105B10570F39C
:1023D00021E0C21AD108E108F10888EE880E83E0F6
:1023E000981EA11CB11CC114D104E104F10419F719
:1023F000DDCFFF90EF90DF90CF90BF90AF909F9098
:102400008F9008951F920F920FB60F9211242F9361
:102410003F938F939F93AF93BF93809116039091B7
:102420001703A0911803B09119033091980323E08A
:10243000230F2D3720F40196A11DB11D05C026E8FC
:10244000230F0296A11DB11D2093980380931603BC
:1024500090931703A0931803B093190380919903E5
:1024600090919A03A0919B03B0919C030196A11DAA
:10247000B11D8093990390939A03A0939B03B0930B
:102480009C03BF91AF919F918F913F912F910F909E
:102490000FBE0F901F901895CF92DF92EF92FF9290
:1024A0000F931F93CF93DF937C016C0187E0C80EDD
:1024B000D11CC0E0D0E0062F10E0B8010C2E02C005
:1024C000759567950A94E2F76170F60181916F0145
:1024D0000E9446112196C430D10579F7C701DF91DA
:1024E000CF911F910F91FF90EF90DF90CF900C94C0
:1024F0007611CF92DF92EF92FF920F931F93CF93BB
:10250000DF93EC01F62E642F8C810E9446118D81A1
:102510008F3F19F060E00E9446118F850F2D10E06B
:1025200084FF25C06E0187E0C80ED11CE12CF12C80
:10253000B8010E2C02C0759567950A94E2F7617098
:10254000F60181916F010E944611FFEFEF1AFF0A19
:1025500088E0E816F10461F7CE01DF91CF911F9179
:102560000F91FF90EF90DF90CF900C947611B8010F
:1025700084E0759567958A95E1F7CE010E944C122B
:102580006F2DCE01DF91CF911F910F91FF90EF90B2
:10259000DF90CF900C944C1241E00E94791281E0C0
:1025A00090E0089540E00C94791261E00E94D2120C
:1025B0008BE39FE10197F1F708951F920F920FB6F9
:1025C0000F9211242F933F934F935F936F937F93B9
:1025D0008F939F93AF93BF93EF93FF938091B90035
:1025E000887F803609F49CC068F5883209F45BC0A6
:1025F00090F4803109F454C038F4882309F4F6C00B
:10260000883009F44DC0F6C0883109F44CC08032DE
:1026100009F45DC0EFC0803409F468C048F4803329
:1026200009F455C0883309F0E5C08093C103D8C0D0
:10263000803509F44FC0883509F45DC0883409F04D
:10264000D9C0D6C0883909F4C7C0A8F4883709F4BE
:1026500067C038F4883609F463C0803709F460C075
:10266000C9C0883809F4B8C0803909F45FC080381F
:1026700009F0C0C05BC0803B09F486C038F4803AE2
:1026800009F466C0883A09F47FC0B4C0803C09F4FC
:10269000A7C0883C09F4A4C0883B09F48AC0AAC03A
:1026A00080919E0310C09091C0038091BF03981742
:1026B00070F5E091C00381E08E0F8093C003F0E0DD
:1026C000E156FC4F80818093BB0085EC86C08093EF
:1026D000C1038EC0E091C00381E08E0F8093C003E0
:1026E0008091BB00F0E0E156FC4F80839091C003E5
:1026F0008091BF036EC0E091C00381E08E0F809394
:10270000C0038091BB00F0E0E156FC4F80838091D4
:10271000C20381116DC081E080939D0384EA61C092
:1027200083E08093C30310929703CFCF80919703E8
:10273000803208F051C0E091970381E08E0F8093C2
:1027400097038091BB00F0E0E958FC4F8083BDCF38
:1027500085EC8093BC001092C30380919703803274
:1027600030F4E0919703F0E0E958FC4F108260915B
:10277000970370E0E0917503F091760387E793E0AB
:1027800009951092970336C084E08093C30310929A
:10279000740310927303E0917103F0917203099531
:1027A00080917303811105C081E0809373031092BF
:1027B0005103E091740381E08E0F80937403F0E085
:1027C000EF5AFC4F80818093BB00909174038091FD
:1027D0007303981708F479CF85E88093BC000AC08A
:1027E00085EC8093BC001092C30304C01092C10317
:1027F0000E945A10FF91EF91BF91AF919F918F91DD
:102800007F916F915F914F913F912F910F900FBEEC
:102810000F901F9018952F923F924F925F926F9258
:102820007F928F929F92AF92BF92CF92DF92EF9260
:10283000FF920F931F93CF93DF93CDB7DEB7CC54A6
:10284000D1090FB6F894DEBF0FBECDBF2D969FAF56
:102850008EAF2D971C0102E2200E311C8E599F4F26
:10286000988F8F8BF10160817181828193810E94A9
:10287000692661937193819391932F89388DE21723
:10288000F30789F72D96AEADBFAD2D9712964D91FA
:102890005D916D917C9115974FA358A769A77AA771
:1028A00016964D905D906D907C9019974BA65CA606
:1028B0006DA67EA61A964D905D906D907C901D97AA
:1028C0004FA658AA69AA7AAA1E964D905D906D905F
:1028D0007C9051974BAA5CAA6DAA7EAA52964D9005
:1028E0005D906D907C9055974FAA58AE69AE7AAEC8
:1028F00056964D905D906D907C9059974BAE5CAE26
:102900006DAE7EAE5A964D905D906D907C905D97C9
:1029100023964CAE5DAE6EAE7FAE23975E964D9025
:102920005D906D907C90919727964CAE5DAE6EAEAB
:102930007FAE27970BEF13E01E8B0D8B73016201A7
:1029400023962CAD3DAD4EAD5FAD23972F8F38A3B1
:1029500049A35AA34BAD5CAD6DAD7EAD498B5A8B8F
:102960006B8B7C8B6FA978AD89AD9AAD6D837E83BF
:102970008F8398878BA99CA9ADA9BEA98BA39CA383
:10298000ADA3BEA34FA458A869A87AA84B8E5C8EAD
:102990006D8E7E8E6BA47CA48DA49EA469867A869F
:1029A0008B869C868FA098A4A9A4BAA489829A82B7
:1029B000AB82BC82ED89FE890591159125913491F8
:1029C000D1014D905D906D907D901D014D815E8196
:1029D0006F817885B62F672F742F452F5B2F400EA0
:1029E000511E621E731E0D811E812F813885009538
:1029F0001095209530958F8C98A0A9A0BAA0082199
:102A000019212A213B2189889A88AB88BC888D812D
:102A10009E81AF81B88588229922AA22BB220825EF
:102A200019252A253B25040D151D261D371D2A01B4
:102A30003B01440C551C661C771C411C440C551C66
:102A4000661C771C411C4C015D018B2CBA2CA92CF7
:102A5000982E80FAB794A79497948794B7F8842413
:102A60009524A624B7242A013B0140FA7794679461
:102A70005794479477F840FA77946794579447941B
:102A800077F840FA779467945794479477F88424BA
:102A90009524A624B724800E911EA21EB31EC80C36
:102AA000D91CEA1CFB1C09811A812B813C81A02FB7
:102AB000032F322F212F1A2F000F111F221F331F18
:102AC000011DD901C801880F991FAA1FBB1F811DB5
:102AD00049815A816B817C8140FB77956795579539
:102AE000479577F940FB779567955795479577F91F
:102AF0008C019D01042715272627372749815A81F4
:102B00006B817C81FA01AB01BF01440F551F661F29
:102B1000771F411D440F551F661F771F411DDB01A5
:102B2000CA01880F991FAA1FBB1F811DB901A801E7
:102B3000482759276A277B278B8C9C8CAD8CBE8CB1
:102B400049845A846B847C8484249524A624B724E5
:102B500009811A812B813C8180229122A222B322F9
:102B60000B8D1C8D2D8D3E8D0421152126213721A5
:102B7000082519252A253B25400F511F621F731F69
:102B80008BA19CA1ADA1BEA18C0D9D1DAE1DBF1D35
:102B90008D879E87AF87B88BDB01CA018C0D9D1D89
:102BA000AE1DBF1D0D891E890C5F1F4F1E8B0D8B27
:102BB0002B8D3C8D4D8D5E8D2BA33CA34DA35EA331
:102BC000CF8CD8A0E9A0FAA04F89588D24163506DD
:102BD00069F109891A892B893C890F8F18A329A3C8
:102BE0003AA32D813E814F815885298B3A8B4B8B9F
:102BF0005C8B4D855E856F8578894D835E836F83A1
:102C0000788749845A846B847C844B8E5C8E6D8E6D
:102C10007E8E69807A808B809C8069867A868B869E
:102C20009C8689839A83AB83BC83C4CE6BE374E0B8
:102C30007E8B6D8B22242394312CF101EF70FF27C2
:102C40003896EE0FFF1FEE0FFF1F2D96EEACFFAC78
:102C50002D97EE0DFF1D0281138124813581F10135
:102C60003D96EF70FF273896EE0FFF1FEE0FFF1F08
:102C7000EE0DFF1DC280D380E480F5804FE0420D51
:102C8000E42FEF70B601A7013A014B0160FA979467
:102C900087947794679497F82B966CAE7DAE8EAE42
:102CA0009FAE2B972D966EAD7FAD2D9744E0E49FA0
:102CB000600D711D1124FB01B096F88FEF8BF101AF
:102CC0003896EF70FF273896EE0FFF1FEE0FFF1FAD
:102CD0002D964EAD5FAD2D974E0F5F1FEF89F88D8E
:102CE0004280538064807580FA0182809380A48042
:102CF000B580840C951CA61CB71C702E412E522E3C
:102D0000632EB301A201440F551F661F771F411D9B
:102D100028013901E3E07694679457944794EA9543
:102D2000D1F74426552666267726B80189019B01EE
:102D300000FB379527951795079537F900FB3795D1
:102D400027951795079537F9402651266226732651
:102D5000480C591C6A1C7B1CFAE0F694E794D79443
:102D6000C794FA95D1F72B968CAC9DACAEACBFACAA
:102D70002B97C824D924EA24FB2480FAB794A7947B
:102D800097948794B7F880FAB794A7949794879408
:102D9000B7F88C249D24AE24BF24840C951CA61C5B
:102DA000B71CEF89F88D82829382A482B5826D89E7
:102DB0007E89FB0145905590659074904F8A588E9E
:102DC000698E7A8E0D851E852F853889F22F232FE7
:102DD000302F012F1F2F4D855E856F857889409597
:102DE00050956095709549885A886B887C884421F5
:102DF0005521662177214D805E806F807884CD8457
:102E0000DE84EF84F8884C205D206E207F206A01EC
:102E10007B01C424D524E624F7244F89588D698D7D
:102E20007A8DC40ED51EE61EF71E28013901440C0A
:102E3000551C661C771C411C440C551C661C771CD9
:102E4000411C4D855E856F857889E42F472F762F4D
:102E5000652F5E2F40FB779567955795479577F9D6
:102E600044255525662577252801390140FA7794B0
:102E700067945794479477F840FA779467945794F7
:102E8000479477F840FA779467945794479477F883
:102E900044255525662577254C0D5D1D6E1D7F1D2E
:102EA000840E951EA61EB71E4F8C58A069A07AA04E
:102EB000840C951CA61CB71CD82EE92EFA2ECB2EFE
:102EC000CC0CDD1CEE1CFF1CC11C97018601000F01
:102ED000111F221F331F011DAC01BD0140FB77955F
:102EE00067955795479577F940FB7795679557957F
:102EF000479577F968017901C426D526E626F72695
:102F0000BC01AD01440F551F661F771F411D440FC3
:102F1000551F661F771F411D8A019B01000F111F5E
:102F2000221F331F011DB701A60140275127622729
:102F30007327C984DA84EB84FC8409811A812B818C
:102F40003C81C026D126E226F326C822D922EA22D5
:102F5000FB2209851A852B853C8549805A806B8028
:102F60007C8004211521262137210C251D252E25A5
:102F70003F25400F511F621F731F4B8C5C8C6D8C63
:102F80007E8C480C591C6A1C7B1C480D591D6A1DFF
:102F90007B1D0FEF201A300A2D893E892C5F3F4F91
:102FA0003E8B2D8B89849A84AB84BC848B8E9C8EC3
:102FB000AD8EBE8EA988BA88CB88DC88AF8EB8A2C9
:102FC000C9A2DAA201E32016310419F18D809E8096
:102FD000AF80B884898A9A8AAB8ABC8AAD84BE8461
:102FE000CF84D888AD82BE82CF82D8864D865E8659
:102FF0006F86788AC980DA80EB80FC80C986DA86A1
:10300000EB86FC8689839A83AB83BC83DB01CA0190
:1030100014CE8FA098A4A9A4BAA4480D591D6A1D66
:103020007B1D2D96EEADFFAD2D97428353836483B8
:1030300075838BA49CA4ADA4BEA4880D991DAA1D64
:10304000BB1D86839783A087B18789819A81AB81D5
:10305000BC818FA498A8A9A8BAA8880D991DAA1DFB
:10306000BB1D82879387A487B58789859A85AB85A1
:10307000BC858BA89CA8ADA8BEA8880D991DAA1DCB
:10308000BB1D86879787A08BB18B8FA898ACA9AC06
:10309000BAAC480C591C6A1C7B1C428A538A648A4D
:1030A000758A8D859E85AF85B8894BAC5CAC6DAC5F
:1030B0007EAC840D951DA61DB71D868B978BA08FAA
:1030C000B18F8D819E81AF81B88523964CAC5DAC6C
:1030D0006EAC7FAC2397840D951DA61DB71D828F06
:1030E000938FA48FB58F89899A89AB89BC892796DC
:1030F0004CAC5DAC6EAC7FAC2797840D951DA61DC6
:10310000B71D868F978FA0A3B1A3C45BDF4F0FB607
:10311000F894DEBF0FBECDBFDF91CF911F910F910D
:10312000FF90EF90DF90CF90BF90AF909F908F90E7
:103130007F906F905F904F903F902F9008950097F1
:1031400069F0FC0101900020E9F73197AF01481BBD
:10315000590BBC0185E794E00C94E10F80E090E00E
:1031600008950C949F18643008F063E090918804EF
:10317000691710F06FEF690FE62FF0E0EB58FB4F87
:103180009489682F690F606885E794E00C94D212E7
:1031900082E00E941D11892B91F083E00E941D1195
:1031A000892B81F081E10E941D11892B71F08CE047
:1031B0000E941D11892B61F085E090E00BC081E039
:1031C00090E008C082E090E005C083E090E002C09B
:1031D00084E090E08093FD03823041F018F4813068
:1031E00029F006C0833011F0843011F48093390146
:1031F000059771F48091FB039091FC0301969093E5
:10320000FC038093FB031092FA031092F9030895D4
:103210001092FC031092FB038091F9039091FA0342
:1032200001969093FA038093F9030895682F8EEF27
:1032300093E00C94E810E0917504F091760401900D
:10324000F081E02D682F85E794E009940F931F9398
:10325000CF93DF938C01CAE0D4E0E881F981008448
:10326000F185E02DCE010995F80101900020E9F7E4
:103270003197AF01401B510BE881F9810284F3853E
:10328000E02DB801CE010995E881F9810484F58526
:10329000E02D40E150E069EE73E0CE01DF91CF9187
:1032A0001F910F910994CF92DF92EF92FF920F93AB
:1032B0001F93CF93DF931F92CDB7DEB77C018B01B5
:1032C0006A011092E80360E080E029830E94B3184D
:1032D000C7010E94B118F70101900020E9F731976A
:1032E000EE19FF0980E1F82E8F2D8E1B0E945B0CDA
:1032F00061E080E00E94B318C8010E94B118F80193
:1033000001900020E9F73197E01BF10B8F2D8E1B08
:103310000E945B0C8091FD032981813051F4F601FC
:10332000808190E00197181619060CF080E0F601F4
:1033300080838091FD03823069F4F6019081892FAA
:1033400090E00196422F50E0841795070CF4282F47
:10335000F60120838091FD03853061F4909139015D
:10336000943041F48093390185E794E00E94D512AE
:1033700081E003C00E94910A80E00F90DF91CF911D
:103380001F910F91FF90EF90DF90CF9008952091C3
:10339000E7039091E603213208F04AC08091C3030D
:1033A0008111FCCF32E03093C30331E03093C2038C
:1033B0003FEF3093C1031092C0032093BF03A6ECEC
:1033C000B3E04FE953E0FA013E2F341B321718F4F3
:1033D0003D913193F9CF10929E0320919E03990F56
:1033E000922B90939E0390919D03913061F41092E3
:1033F0009D0390919E039093BB009091BC0093FD20
:10340000F8CF95EC01C095EE9093BC009091C3036A
:103410009230E1F39091C1039F3F79F08091C10315
:10342000803241F08091C103803331F084E005C0E7
:1034300081E003C082E001C083E01092C5031092D6
:10344000E7031092C4030895EF92FF920F931F9326
:10345000CF93DF93EC01623018F08F8588608F87FF
:103460006B8B1C8A80E48D8B80E18E8B80E58F8B4B
:1034700061E08C810E948C118D818F3F19F061E099
:103480000E948C1161E08E810E948C117E0187E088
:10349000E80EF11C00E010E08F8584FD03C084E09D
:1034A00090E002C088E090E0081719074CF461E052
:1034B000F70181917F010E948C110F5F1F4FECCFAC
:1034C0008BE39DE00197F1F760E08C810E9446114B
:1034D00060E08E810E9446118D818F3F19F060E07F
:1034E0000E9446116F8564FD1DC063E0CE010E94FD
:1034F0004C120BE416E4C8010197F1F763E0CE012A
:103500000E944C12C8010197F1F763E0CE010E94BE
:103510004C1283E592E00197F1F762E0CE010E9440
:103520004C1216C06062CE010E94D2128BE496E467
:103530000197F1F76F856062CE010E94D21283E598
:1035400092E00197F1F76F856062CE010E94D2127E
:103550006F856062CE010E94D21284E0888B6CE09D
:10356000CE010E94D212CE010E94D51282E0898B38
:1035700066E0CE01DF91CF911F910F91FF90EF9008
:103580000C94D212CF93DF93EC0161E08BE00E94A8
:103590008C11209711F460E004C0CF3FD10531F4C5
:1035A00061E08BE0DF91CF910C944611ECE4F5E003
:1035B000E491E330F9F048F4E130B9F0E230A1F5FC
:1035C00084B5806284BDC8BD34C0E730E9F0E8301E
:1035D00019F1E43049F58091800080628093800089
:1035E000D0938B00C0938A0024C084B5806884BDCA
:1035F000C7BD1FC080918000806880938000D093F9
:103600008900C093880015C08091B00080688093C5
:10361000B000C093B3000DC08091B0008062809371
:10362000B000C093B40005C0C038D1050CF0B8CFCD
:10363000B2CFDF91CF9108951F93CF93DF93CDB792
:10364000DEB7AE970FB6F894DEBF0FBECDBF182F12
:103650008091D80590E04AE0BE01645D7F4F0196FD
:103660000E949925E091D805F0E0EE0FFF1FEB5A7C
:10367000FE4F808191810E94FB0EBC01CE0183969A
:103680000E941E288BE0E0E5F2E0DE0152960190F8
:103690000D928A95E1F7FE017D9686E0DF011D928D
:1036A0008A95E9F7B9E01B9FB0011124665C7E4F53
:1036B000CE0142960E94132883E290E0A0E0B0E0A1
:1036C00089839A83AB83BC83FE0135968DE0DF014D
:1036D0001D928A95E9F7BE01645D7F4FCE01019688
:1036E0000E9413286BE872E0CE0101960E94132815
:1036F000BE016D5D7F4FCE0101960E94132827E128
:1037000048ED55E0BE016F5F7F4FCE0142960E94AB
:103710005319AE960FB6F894DEBF0FBECDBFDF9142
:10372000CF911F910895CF93DF93CDB7DEB7E79781
:103730000FB6F894DEBF0FBECDBF789484B582601B
:1037400084BD84B5816084BD85B5826085BD85B545
:10375000816085BD80916E00816080936E001092C3
:10376000810080918100826080938100809181003E
:1037700081608093810080918000816080938000CF
:103780008091B10084608093B1008091B00081602D
:103790008093B00080917A00846080937A00809159
:1037A0007A00826080937A0080917A0081608093B1
:1037B0007A0080917A00806880937A001092C1002C
:1037C00061E08DE00E948C1160E08DE00E94461166
:1037D00060E08AE00E948C1181E090E00E94D62592
:1037E0008F3F11F08093050161E08BE00E948C1106
:1037F0008091050190E00E94C21A60E08EE00E9474
:103800008C1160E08FE00E948C1160E080E10E94EA
:103810008C1162E081E10E948C1162E08CE00E94D8
:103820008C1162E082E00E948C1162E083E00E94D1
:103830008C1162E085E794E00E94241A85E794E009
:103840000E94D51260918504862F84608093850440
:103850006C6085E794E00E94D2128091B100887F6D
:1038600081608093B10080E090E00E94D6258A3488
:1038700029F480912F030E94020C2EC085E794E06A
:103880000E94D51289E792E00E94B11860E177E2C8
:1038900080E090E00E94C8110FE110E031EEF32EBD
:1038A000F00E8F2D0E94AB0F86E091E00E9426194A
:1038B0008F2D0E94430F8F2D0E94770F62E1C80168
:1038C0000E94DE250F5F1F4F0232110539F76AE4AF
:1038D00080E090E00E94DE25109215031092140300
:1038E0001092C5031092E7031092C30381E0809306
:1038F000C20310929D0361E082E10E94461161E0E3
:1039000083E10E9446118091B9008E7F8093B900B7
:103910008091B9008D7F8093B90088E48093B800CE
:1039200085E48093BC0060E080E00E94B31882E6EA
:1039300093E00E94270C0E94B11861E080E00E9491
:10394000B31889EB92E00E94270C0E94B118F894FA
:1039500089E0E0E0F0E080935700E491E3E0F0E0FC
:1039600080935700E491E2E0F0E080935700E49107
:10397000E1E0F0E08093570084917894837031F017
:1039800082EB92E00E94270C0E94B11861E08AE06D
:103990000E94B318E12CF12C00E010E0C8010E9455
:1039A000450EE80EF11C0F5F1F4F011520E41207B2
:1039B000A9F789EBE81686ECF80651F086E892E064
:1039C0000E94B11860E777E180E090E00E94C811A2
:1039D00085E580930A012AE0422E512C612C712C3E
:1039E0008E010F5F1F4F1E0195E0290E311C809143
:1039F0003003882309F4BAC3E09138018E2F90E098
:103A0000FC013197E731F10508F07EC7EC5CFF4F10
:103A10000C94632682E080933801E8E3F1E012928F
:103A2000A1E0E732FA07D9F7A7C461E080912F033C
:103A30000E94C00D882309F467C783E007C0809106
:103A40002F030E94560B882321F084E080933801D5
:103A50005BC781E0809338011092300355C78FEE29
:103A600093E00E94270CB8010E946A0C882309F495
:103A70004BC78981882361F185E0E8CFF0902F035F
:103A8000B8018DE892E00E946A0CE82E882309F4C0
:103A90003BC7D980DD2041F161E080E00E94B3188E
:103AA00083E992E00E94B1188EE00E945B0C87E2ED
:103AB00091E00E9426198F2D0E94430F0E94BE0A9A
:103AC00085E794E00E94D512ED2CEE2009F41CC786
:103AD00087E0BCCF60E080912F030E94C00D882357
:103AE00009F412C786E0B2CF85E794E00E94D512B0
:103AF000ECCF82EE93E00E94270CB8010E946A0C82
:103B0000882309F401C78981882309F442C06091A0
:103B10002F03B9E06B9FB0011124665C7E4F81E1F9
:103B200091E00E941E2898E0F92EF0920D018CE0A1
:103B300091E00E943F0C85E794E00E94D512F0923C
:103B40003801E2C6F0902F03B8018DE892E00E94A0
:103B50006A0CE82E882309F4D7C6D980DD2009F441
:103B600054C061E080E00E94B31883E992E00E94B3
:103B7000B1188EE00E945B0C8F2D0E94AB0F0E944B
:103B8000BE0A85E794E00E94D512ED2CEE2009F4E0
:103B9000BBC68AE05BCFE0902F03F12C4AE0BE0168
:103BA0006E5D7F4FC70101960E94992586E0E3E98B
:103BB000F1E0D80101900D928A95E1F718861F82F5
:103BC000BE016E5D7F4FC8010E94132869E972E053
:103BD000C8010E9413284CE051E0B8018BE992E043
:103BE0000E94A50C882309F48FC689E0D82EDE9C9C
:103BF000C001DF9C900D112461E171E0865C9E4F55
:103C00000E941E28D09238017FC68F2D0E94020C80
:103C100085E794E00E94D512B9CF84ED93E00E942D
:103C2000270CB8010E946A0C882309F46DC68981AB
:103C30008823B9F08BE08093380180912F030E9494
:103C4000680A80910B014AE067E271E0EAE08E9F2A
:103C5000C00111240E94992582E291E00E943F0C4C
:103C600053C68CE0F3CE60912F03109226018BE0B7
:103C7000EBE9F1E0D80101900D928A95E1F7FE01A0
:103C80003C9687E0DF011D928A95E9F7B9E0FB2EAB
:103C9000F69EB0011124665C7E4FC8010E94132875
:103CA00042E251E06CE872E0C8010E94A50C882352
:103CB00009F42AC68CE080933801E0902F0387E254
:103CC00091E00E9472256AE070E00E944F26693000
:103CD00071051CF4F0920B0109C06B3F710524F0D3
:103CE0008AEF80930B0102C060930B0160910B017E
:103CF0008E2D90E04F969A838983C8010E94230FEE
:103D0000A0910B01EAE0AE9FD001112420E831E53B
:103D100041E050E00E941626609301017093020179
:103D20008093030190930401EFC586EC93E00E9419
:103D3000270CB8010E946A0C882309F4E5C5898123
:103D4000882349F18DE082CEF0902F03B80183EAF9
:103D500092E00E946A0CE82E882309F4D5C5D98028
:103D6000DD2009F4CAC061E080E00E94B31883E955
:103D700092E00E94B1188BE00E945B0C8F2D0E9494
:103D8000770F0E94BE0A85E794E00E94D512ED2CC1
:103D9000EE2009F4B9C580E159CE80912F030E942D
:103DA0001C1B882339F1E091D805F0E0EE0FFF1FCE
:103DB000EB5AFE4F808191810E94FB0EBC0181E194
:103DC00091E00E941E28809111018F3349F4E2E2B4
:103DD000F1E0129221E0E131F207D9F710920C01E3
:103DE00088E080930D018CE091E00E943F0C8EE012
:103DF000809338018091FD03833009F085C58FE001
:103E000080933801AEC18091D80590E04AE0BE01B0
:103E10006E5D7F4F01960E94992586E0EDEAF1E004
:103E2000D80101900D928A95E1F71F8218861986B4
:103E3000BE016E5D7F4FC8010E94132869E972E0E0
:103E4000C8010E9413284CE051E0B8018BE992E0D0
:103E50000E94A50CB82E882309F456C5E12CF12C3C
:103E6000C12CD12CA0901101C7010E94450E90E0F9
:103E70002A2DAA0C330B8217930789F5A090120103
:103E8000C70101960E94450E90E02A2DAA0C330B23
:103E90008217930721F5A0901301C70102960E9493
:103EA000450E90E02A2DAA0C330B82179307B9F424
:103EB000A0901401C70103960E94450E90E02A2DA0
:103EC000AA0C330B8217930751F4E091D805F0E068
:103ED000EE0FFF1FEB5AFE4FD182C0820BC08FEF57
:103EE000C81AD80A98E0E90EF11CE114A0E4FA0619
:103EF00009F0B8CFB11026CF07C585E794E00E943E
:103F0000D51246CF86EB93E00E94270CB8010E94A1
:103F10006A0C882309F4F8C48981882379F083E145
:103F200095CD80EB93E00E94270CB8010E946A0CAB
:103F3000882309F4E9C48981882389F384E186CD43
:103F40008091D80590E04AE0BE016E5D7F4F0196FA
:103F50000E9499258DE0E6EBF1E0D80101900D92E9
:103F60008A95E1F71E861F86188ABE016E5D7F4F17
:103F7000C8010E94132869E972E0C8010E94132851
:103F80004CE051E06CE872E0C8010E94A50C809101
:103F9000FD03843009F058C08091110181110AC0DD
:103FA00082E18093380185E08093390185E794E0D0
:103FB0000E94D512E0902F03F12CB2E8EB0EF11C19
:103FC00043E0EE0CFF1C4A95E1F78091D805E80E1E
:103FD000F11C54E0EE0CFF1C5A95E1F7A12CB12C1A
:103FE00061E1C62E61E0D62EF60101900020E9F7CE
:103FF000CF01825191408A159B0528F0F501E45FBD
:10400000FE4F658101C060E0C5018E0D9F1D0E94BD
:10401000FA0DEFEFAE1ABE0AF0E1AF16B10421F7C8
:104020006091D8056F5F6093D805683068F480911F
:104030002F030E94CB0EBC0181E191E00E941E285B
:104040008CE091E00E943F0C8091D805883008F404
:104050005BC48091FD03853009F056C482E1F6CC43
:104060001092D80585E794E00E94D5126091D8059A
:1040700080912F030E94CB0EBC0181E191E00E9450
:104080001E2810920D018CE091E00E943F0C81E10E
:10409000DDCC83EA93E00E94270CB8010E946A0CF1
:1040A000882309F431C48981882311F085E1CECCBD
:1040B00087E1CCCC82E993E00E94270CBC018EE121
:1040C00093E00E941E2881E893E00E94270CBC0127
:1040D0008EE193E00E94810A882309F415C486E1E9
:1040E000B5CC83E793E00E94270CB8010E946A0CCC
:1040F000882309F409C487E18093380189818823E2
:1041000009F402C4E0902F0320E3E29E7001112421
:10411000670188EBC81A8FEBD80A35E5A32E31E08A
:10412000B32E98E8E91A9FEBF90AD5016C91C60104
:104130000E94FA0DF5016181B2E0AB0EB11CC6011F
:1041400001960E94FA0DE2E0CE0ED11CCE14DF04DF
:1041500061F7DAC381E08093380180930A011092FD
:10416000300385E794E00E94D512CEC320910A0166
:10417000283109F4C2C1C0F4243009F41EC140F44E
:10418000223009F456C008F0FAC0213079F1BCC3DE
:10419000263009F446C108F42BC1263109F499C12F
:1041A000273109F4A0C1B0C3253509F412C378F44E
:1041B0002F3109F448C120F4293109F4ABC1A4C35B
:1041C000203209F4CFC22D3309F4D7C29DC32B3559
:1041D00009F439C320F42A3509F41FC395C32C35DB
:1041E00009F474C3233609F485C38EC382E693E0D1
:1041F0000E94270CBC018EE193E00E941E28809152
:104200001A0390911B03A0911C03B0911D034497C6
:10421000A105B10564F487E593E00E94270CBC0179
:104220008EE193E00E94810A882309F46DC382E045
:1042300069C360E080E02FAB0E94B3188FEA92E080
:104240000E94B11861E080E00E94B3181092E80368
:1042500080912F0329E0F22EF89EC0011124865C84
:104260009E4F0E94B118E0912F03FE9EF001112491
:10427000E65CFE4FDF010D900020E9F78E2F8A1BD0
:10428000845F0E945B0C83E20E941B19E0902F0365
:104290001A821982F0E3EF9E70011124670180E712
:1042A000C80ED11C90EAE90EF11CA12CB12C2FA94B
:1042B000C6012FAB0E94D6258983C60101960E94B4
:1042C000D6258A8389819A81A80EB91EA2E0CA0EDA
:1042D000D11C2FA9CE14DF0459F7BF92AF9280EC06
:1042E00092E09F938F931F930F932FAB0E942528EB
:1042F000C8010E94B1188091FD030F900F900F909C
:104300000F900F900F902FA9813051F480912F03BF
:10431000811101C021E020932F03822F0E94020C03
:104320008091FD03823061F480912F0390E001972A
:10433000181619060CF080E080932F030E94020CDF
:104340008091FD03853081F490913901943061F4BE
:104350008093390185E794E00E94D51283E0809331
:104360000A01E8E3F1E003C00E94910ACDC2129273
:10437000B1E0E732FB07D9F710922201C5C286E40B
:1043800093E00E94270CB8010E946A0C882309F46C
:10439000BBC285E794E00E94D5128981882359F039
:1043A00086E180930A01E8E3F1E0129221E0E7322E
:1043B000F207D9F7E1CF84E0A5C287E393E00E943A
:1043C000270CB8010E946A0C882309F49DC285E776
:1043D00094E00E94D5128981882341F08FE1809377
:1043E0000A0180912F030E94680A8EC285E08AC26A
:1043F00080E393E00E94270CB8010E946A0C882396
:1044000009F482C285E794E00E94D512898188234D
:1044100031F081E0809338018093300375C286E0EB
:1044200071C2B80185EC92E00E946A0C882309F4FD
:104430006BC285E794E00E94D5128981882309F434
:1044400046C08DE35FC2C0900101D0900201E090B0
:104450000301F090040160911A0370911B03809195
:104460001C0390911D03A30192010E94EC254B01B6
:104470005C01C701B601A30192010E94EC258616DA
:104480009706A806B90609F48BC0809101019091A6
:104490000201A0910301B0910401181619061A0631
:1044A0001B065CF080E280930A0186E091E00E94A6
:1044B000261980912F030E94430F8091FD038530C0
:1044C00009F022C280913901833009F01DC283E6D0
:1044D00019C261E080912F030E94C00D882309F466
:1044E00013C287E10FC280912F030E94560B8823CD
:1044F00011F088E10AC083E005C280912F030E9479
:104500001C1B882309F400C289E180930A011092E0
:10451000D805FAC1F0902F032091D805822F90E0A2
:104520004AE0BE016F5C7F4F01960E9499258DE0A5
:10453000E6EBF1E0DE01929601900D928A95E1F7AB
:1045400018AA1FA6BE016F5C7F4FCE0182960E9403
:10455000132869E972E0CE0182960E94132819821D
:104560001A821B821C828DE0D1011D928A95E9F787
:104570006091D8058F2D0E94CB0EBC01C8010E940E
:104580001E2827E148ED55E0B801CE0182960E9431
:1045900053198111AFC18981882309F4ABC1B4C11A
:1045A000B1E0CB1AD108E108F108C0920101D09224
:1045B0000201E0920301F092040160E080E00E94B9
:1045C000B31884EC92E00E94270C0E94B11861E0BD
:1045D00080E00E94B3186091010170910201809106
:1045E00003019091040120E831E541E050E00E9490
:1045F000EC2557FF26C08DE22FAB3CAB4DAB5EAB3D
:104600000E941B192FA93CA94DA95EA95095409560
:10461000309521953F4F4F4F5F4F19A2FE01B19644
:104620007F01CA01B901A30192010E941E26605DAB
:10463000D7016E937D01211531054105510589F79B
:1046400013C019A2FE01B1967F01CA01B901A301ED
:1046500092010E941E26605DD7016E937D01211597
:1046600031054105510589F7C7010E949F1882ED68
:1046700092E00E94B1186091010170910201809155
:1046800003019091040120E13EE040E050E00E94EF
:10469000EC25CA01B90128E130E040E050E00E9479
:1046A000EC259F938F937F936F9395EDE92E92E086
:1046B000F92EFF92EF921F930F930E942528C801B5
:1046C0000E94B11889E992E00E94B118609101013D
:1046D0007091020180910301909104012CE330E07C
:1046E00040E050E00E94EC25CA01B9012CE330E023
:1046F00040E050E00E94EC259F938F937F936F934F
:10470000FF92EF921F930F930E942528C8010E94E9
:10471000B11889E992E00E94B1186091010170918D
:10472000020180910301909104012CE330E040E00C
:1047300050E00E94EC259F938F937F936F93FF929D
:10474000EF921F930F930E942528C8010E94B11871
:104750008BE892E00E94B1180FB6F894DEBF0FBE4E
:10476000CDBF93CE8FE193E00E94270C6AED72E0FB
:104770000E94810A8111C5C0C7C08EE093E00E94EB
:10478000270CBC018EE193E00E941E2884E093E098
:104790000E94270C28EC45E051E0BC018EE193E03B
:1047A0000E945319882351F083E680930A01609197
:1047B000050181E090E00E94DE25A6C08091FD0306
:1047C000853009F4A1C08091050190E00E94C21AD1
:1047D0009BC080E00E94AB0E882331F08AE5809375
:1047E0000A0110922F0390C081E00E94AB0E882333
:1047F00029F08AE580930A0181E009C082E00E94E5
:10480000AB0E882339F08AE580930A0182E0809319
:104810002F037AC010922F0374C060912F03F9E028
:104820006F9FB0011124CB01865C9E4F7C0183EF0A
:1048300092E00E94270CB7010E94810A882309F4A4
:1048400063C08BE55FC084EE92E00E94270CB80144
:104850000E946A0C882309F457C089818823A1F13A
:10486000E0902F0390E3E99E700111244701A8EB2B
:104870008A1AAFEB9A0A85E5C82E81E0D82EB8E8EF
:10488000EB1ABFEBFB0AC4010E94450EA82EB12C07
:10489000F601B182A082C40101960E94450EB82A99
:1048A000D601AD92BD926D01B2E08B0E911C8E14BB
:1048B0009F0449F780912F030E94770F80912F0367
:1048C0000E94290E85E51EC08CE51CC083ED92E098
:1048D0000E94270CB8010E946A0C8823A9F085E584
:1048E00080930A018981882379F080912F030E94A7
:1048F000290E0AC085E08093390185E794E00E9483
:10490000D51281E080930A010E94C8182FB7F8944D
:104910006091160370911703809118039091190309
:104920002FBFC0901A03D0901B03E0901C03F0909F
:104930001D0324E630E040E050E00E941E26CA013C
:10494000B90124E630E040E050E00E941E264B0111
:104950005C01C701B60124E630E040E050E00E946F
:10496000EC2586169706A806B90661F1C701B601BF
:104970006F5F7F4F8F4F9F4F60931A0370931B039E
:1049800080931C0390931D032091E803F09085040D
:10499000222379F025E030E040E050E00E94EC2551
:1049A00020FD07C08F2D8260809385046F2D6A6083
:1049B00005C06F2D6D7F60938504686085E794E086
:1049C0000E94D21280E090E0892B09F410C80E9466
:1049D000000006C88AE094E00E94320A8DE894E064
:1049E0000E94540AF894A89584B7877F84BFE0E6B4
:1049F000F0E08081886180831082789460E470E0C8
:104A000082E495E00E94980960E470E082E895E015
:104A10000C949809EEEFF3E01382128288EE93E093
:104A2000A0E0B0E084839583A683B7838AEC91E00D
:104A3000918380831092C3051092C205E4ECF5E0E7
:104A4000108281818078806881831092C6051092DF
:104A5000C7051092C8051092C90580E89EEEA6E32E
:104A6000B0E08093CA059093CB05A093CC05B0939A
:104A7000CD051092D6051092D705E5E7F4E0138234
:104A8000128288E492E09183808388E084838FEFB0
:104A9000858389E0868384E0878385E0808786E05C
:104AA000818787E082871386148615861686178687
:104AB00061E0CF010E94241AEDE8F4E084E392E083
:104AC000918380838AE0828382E994E09483838364
:104AD00084EF91E090930B0480930A048AE094E0C1
:104AE0000C94D702FC0188279927E8942191203261
:104AF000E9F3293010F02E30C8F32B3241F02D327B
:104B000039F4689404C00E94A425820F911D21915C
:104B100020532A30C0F31EF4909581959F4F08953D
:104B2000FC0105900020E9F7809590958E0F9F1F5E
:104B30000895BB274A3031F4992322F4BDE29095C1
:104B400081959F4F0C94AD257AE0979F902D879F7C
:104B5000802D910D11240895BB27FB015527AA270D
:104B6000880F991FAA1FA41710F0A41B83955051FA
:104B7000B9F7A05DAA3308F0A95DA193009779F772
:104B8000B111B1931192CB010C94C625DC01FC014B
:104B9000672F71917723E1F7329704C07C916D9371
:104BA00070836291AE17BF07C8F30895F999FECFDD
:104BB00092BD81BDF89A992780B50895262FF9995D
:104BC000FECF1FBA92BD81BD20BD0FB6F894FA9AF0
:104BD000F99A0FBE01960895052E97FB1EF40094D6
:104BE0000E94032657FD07D00E941E2607FC03D013
:104BF0004EF40C94032650954095309521953F4FE7
:104C00004F4F5F4F089590958095709561957F4FB8
:104C10008F4F9F4F08950E944026A59F900DB49FEF
:104C2000900DA49F800D911D11240895B7FF0C9441
:104C30000B260E940B26821B930B0895A1E21A2ECD
:104C4000AA1BBB1BFD010DC0AA1FBB1FEE1FFF1F30
:104C5000A217B307E407F50720F0A21BB30BE40B80
:104C6000F50B661F771F881F991F1A9469F76095C7
:104C70007095809590959B01AC01BD01CF01089581
:104C8000A29FB001B39FC001A39F700D811D11248D
:104C9000911DB29F700D811D1124911D089597FBE8
:104CA000072E16F4009407D077FD09D00E94B02695
:104CB00007FC05D03EF4909581959F4F089570951F
:104CC00061957F4F0895EE0FFF1F0590F491E02D41
:104CD00009946927962769277827872778270895D1
:104CE0000F93083090F0982F872F762F652F542F31
:104CF000432F322F22270850F4CF220F331F441F97
:104D0000551F661F771F881F991F0A95B2F70F91CD
:104D1000089597FB10F8169400080F93083098F048
:104D20000850232F342F452F562F672F782F892F88
:104D3000902DF4CF0594979587957795679557951E
:104D40004795379527950A95AAF70F9108952A0D4B
:104D50003B1D4C1D5D1D6E1D7F1D801F911F089505
:104D6000AA1BBB1B51E107C0AA1FBB1FA617B70791
:104D700010F0A61BB70B881F991F5A95A9F78095AD
:104D80009095BC01CD010895CF93DF9382309105BA
:104D900010F482E090E0E091DB05F091DC0520E08A
:104DA00030E0C0E0D0E0309711F1408151814817E8
:104DB0005907C0F04817590761F482819381209701
:104DC00019F09B838A832BC09093DC058093DB05CD
:104DD00026C02115310519F04217530718F49A011E
:104DE000BE01DF01EF010280F381E02DDCCF211550
:104DF000310509F1281B390B2430310590F4129646
:104E00008D919C9113976115710521F0FB0193839E
:104E1000828304C09093DC058093DB05FD0132960C
:104E200044C0FD01E20FF31F819391932250310999
:104E30002D933C933AC02091D9053091DA05232B6C
:104E400041F420918701309188013093DA05209355
:104E5000D90520918501309186012115310541F454
:104E60002DB73EB74091890150918A01241B350B23
:104E7000E091D905F091DA05E217F307A0F42E1BB3
:104E80003F0B2817390778F0AC014E5F5F4F2417AE
:104E9000350748F04E0F5F1F5093DA054093D90550
:104EA0008193919302C0E0E0F0E0CF01DF91CF91D8
:104EB00008950F931F93CF93DF93009709F48CC04D
:104EC000FC013297138212820091DB051091DC0500
:104ED0000115110581F420813181820F931F2091EA
:104EE000D9053091DA052817390779F5F093DA05F5
:104EF000E093D90571C0D80140E050E0AE17BF077C
:104F000050F412962D913C911397AD012115310566
:104F100009F1D901F3CF9D01DA0133832283608146
:104F20007181860F971F8217930769F4EC0128811E
:104F30003981260F371F2E5F3F4F318320838A81AF
:104F40009B8193838283452B29F4F093DC05E093C6
:104F5000DB0542C01396FC93EE931297ED01499145
:104F600059919E01240F351FE217F30771F48081D8
:104F70009181840F951F029611969C938E93828146
:104F8000938113969C938E931297E0E0F0E0D80102
:104F900012968D919C911397009719F0F8018C014E
:104FA000F6CF8D919C9198012E5F3F4F820F931FFA
:104FB0002091D9053091DA052817390769F430971F
:104FC00029F41092DC051092DB0502C013821282D4
:104FD0001093DA050093D905DF91CF911F910F91BE
:104FE000089581E090E0F8940C94FD2AFB01DC0127
:104FF00004C08D910190801921F441505040C8F7B0
:10500000881B990B0895FB01DC0102C001900D92F1
:1050100041505040D8F70895DC0101C06D934150D4
:105020005040E0F70895FB01DC010D900020E9F706
:10503000119701900D920020E1F70895FB01DC012A
:1050400001900D920020E1F70895AEE0B0E0EBE2B0
:10505000F8E20C94D42A0D891E8986E08C831A8389
:1050600009838FEF9FE79E838D83AE01475E5F4F7D
:105070006F89788DCE0101960E9448282F8138854E
:10508000F801E20FF31F10822E96E4E00C94F02A50
:10509000ACE0B0E0EEE4F8E20C94C62A7C016B01CF
:1050A0008A01FC0117821682838181FFBDC1CE0176
:1050B00001964C01F7019381F60193FD859193FFD1
:1050C00081916F01882309F4ABC1853239F493FDD6
:1050D000859193FF81916F01853229F4B70190E0AA
:1050E0000E94302AE7CF512C312C20E02032A0F44E
:1050F0008B3269F030F4803259F0833269F42061E8
:105100002CC08D3239F0803339F4216026C0226002
:10511000246023C0286021C027FD27C030ED380F50
:105120003A3078F426FF06C0FAE05F9E300D112475
:10513000532E13C08AE0389E300D1124332E206286
:105140000CC08E3221F426FD6BC1206406C08C3663
:1051500011F4206802C0883641F4F60193FD859170
:1051600093FF81916F018111C1CF982F9F7D95543D
:10517000933028F40C5F1F4FFFE3F9830DC0833693
:1051800031F0833771F0833509F05BC022C0F8013C
:10519000808189830E5F1F4F44244394512C540116
:1051A00015C03801F2E06F0E711CF801A080B180CB
:1051B00026FF03C0652D70E002C06FEF7FEFC501D1
:1051C0002C870E94252A2C0183012C852F77222EE3
:1051D00017C03801F2E06F0E711CF801A080B18099
:1051E00026FF03C0652D70E002C06FEF7FEFC501A1
:1051F0002C870E941A2A2C012C852068222E8301DC
:1052000023FC1BC0832D90E048165906B0F4B7016B
:1052100080E290E00E94302A3A94F4CFF50127FC16
:10522000859127FE81915F01B70190E00E94302AAD
:1052300031103A94F1E04F1A51084114510471F7BA
:10524000E5C0843611F0893639F5F80127FF07C02B
:1052500060817181828193810C5F1F4F08C06081E2
:105260007181072E000C880B990B0E5F1F4F2F7654
:10527000722E97FF09C090958095709561957F4F2C
:105280008F4F9F4F2068722E2AE030E0A4010E94C9
:10529000682AA82EA81844C0853729F42F7EB22E7C
:1052A0002AE030E025C0F22FF97FBF2E8F36C1F003
:1052B00018F4883579F0B4C0803719F0883721F0B8
:1052C000AFC02F2F2061B22EB4FE0DC08B2D846095
:1052D000B82E09C024FF0AC09F2F9660B92E06C0C1
:1052E00028E030E005C020E130E002C020E132E0FB
:1052F000F801B7FE07C060817181828193810C5FE4
:105300001F4F06C06081718180E090E00E5F1F4FEB
:10531000A4010E94682AA82EA818FB2DFF777F2ED3
:1053200076FE0BC0372D3E7FA51450F474FE0AC0E4
:1053300072FC08C0372D3E7E05C0BA2C372D03C045
:10534000BA2C01C0B52C34FF0DC0FE01EA0DF11DD1
:105350008081803311F4397E09C032FF06C0B394D6
:10536000B39404C0832F867809F0B39433FD13C03F
:1053700030FF06C05A2CB31418F4530C5B18B32C2E
:10538000B31468F4B70180E290E03C870E94302AB1
:10539000B3943C85F5CFB31410F43B1801C0312C05
:1053A00034FF12C0B70180E390E03C870E94302AAE
:1053B0003C8532FF17C031FD03C088E790E002C092
:1053C00088E590E0B7010CC0832F867859F031FF53
:1053D00002C08BE201C080E237FD8DE2B70190E0B0
:1053E0000E94302AA51438F4B70180E390E00E94AF
:1053F000302A5A94F7CFAA94F401EA0DF11D808166
:10540000B70190E00E94302AA110F5CF332009F4B3
:1054100051CEB70180E290E00E94302A3A94F6CF54
:10542000F7018681978102C08FEF9FEF2C96E2E112
:105430000C94E22AFC010590615070400110D8F7ED
:10544000809590958E0F9F1F0895FC0161507040CC
:1054500001900110D8F7809590958E0F9F1F0895A9
:105460000F931F93CF93DF93FB01238121FD03C093
:105470008FEF9FEF28C022FF16C0468157812481FD
:1054800035814217530744F4A081B1819D012F5FFC
:105490003F4F318320838C93268137812F5F3F4F8D
:1054A0003783268310C0EB01092F182F0084F18564
:1054B000E02D0995892BE1F68E819F8101969F83CE
:1054C0008E83812F902FDF91CF911F910F9108959F
:1054D000FA01AA27283051F1203181F1E8946F9325
:1054E0006E7F6E5F7F4F8F4F9F4FAF4FB1E03ED0CB
:1054F000B4E03CD0670F781F891F9A1FA11D680F69
:10550000791F8A1F911DA11D6A0F711D811D911D9B
:10551000A11D20D009F468943F912AE0269F112410
:105520003019305D3193DEF6CF010895462F477074
:10553000405D4193B3E00FD0C9F7F6CF462F4F70CF
:10554000405D4A3318F0495D31FD4052419302D02D
:10555000A9F7EACFB4E0A6959795879577956795D3
:10556000BA95C9F700976105710508959B01AC01D3
:105570000A2E06945795479537952795BA95C9F7FA
:10558000620F731F841F951FA01D08952F923F92D5
:105590004F925F926F927F928F929F92AF92BF9243
:1055A000CF92DF92EF92FF920F931F93CF93DF93EF
:1055B000CDB7DEB7CA1BDB0B0FB6F894DEBF0FBE4C
:1055C000CDBF09942A88398848885F846E847D8499
:1055D0008C849B84AA84B984C884DF80EE80FD809B
:1055E0000C811B81AA81B981CE0FD11D0FB6F89411
:1055F000DEBF0FBECDBFED01089512E0CCEAD2E0D0
:1056000004C0FE010E9463262196CD3AD107C9F756
:04561000F894FFCF3C
:105614000100A77600373132330001090000010090
:105624000000000000000000000000000000000076
:105634000000000001010100000000000000000063
:1056440000000000000000000105414C50484100EA
:1056540000000042455441000000000047414D4D08
:105664004100000000FFFFFFFFFFFFFFFFFFFFFF00
:10567400FFFFFFFFFFFFFFFFFFFFFFFFFFFFFFFF36
:10568400FFFFFFFFFFFFFFFFFFFFFFFFFFFFFFFF26
:10569400FFFFFFFFFF0000DD058000001B362D6CBF
:1056A400775A414E616D652000000044656C617954
:1056B40020666F72200000000000000000576F7227
:1056C4006420000000004465736372697074696F3C
:1056D4006E200000000000000000E810B81018114F
:1056E4008C10B0109C108D10000000000000000011
:1056F4001B111B111B111B111B111B111B111B1146
:1057040000000000320A3C0A2A032703D7027F065E
:10571400AA07210AEF08A209000000000000000007
:105724001B111B111B111B111B111B11000000006D
:105734000000000079061B111B11F405E704460A5A
:1057440000000000540A5E0A79067C06ED06F405A2
:10575400E704460A00000000CC12E10F18111711EB
:10576400576F72647320666F72200000000000009F
:105774000050494E20666F7220006973204F4B0021
:1057840069732057524F4E4700466F726D617469BA
:105794006E672E2E2E004641494C2120005361761F
:1057A400653F005361766564003A0053657474691B
:1057B4006E67005361766520776F7264733F0053A0
:1057C400656C6563742073656564206E616D650046
:1057D40025303478004C434420636F6E74726F6CD0
:1057E4003F004420002530326400746F203132338E
:0257F4000000B3
:107E0000112484B714BE81FFF0D085E080938100F7
:107E100082E08093C00088E18093C10086E0809377
:107E2000C20080E18093C4008EE0C9D0259A86E02C
:107E300020E33CEF91E0309385002093840096BBD3
:107E4000B09BFECF1D9AA8958150A9F7CC24DD24C4
:107E500088248394B5E0AB2EA1E19A2EF3E0BF2EE7
:107E6000A2D0813461F49FD0082FAFD0023811F036
:107E7000013811F484E001C083E08DD089C08234E0
:107E800011F484E103C0853419F485E0A6D080C0E4
:107E9000853579F488D0E82EFF2485D0082F10E0AE
:107EA000102F00270E291F29000F111F8ED06801E7
:107EB0006FC0863521F484E090D080E0DECF843638
:107EC00009F040C070D06FD0082F6DD080E0C81688
:107ED00080E7D80618F4F601B7BEE895C0E0D1E017
:107EE00062D089930C17E1F7F0E0CF16F0E7DF06D8
:107EF00018F0F601B7BEE89568D007B600FCFDCFD4
:107F0000A601A0E0B1E02C9130E011968C91119780
:107F100090E0982F8827822B932B1296FA010C0160
:107F200087BEE89511244E5F5F4FF1E0A038BF0790
:107F300051F7F601A7BEE89507B600FCFDCF97BE46
:107F4000E89526C08437B1F42ED02DD0F82E2BD052
:107F50003CD0F601EF2C8F010F5F1F4F84911BD097
:107F6000EA94F801C1F70894C11CD11CFA94CF0C13
:107F7000D11C0EC0853739F428D08EE10CD085E9AC
:107F80000AD08FE07ACF813511F488E018D01DD067
:107F900080E101D065CF982F8091C00085FFFCCF94
:107FA0009093C60008958091C00087FFFCCF809118
:107FB000C00084FD01C0A8958091C6000895E0E648
:107FC000F0E098E1908380830895EDDF803219F02E
:107FD00088E0F5DFFFCF84E1DECF1F93182FE3DFCA
:107FE0001150E9F7F2DF1F91089580E0E8DFEE27F6
:047FF000FF270994CA
:027FFE00040479
:0400000300007E007B
:00000001FF
